{"abi":[{"type":"constructor","inputs":[{"name":"treasury","type":"address","internalType":"address payable"},{"name":"royalty","type":"uint16","internalType":"uint16"},{"name":"name","type":"string","internalType":"string"},{"name":"symbol","type":"string","internalType":"string"},{"name":"contractOnwer","type":"address","internalType":"address"}],"stateMutability":"nonpayable"},{"type":"function","name":"DEFAULT_ADMIN_ROLE","inputs":[],"outputs":[{"name":"","type":"bytes32","internalType":"bytes32"}],"stateMutability":"view"},{"type":"function","name":"MINTER_ROLE","inputs":[],"outputs":[{"name":"","type":"bytes32","internalType":"bytes32"}],"stateMutability":"view"},{"type":"function","name":"PAUSER_ROLE","inputs":[],"outputs":[{"name":"","type":"bytes32","internalType":"bytes32"}],"stateMutability":"view"},{"type":"function","name":"URI_SETTER_ROLE","inputs":[],"outputs":[{"name":"","type":"bytes32","internalType":"bytes32"}],"stateMutability":"view"},{"type":"function","name":"approve","inputs":[{"name":"to","type":"address","internalType":"address"},{"name":"tokenId","type":"uint256","internalType":"uint256"}],"outputs":[],"stateMutability":"nonpayable"},{"type":"function","name":"balanceOf","inputs":[{"name":"owner","type":"address","internalType":"address"}],"outputs":[{"name":"","type":"uint256","internalType":"uint256"}],"stateMutability":"view"},{"type":"function","name":"blocked","inputs":[],"outputs":[{"name":"","type":"bool","internalType":"bool"}],"stateMutability":"view"},{"type":"function","name":"burn","inputs":[{"name":"tokenId","type":"uint256","internalType":"uint256"}],"outputs":[],"stateMutability":"nonpayable"},{"type":"function","name":"getApproved","inputs":[{"name":"tokenId","type":"uint256","internalType":"uint256"}],"outputs":[{"name":"","type":"address","internalType":"address"}],"stateMutability":"view"},{"type":"function","name":"getRoleAdmin","inputs":[{"name":"role","type":"bytes32","internalType":"bytes32"}],"outputs":[{"name":"","type":"bytes32","internalType":"bytes32"}],"stateMutability":"view"},{"type":"function","name":"grantRole","inputs":[{"name":"role","type":"bytes32","internalType":"bytes32"},{"name":"account","type":"address","internalType":"address"}],"outputs":[],"stateMutability":"nonpayable"},{"type":"function","name":"hasRole","inputs":[{"name":"role","type":"bytes32","internalType":"bytes32"},{"name":"account","type":"address","internalType":"address"}],"outputs":[{"name":"","type":"bool","internalType":"bool"}],"stateMutability":"view"},{"type":"function","name":"initialize","inputs":[{"name":"treasury","type":"address","internalType":"address payable"},{"name":"royalty","type":"uint16","internalType":"uint16"},{"name":"name","type":"string","internalType":"string"},{"name":"symbol","type":"string","internalType":"string"},{"name":"contractOnwer","type":"address","internalType":"address"}],"outputs":[],"stateMutability":"nonpayable"},{"type":"function","name":"isApprovedForAll","inputs":[{"name":"owner","type":"address","internalType":"address"},{"name":"operator","type":"address","internalType":"address"}],"outputs":[{"name":"","type":"bool","internalType":"bool"}],"stateMutability":"view"},{"type":"function","name":"name","inputs":[],"outputs":[{"name":"","type":"string","internalType":"string"}],"stateMutability":"view"},{"type":"function","name":"ownerOf","inputs":[{"name":"tokenId","type":"uint256","internalType":"uint256"}],"outputs":[{"name":"","type":"address","internalType":"address"}],"stateMutability":"view"},{"type":"function","name":"pause","inputs":[],"outputs":[],"stateMutability":"nonpayable"},{"type":"function","name":"paused","inputs":[],"outputs":[{"name":"","type":"bool","internalType":"bool"}],"stateMutability":"view"},{"type":"function","name":"renounceRole","inputs":[{"name":"role","type":"bytes32","internalType":"bytes32"},{"name":"callerConfirmation","type":"address","internalType":"address"}],"outputs":[],"stateMutability":"nonpayable"},{"type":"function","name":"revokeRole","inputs":[{"name":"role","type":"bytes32","internalType":"bytes32"},{"name":"account","type":"address","internalType":"address"}],"outputs":[],"stateMutability":"nonpayable"},{"type":"function","name":"royaltyInfo","inputs":[{"name":"tokenId","type":"uint256","internalType":"uint256"},{"name":"salePrice","type":"uint256","internalType":"uint256"}],"outputs":[{"name":"","type":"address","internalType":"address"},{"name":"","type":"uint256","internalType":"uint256"}],"stateMutability":"view"},{"type":"function","name":"safeMint","inputs":[{"name":"to","type":"address","internalType":"address"},{"name":"tokenId","type":"uint256","internalType":"uint256"},{"name":"uri","type":"string","internalType":"string"}],"outputs":[],"stateMutability":"nonpayable"},{"type":"function","name":"safeTransferFrom","inputs":[{"name":"from","type":"address","internalType":"address"},{"name":"to","type":"address","internalType":"address"},{"name":"tokenId","type":"uint256","internalType":"uint256"}],"outputs":[],"stateMutability":"nonpayable"},{"type":"function","name":"safeTransferFrom","inputs":[{"name":"from","type":"address","internalType":"address"},{"name":"to","type":"address","internalType":"address"},{"name":"tokenId","type":"uint256","internalType":"uint256"},{"name":"data","type":"bytes","internalType":"bytes"}],"outputs":[],"stateMutability":"nonpayable"},{"type":"function","name":"setApprovalForAll","inputs":[{"name":"operator","type":"address","internalType":"address"},{"name":"approved","type":"bool","internalType":"bool"}],"outputs":[],"stateMutability":"nonpayable"},{"type":"function","name":"setRoyalty","inputs":[{"name":"treasury","type":"address","internalType":"address payable"},{"name":"feeNumerator","type":"uint96","internalType":"uint96"}],"outputs":[],"stateMutability":"nonpayable"},{"type":"function","name":"setTokenURI","inputs":[{"name":"tokenId","type":"uint256","internalType":"uint256"},{"name":"uri","type":"string","internalType":"string"}],"outputs":[],"stateMutability":"nonpayable"},{"type":"function","name":"supportsInterface","inputs":[{"name":"interfaceId","type":"bytes4","internalType":"bytes4"}],"outputs":[{"name":"","type":"bool","internalType":"bool"}],"stateMutability":"view"},{"type":"function","name":"symbol","inputs":[],"outputs":[{"name":"","type":"string","internalType":"string"}],"stateMutability":"view"},{"type":"function","name":"toBlock","inputs":[],"outputs":[],"stateMutability":"nonpayable"},{"type":"function","name":"tokenByIndex","inputs":[{"name":"index","type":"uint256","internalType":"uint256"}],"outputs":[{"name":"","type":"uint256","internalType":"uint256"}],"stateMutability":"view"},{"type":"function","name":"tokenOfOwnerByIndex","inputs":[{"name":"owner","type":"address","internalType":"address"},{"name":"index","type":"uint256","internalType":"uint256"}],"outputs":[{"name":"","type":"uint256","internalType":"uint256"}],"stateMutability":"view"},{"type":"function","name":"tokenURI","inputs":[{"name":"tokenId","type":"uint256","internalType":"uint256"}],"outputs":[{"name":"","type":"string","internalType":"string"}],"stateMutability":"view"},{"type":"function","name":"totalSupply","inputs":[],"outputs":[{"name":"","type":"uint256","internalType":"uint256"}],"stateMutability":"view"},{"type":"function","name":"transferFrom","inputs":[{"name":"from","type":"address","internalType":"address"},{"name":"to","type":"address","internalType":"address"},{"name":"tokenId","type":"uint256","internalType":"uint256"}],"outputs":[],"stateMutability":"nonpayable"},{"type":"function","name":"unpause","inputs":[],"outputs":[],"stateMutability":"nonpayable"},{"type":"event","name":"Approval","inputs":[{"name":"owner","type":"address","indexed":true,"internalType":"address"},{"name":"approved","type":"address","indexed":true,"internalType":"address"},{"name":"tokenId","type":"uint256","indexed":true,"internalType":"uint256"}],"anonymous":false},{"type":"event","name":"ApprovalForAll","inputs":[{"name":"owner","type":"address","indexed":true,"internalType":"address"},{"name":"operator","type":"address","indexed":true,"internalType":"address"},{"name":"approved","type":"bool","indexed":false,"internalType":"bool"}],"anonymous":false},{"type":"event","name":"BatchMetadataUpdate","inputs":[{"name":"_fromTokenId","type":"uint256","indexed":false,"internalType":"uint256"},{"name":"_toTokenId","type":"uint256","indexed":false,"internalType":"uint256"}],"anonymous":false},{"type":"event","name":"Initialized","inputs":[{"name":"version","type":"uint64","indexed":false,"internalType":"uint64"}],"anonymous":false},{"type":"event","name":"MetadataUpdate","inputs":[{"name":"_tokenId","type":"uint256","indexed":false,"internalType":"uint256"}],"anonymous":false},{"type":"event","name":"Paused","inputs":[{"name":"account","type":"address","indexed":false,"internalType":"address"}],"anonymous":false},{"type":"event","name":"RoleAdminChanged","inputs":[{"name":"role","type":"bytes32","indexed":true,"internalType":"bytes32"},{"name":"previousAdminRole","type":"bytes32","indexed":true,"internalType":"bytes32"},{"name":"newAdminRole","type":"bytes32","indexed":true,"internalType":"bytes32"}],"anonymous":false},{"type":"event","name":"RoleGranted","inputs":[{"name":"role","type":"bytes32","indexed":true,"internalType":"bytes32"},{"name":"account","type":"address","indexed":true,"internalType":"address"},{"name":"sender","type":"address","indexed":true,"internalType":"address"}],"anonymous":false},{"type":"event","name":"RoleRevoked","inputs":[{"name":"role","type":"bytes32","indexed":true,"internalType":"bytes32"},{"name":"account","type":"address","indexed":true,"internalType":"address"},{"name":"sender","type":"address","indexed":true,"internalType":"address"}],"anonymous":false},{"type":"event","name":"Transfer","inputs":[{"name":"from","type":"address","indexed":true,"internalType":"address"},{"name":"to","type":"address","indexed":true,"internalType":"address"},{"name":"tokenId","type":"uint256","indexed":true,"internalType":"uint256"}],"anonymous":false},{"type":"event","name":"Unpaused","inputs":[{"name":"account","type":"address","indexed":false,"internalType":"address"}],"anonymous":false},{"type":"error","name":"AccessControlBadConfirmation","inputs":[]},{"type":"error","name":"AccessControlUnauthorizedAccount","inputs":[{"name":"account","type":"address","internalType":"address"},{"name":"neededRole","type":"bytes32","internalType":"bytes32"}]},{"type":"error","name":"ERC2981InvalidDefaultRoyalty","inputs":[{"name":"numerator","type":"uint256","internalType":"uint256"},{"name":"denominator","type":"uint256","internalType":"uint256"}]},{"type":"error","name":"ERC2981InvalidDefaultRoyaltyReceiver","inputs":[{"name":"receiver","type":"address","internalType":"address"}]},{"type":"error","name":"ERC2981InvalidTokenRoyalty","inputs":[{"name":"tokenId","type":"uint256","internalType":"uint256"},{"name":"numerator","type":"uint256","internalType":"uint256"},{"name":"denominator","type":"uint256","internalType":"uint256"}]},{"type":"error","name":"ERC2981InvalidTokenRoyaltyReceiver","inputs":[{"name":"tokenId","type":"uint256","internalType":"uint256"},{"name":"receiver","type":"address","internalType":"address"}]},{"type":"error","name":"ERC721EnumerableForbiddenBatchMint","inputs":[]},{"type":"error","name":"ERC721IncorrectOwner","inputs":[{"name":"sender","type":"address","internalType":"address"},{"name":"tokenId","type":"uint256","internalType":"uint256"},{"name":"owner","type":"address","internalType":"address"}]},{"type":"error","name":"ERC721InsufficientApproval","inputs":[{"name":"operator","type":"address","internalType":"address"},{"name":"tokenId","type":"uint256","internalType":"uint256"}]},{"type":"error","name":"ERC721InvalidApprover","inputs":[{"name":"approver","type":"address","internalType":"address"}]},{"type":"error","name":"ERC721InvalidOperator","inputs":[{"name":"operator","type":"address","internalType":"address"}]},{"type":"error","name":"ERC721InvalidOwner","inputs":[{"name":"owner","type":"address","internalType":"address"}]},{"type":"error","name":"ERC721InvalidReceiver","inputs":[{"name":"receiver","type":"address","internalType":"address"}]},{"type":"error","name":"ERC721InvalidSender","inputs":[{"name":"sender","type":"address","internalType":"address"}]},{"type":"error","name":"ERC721NonexistentToken","inputs":[{"name":"tokenId","type":"uint256","internalType":"uint256"}]},{"type":"error","name":"ERC721OutOfBoundsIndex","inputs":[{"name":"owner","type":"address","internalType":"address"},{"name":"index","type":"uint256","internalType":"uint256"}]},{"type":"error","name":"EnforcedPause","inputs":[]},{"type":"error","name":"ExpectedPause","inputs":[]},{"type":"error","name":"InvalidInitialization","inputs":[]},{"type":"error","name":"NotInitializing","inputs":[]},{"type":"error","name":"Rewards1167__RoyaltyTooHigh","inputs":[]}],"bytecode":{"object":"0x604060808152346200068a5762004da1803803806200001e816200068f565b928339810160a0828203126200068a578151906001600160a01b0380831683036200068a5760208401519261ffff841684036200068a57848601516001600160401b0381116200068a578362000076918701620006b5565b60608601519093906001600160401b0381116200068a576080916200009d918801620006b5565b9501519180831683036200068a577ff0c57e16840df040f15088dc2f81fe391c3923bec73e23a9662efc9c229c6a008054909690946001600160401b038616801590816200067b575b600114908162000670575b15908162000666575b5062000655576001600160401b03198616600117885585891c60ff161562000637575b6109c461ffff881611620006265762000135620009c5565b6200013f620009c5565b8051906001600160401b038211620003c85760008051602062004d418339815191525490600182811c921680156200061b575b6020831014620004e65781601f849311620005a9575b50602090601f8311600114620005135760009262000507575b50508160011b916000199060031b1c19161760008051602062004d41833981519152555b80516001600160401b038111620003c8577f80bb2b638cc20bc4d0a60d66940f3ab4a00c1d7b313497ca82fb0b4ab007930191825490600182811c92168015620004fc575b6020831014620004e65781601f8493116200048e575b50602090601f8311600114620004235760009262000417575b50508160011b916000199060031b1c19161790555b62000258620009c5565b62000262620009c5565b6200026c620009c5565b62000276620009c5565b620002ef60ff19937fcd5ed15c6e187e77e9aee88184c21f4f2182ab5827cb3b7e07fbedcd63f03300858154169055620002af620009c5565b620002b9620009c5565b620002c48162000727565b50620002d081620007b8565b50620002dc816200086b565b50620002e8336200086b565b5062000918565b506127108061ffff871611620003f6575080821615620003de57865180880195906001600160401b03871181881017620003c85760ff9689528284168152602061ffff831691015261ffff60a01b9060a01b169116177fdaedc9ab023613a7caf35e703657e986ccfad7e3eb0af93a2853f8d65dd86b005560005416600055831c161562000387575b5051614319908162000a088239f35b68ff00000000000000001981541690557fc7f505b2f371ae2175ee4913f4499e1f2633a7b5936321eed1cdaeb6115181d26020825160018152a13862000378565b634e487b7160e01b600052604160045260246000fd5b8651635b6cc80560e11b815260006004820152602490fd5b8560449161ffff8a5192636f483d0960e01b84521660048301526024820152fd5b01519050388062000239565b6000858152602081209350601f198516905b8181106200047557509084600195949392106200045b575b505050811b0190556200024e565b015160001960f88460031b161c191690553880806200044d565b9293602060018192878601518155019501930162000435565b909150836000526020600020601f840160051c81019160208510620004db575b90601f859493920160051c01905b818110620004cb575062000220565b60008155849350600101620004bc565b9091508190620004ae565b634e487b7160e01b600052602260045260246000fd5b91607f16916200020a565b015190503880620001a1565b60008051602062004d41833981519152600090815260008051602062004d818339815191529350601f198516905b81811062000590575090846001959493921062000576575b505050811b0160008051602062004d4183398151915255620001c5565b015160001960f88460031b161c1916905538808062000559565b9293602060018192878601518155019501930162000541565b60008051602062004d4183398151915260005290915060008051602062004d81833981519152601f840160051c8101916020851062000610575b90601f859493920160051c01905b81811062000600575062000188565b60008155849350600101620005f1565b9091508190620005e3565b91607f169162000172565b88516346a2125160e11b8152600490fd5b6001600160481b03198616680100000000000000011788556200011d565b885163f92ee8a960e01b8152600490fd5b90501538620000fa565b303b159150620000f1565b878b1c60ff16159150620000e6565b600080fd5b6040519190601f01601f191682016001600160401b03811183821017620003c857604052565b919080601f840112156200068a5782516001600160401b038111620003c857602090620006eb601f8201601f191683016200068f565b928184528282870101116200068a5760005b8181106200071357508260009394955001015290565b8581018301518482018401528201620006fd565b6001600160a01b031660008181527fb7db2dd08fcb62d0c9e08c51941cae53c267786a0b75803fb7960902fc8ef97d602052604081205490919060008051602062004d618339815191529060ff16620007b3578280526020526040822081835260205260408220600160ff19825416179055339160008051602062004d218339815191528180a4600190565b505090565b6001600160a01b031660008181527f75442b0a96088b5456bc4ed01394c96a4feec0f883c9494257d76b96ab1c9b6b60205260408120549091907f65d7a28e3265b37a6474929f336521b332c1681b933f6cb9f3376673440d862a9060008051602062004d618339815191529060ff1662000865578184526020526040832082845260205260408320600160ff1982541617905560008051602062004d21833981519152339380a4600190565b50505090565b6001600160a01b031660008181527f549fe2656c81d2947b3b913f0a53b9ea86c71e049f3a1b8aa23c09a8a05cb8d460205260408120549091907f9f2df0fed2c77648de5860a4cc508cd0818c85b8b8a1ab4ceeef8d981c8956a69060008051602062004d618339815191529060ff1662000865578184526020526040832082845260205260408320600160ff1982541617905560008051602062004d21833981519152339380a4600190565b6001600160a01b031660008181527fe1c8d3544115cceba2e183c14b79d0b69552b189207c20f3bf1ce18a22cdecb560205260408120549091907f7804d923f43a17d325d77e781528e0793b2edd9890ab45fc64efd7b4b427744c9060008051602062004d618339815191529060ff1662000865578184526020526040832082845260205260408320600160ff1982541617905560008051602062004d21833981519152339380a4600190565b60ff7ff0c57e16840df040f15088dc2f81fe391c3923bec73e23a9662efc9c229c6a005460401c1615620009f557565b604051631afcd79f60e31b8152600490fdfe608080604052600436101561001357600080fd5b60003560e01c90816301ffc9a714612bb25750806306fdde0314612acd578063081812fc14612a44578063095ea7b3146128a2578063162094c4146127b757806318160ddd1461275c57806323b872dd14612745578063248a9ca3146126d95780632a55205a146125a95780632f2ff15d1461252d5780632f745c5914612438578063303bdd2c146123f757806335156a7a14611b1d57806336568abe14611a935780633f4ba83a146119b657806342842e0e1461198857806342966c68146113b95780634f6ccce71461130d5780635c975abb146112ad5780636352211e1461125357806370a082311461120a5780637f345710146111b15780638456cb59146110fc5780638f2fc60b1461102057806391d1485414610f8857806395d89b4114610e465780639700659114610de2578063a217fddf14610da8578063a22cb46514610c82578063b88d4fde14610bf9578063c87b56dd14610aab578063cd279c7c1461039a578063d539139314610341578063d547741f146102c3578063e63ab1e91461026a5763e985e9c5146101ab57600080fd5b346102655760407ffffffffffffffffffffffffffffffffffffffffffffffffffffffffffffffffc360112610265576101e2612dc9565b73ffffffffffffffffffffffffffffffffffffffff610248610202612dec565b9273ffffffffffffffffffffffffffffffffffffffff166000527f80bb2b638cc20bc4d0a60d66940f3ab4a00c1d7b313497ca82fb0b4ab0079305602052604060002090565b9116600052602052602060ff604060002054166040519015158152f35b600080fd5b346102655760007ffffffffffffffffffffffffffffffffffffffffffffffffffffffffffffffffc3601126102655760206040517f65d7a28e3265b37a6474929f336521b332c1681b933f6cb9f3376673440d862a8152f35b346102655760407ffffffffffffffffffffffffffffffffffffffffffffffffffffffffffffffffc3601126102655761033f600435610300612dec565b90806000527f02dd7bc7dec4dceedda775e58dd541e08a116c6c53815c0bd028192f7b62680060205261033a60016040600020015461302f565b613507565b005b346102655760007ffffffffffffffffffffffffffffffffffffffffffffffffffffffffffffffffc3601126102655760206040517f9f2df0fed2c77648de5860a4cc508cd0818c85b8b8a1ab4ceeef8d981c8956a68152f35b346102655760607ffffffffffffffffffffffffffffffffffffffffffffffffffffffffffffffffc360112610265576103d1612dc9565b6024803560443567ffffffffffffffff8111610265576103f5903690600401612ef9565b916103fe612fd3565b6040519361040b85612e2b565b6000855273ffffffffffffffffffffffffffffffffffffffff808216918215610a7b576104366140b0565b846000527f80bb2b638cc20bc4d0a60d66940f3ab4a00c1d7b313497ca82fb0b4ab007930260209281845260406000205416848115801593846109af575b6104bd8673ffffffffffffffffffffffffffffffffffffffff166000527f80bb2b638cc20bc4d0a60d66940f3ab4a00c1d7b313497ca82fb0b4ab0079303602052604060002090565b600181540190558960005286526040600020827fffffffffffffffffffffffff00000000000000000000000000000000000000008254161790558882847fddf252ad1be2c89b69c2b068fc378daa952ba7f163c4a11628f55a4df523b3ef600080a4156108b857507f645e039705490088daad89bae25049a34f4a9072d398537b1ab2425f24cbed02805490886000527f645e039705490088daad89bae25049a34f4a9072d398537b1ab2425f24cbed038652816040600020556801000000000000000082101561088a578861059e836105d49360018b9796019055613ed5565b9091907fffffffffffffffffffffffffffffffffffffffffffffffffffffffffffffffff83549160031b92831b921b1916179055565b036107be575b61078e573b6105ee575b61033f8585614105565b92909391946040518481806106447f150b7a02000000000000000000000000000000000000000000000000000000009586835233600484015260008c840152876044840152608060648401526084830190612d6b565b038160008a5af160009181610736575b506106ca57505050503d6000146106c3573d61066f81612e88565b9061067d6040519283612e47565b81523d60008383013e5b805191826106c057505050604051907f64a0ae920000000000000000000000000000000000000000000000000000000082526004820152fd5b01fd5b6060610687565b7fffffffff00000000000000000000000000000000000000000000000000000000919294509492941603610706575061033f92508380806105e4565b8390604051907f64a0ae920000000000000000000000000000000000000000000000000000000082526004820152fd5b9091508581813d8311610787575b61074e8183612e47565b8101031261026557517fffffffff0000000000000000000000000000000000000000000000000000000081168103610265579088610654565b503d610744565b836040517f73c6ac6e00000000000000000000000000000000000000000000000000000000815260006004820152fd5b6107c7826135c8565b7fffffffffffffffffffffffffffffffffffffffffffffffffffffffffffffffff810190811161085c57846000527f645e039705490088daad89bae25049a34f4a9072d398537b1ab2425f24cbed008452604060002081600052845286604060002055866000527f645e039705490088daad89bae25049a34f4a9072d398537b1ab2425f24cbed0184526040600020556105da565b857f4e487b710000000000000000000000000000000000000000000000000000000060005260116004526000fd5b877f4e487b710000000000000000000000000000000000000000000000000000000060005260416004526000fd5b908082146105d4576108c9816135c8565b886000527f645e039705490088daad89bae25049a34f4a9072d398537b1ab2425f24cbed018087526040600020549082820361094b575b50508860005260006040812055816000527f645e039705490088daad89bae25049a34f4a9072d398537b1ab2425f24cbed0086526040600020906000528552600060408120556105d4565b836000527f645e039705490088daad89bae25049a34f4a9072d398537b1ab2425f24cbed0080895260406000208460005289526040600020549085600052895260406000208360005289528060406000205560005287526040600020558b80610900565b610a078a6000527f80bb2b638cc20bc4d0a60d66940f3ab4a00c1d7b313497ca82fb0b4ab007930460205260406000207fffffffffffffffffffffffff00000000000000000000000000000000000000008154169055565b610a508473ffffffffffffffffffffffffffffffffffffffff166000527f80bb2b638cc20bc4d0a60d66940f3ab4a00c1d7b313497ca82fb0b4ab0079303602052604060002090565b7fffffffffffffffffffffffffffffffffffffffffffffffffffffffffffffffff8154019055610474565b836040517f64a0ae9200000000000000000000000000000000000000000000000000000000815260006004820152fd5b34610265576020807ffffffffffffffffffffffffffffffffffffffffffffffffffffffffffffffffc36011261026557600435610ae781613c88565b506000527f0542a41881ee128a365a727b282c86fa859579490b9bb45aab8503648c8e79008152604060002090604051918260008254610b2681613662565b93848452600191868382169182600014610bb8575050600114610b79575b5050610b5292500383612e47565b6000604051610b6081612e2b565b52610b75604051928284938452830190612d6b565b0390f35b85925060005281600020906000915b858310610ba0575050610b5293508201018580610b44565b80548389018501528794508693909201918101610b88565b91509350610b529592507fffffffffffffffffffffffffffffffffffffffffffffffffffffffffffffff0091501682840152151560051b8201018580610b44565b346102655760807ffffffffffffffffffffffffffffffffffffffffffffffffffffffffffffffffc36011261026557610c30612dc9565b610c38612dec565b906044356064359267ffffffffffffffff8411610265573660238501121561026557610c7161033f943690602481600401359101612ec2565b92610c7d8383836136b5565b613d08565b346102655760407ffffffffffffffffffffffffffffffffffffffffffffffffffffffffffffffffc36011261026557610cb9612dc9565b602435908115158092036102655773ffffffffffffffffffffffffffffffffffffffff16908115610d77573360009081527f80bb2b638cc20bc4d0a60d66940f3ab4a00c1d7b313497ca82fb0b4ab0079305602052604090208260005260205260406000207fffffffffffffffffffffffffffffffffffffffffffffffffffffffffffffff0081541660ff83161790556040519081527f17307eab39ab6107e8899845ad3d59bd9653f200f220920489ca2b5937696c3160203392a3005b602482604051907f5b08ba180000000000000000000000000000000000000000000000000000000082526004820152fd5b346102655760007ffffffffffffffffffffffffffffffffffffffffffffffffffffffffffffffffc36011261026557602060405160008152f35b346102655760007ffffffffffffffffffffffffffffffffffffffffffffffffffffffffffffffffc36011261026557610e19612fd3565b600080547fffffffffffffffffffffffffffffffffffffffffffffffffffffffffffffff00166001179055005b346102655760007ffffffffffffffffffffffffffffffffffffffffffffffffffffffffffffffffc3601126102655760405160007f80bb2b638cc20bc4d0a60d66940f3ab4a00c1d7b313497ca82fb0b4ab00793018054610ea681613662565b80855291600191808316908115610f405750600114610ee4575b610b7585610ed081870382612e47565b604051918291602083526020830190612d6b565b600090815292507ff4bad0a69248f59680a4f2b3000328cec71a413447c96781cfe5996daa8c456e5b828410610f28575050508101602001610ed082610b75610ec0565b80546020858701810191909152909301928101610f0d565b869550610b7596935060209250610ed09491507fffffffffffffffffffffffffffffffffffffffffffffffffffffffffffffff001682840152151560051b8201019293610ec0565b346102655760407ffffffffffffffffffffffffffffffffffffffffffffffffffffffffffffffffc36011261026557610fbf612dec565b6004356000527f02dd7bc7dec4dceedda775e58dd541e08a116c6c53815c0bd028192f7b62680060205273ffffffffffffffffffffffffffffffffffffffff60406000209116600052602052602060ff604060002054166040519015158152f35b346102655760407ffffffffffffffffffffffffffffffffffffffffffffffffffffffffffffffffc36011261026557611057612dc9565b6024356bffffffffffffffffffffffff81168103610265573360009081527fb7db2dd08fcb62d0c9e08c51941cae53c267786a0b75803fb7960902fc8ef97d602052604090205460ff16156110c55773ffffffffffffffffffffffffffffffffffffffff61033f9216613fb2565b60446040517fe2517d3f00000000000000000000000000000000000000000000000000000000815233600482015260006024820152fd5b346102655760007ffffffffffffffffffffffffffffffffffffffffffffffffffffffffffffffffc36011261026557611133612f77565b61113b6140b0565b7fcd5ed15c6e187e77e9aee88184c21f4f2182ab5827cb3b7e07fbedcd63f0330060017fffffffffffffffffffffffffffffffffffffffffffffffffffffffffffffff008254161790557f62e78cea01bee320cd4e420270b5ea74000d11b0c9f74754ebdbfc544b05a2586020604051338152a1005b346102655760007ffffffffffffffffffffffffffffffffffffffffffffffffffffffffffffffffc3601126102655760206040517f7804d923f43a17d325d77e781528e0793b2edd9890ab45fc64efd7b4b427744c8152f35b346102655760207ffffffffffffffffffffffffffffffffffffffffffffffffffffffffffffffffc36011261026557602061124b611246612dc9565b6135c8565b604051908152f35b346102655760207ffffffffffffffffffffffffffffffffffffffffffffffffffffffffffffffffc36011261026557602061128f600435613c88565b73ffffffffffffffffffffffffffffffffffffffff60405191168152f35b346102655760007ffffffffffffffffffffffffffffffffffffffffffffffffffffffffffffffffc36011261026557602060ff7fcd5ed15c6e187e77e9aee88184c21f4f2182ab5827cb3b7e07fbedcd63f0330054166040519015158152f35b346102655760207ffffffffffffffffffffffffffffffffffffffffffffffffffffffffffffffffc360112610265576004357f645e039705490088daad89bae25049a34f4a9072d398537b1ab2425f24cbed025481101561138157611373602091613ed5565b90546040519160031b1c8152f35b604490604051907fa57d13dc000000000000000000000000000000000000000000000000000000008252600060048301526024820152fd5b34610265576020807ffffffffffffffffffffffffffffffffffffffffffffffffffffffffffffffffc360112610265576004356113f46140b0565b806000527f80bb2b638cc20bc4d0a60d66940f3ab4a00c1d7b313497ca82fb0b4ab007930280835273ffffffffffffffffffffffffffffffffffffffff908160406000205416913315159081611853575b5050811580159182611787575b84600052855260406000207fffffffffffffffffffffffff00000000000000000000000000000000000000008154169055836000847fddf252ad1be2c89b69c2b068fc378daa952ba7f163c4a11628f55a4df523b3ef8280a41561168c5750507f645e039705490088daad89bae25049a34f4a9072d398537b1ab2425f24cbed028054826000527f645e039705490088daad89bae25049a34f4a9072d398537b1ab2425f24cbed038452806040600020556801000000000000000081101561165d5761059e816115289360018694019055613ed5565b7f645e039705490088daad89bae25049a34f4a9072d398537b1ab2425f24cbed029081547fffffffffffffffffffffffffffffffffffffffffffffffffffffffffffffffff9384820191821161162e57826000527f645e039705490088daad89bae25049a34f4a9072d398537b1ab2425f24cbed03908181526115b060406000205493613ed5565b90549060031b1c6115c48161059e86613ed5565b6000525260406000205560005260006040812055805480156115ff578201916115ec83613ed5565b909182549160031b1b1916905555600080f35b7f4e487b7100000000000000000000000000000000000000000000000000000000600052603160045260246000fd5b7f4e487b7100000000000000000000000000000000000000000000000000000000600052601160045260246000fd5b7f4e487b7100000000000000000000000000000000000000000000000000000000600052604160045260246000fd5b611697575b50611528565b6116a0816135c8565b90826000527f645e039705490088daad89bae25049a34f4a9072d398537b1ab2425f24cbed0180855260406000205490838203611723575b505082600052600060408120556000527f645e039705490088daad89bae25049a34f4a9072d398537b1ab2425f24cbed00835260406000209060005282526000604081205582611691565b826000527f645e039705490088daad89bae25049a34f4a9072d398537b1ab2425f24cbed00808752604060002085600052875260406000205490846000528752604060002083600052875280604060002055600052855260406000205584806116d8565b6117df856000527f80bb2b638cc20bc4d0a60d66940f3ab4a00c1d7b313497ca82fb0b4ab007930460205260406000207fffffffffffffffffffffffff00000000000000000000000000000000000000008154169055565b6118288473ffffffffffffffffffffffffffffffffffffffff166000527f80bb2b638cc20bc4d0a60d66940f3ab4a00c1d7b313497ca82fb0b4ab0079303602052604060002090565b7fffffffffffffffffffffffffffffffffffffffffffffffffffffffffffffffff8154019055611452565b816118d5575b5015611866578480611445565b5061189c57602490604051907f7e2732890000000000000000000000000000000000000000000000000000000082526004820152fd5b6040517f177e802f0000000000000000000000000000000000000000000000000000000081523360048201526024810191909152604490fd5b33841491508115611928575b81156118ef575b5085611859565b9050836000527f80bb2b638cc20bc4d0a60d66940f3ab4a00c1d7b313497ca82fb0b4ab0079304855233906040600020541614856118e8565b90506119738373ffffffffffffffffffffffffffffffffffffffff166000527f80bb2b638cc20bc4d0a60d66940f3ab4a00c1d7b313497ca82fb0b4ab0079305602052604060002090565b33600052855260ff60406000205416906118e1565b346102655761033f61199936612f17565b90604051926119a784612e2b565b60008452610c7d8383836136b5565b346102655760007ffffffffffffffffffffffffffffffffffffffffffffffffffffffffffffffffc360112610265576119ed612f77565b7fcd5ed15c6e187e77e9aee88184c21f4f2182ab5827cb3b7e07fbedcd63f03300805460ff811615611a69577fffffffffffffffffffffffffffffffffffffffffffffffffffffffffffffff001690557f5db9ee0a495bf2e6ff9c91a7834c1ba4fdd244a5e8aa4e537bd38aeae4b073aa6020604051338152a1005b60046040517f8dfc202b000000000000000000000000000000000000000000000000000000008152fd5b346102655760407ffffffffffffffffffffffffffffffffffffffffffffffffffffffffffffffffc36011261026557611aca612dec565b3373ffffffffffffffffffffffffffffffffffffffff821603611af35761033f90600435613507565b60046040517f6697b232000000000000000000000000000000000000000000000000000000008152fd5b346102655760a07ffffffffffffffffffffffffffffffffffffffffffffffffffffffffffffffffc36011261026557611b54612dc9565b60243561ffff811681036102655760443567ffffffffffffffff811161026557611b82903690600401612ef9565b9060643567ffffffffffffffff811161026557611ba3903690600401612ef9565b9273ffffffffffffffffffffffffffffffffffffffff6084351660843503610265577ff0c57e16840df040f15088dc2f81fe391c3923bec73e23a9662efc9c229c6a00549267ffffffffffffffff8416801590816123e7575b60011490816123dd575b1590816123d4575b506123aa5760017fffffffffffffffffffffffffffffffffffffffffffffffff00000000000000008516177ff0c57e16840df040f15088dc2f81fe391c3923bec73e23a9662efc9c229c6a005560ff8460401c1615612355575b6109c461ffff84161161232b57611c7d613f59565b611c85613f59565b80519067ffffffffffffffff821161165d578190611cc37f80bb2b638cc20bc4d0a60d66940f3ab4a00c1d7b313497ca82fb0b4ab007930054613662565b601f8111612262575b50602090601f831160011461214057600092612135575b50507fffffffffffffffffffffffffffffffffffffffffffffffffffffffffffffffff8260011b9260031b1c1916177f80bb2b638cc20bc4d0a60d66940f3ab4a00c1d7b313497ca82fb0b4ab0079300555b835167ffffffffffffffff811161165d57611d707f80bb2b638cc20bc4d0a60d66940f3ab4a00c1d7b313497ca82fb0b4ab007930154613662565b601f8111612073575b506020601f8211600114611f6e579080611ebe939260ff97600092611f63575b50507fffffffffffffffffffffffffffffffffffffffffffffffffffffffffffffffff8260011b9260031b1c1916177f80bb2b638cc20bc4d0a60d66940f3ab4a00c1d7b313497ca82fb0b4ab0079301555b611df3613f59565b611dfb613f59565b611e03613f59565b611e0b613f59565b73ffffffffffffffffffffffffffffffffffffffff61ffff7fffffffffffffffffffffffffffffffffffffffffffffffffffffffffffffff00947fcd5ed15c6e187e77e9aee88184c21f4f2182ab5827cb3b7e07fbedcd63f03300868154169055611e74613f59565b611e7c613f59565b611e87608435613074565b50611e93608435613151565b50611e9f608435613250565b50611ea933613250565b50611eb5608435613349565b50169116613fb2565b6000541660005560401c1615611ed057005b7fffffffffffffffffffffffffffffffffffffffffffffff00ffffffffffffffff7ff0c57e16840df040f15088dc2f81fe391c3923bec73e23a9662efc9c229c6a0054167ff0c57e16840df040f15088dc2f81fe391c3923bec73e23a9662efc9c229c6a00557fc7f505b2f371ae2175ee4913f4499e1f2633a7b5936321eed1cdaeb6115181d2602060405160018152a1005b015190508780611d99565b7fffffffffffffffffffffffffffffffffffffffffffffffffffffffffffffffe08216957f80bb2b638cc20bc4d0a60d66940f3ab4a00c1d7b313497ca82fb0b4ab00793016000527ff4bad0a69248f59680a4f2b3000328cec71a413447c96781cfe5996daa8c456e9660005b81811061205b5750966001928492611ebe969560ff9a10612024575b505050811b017f80bb2b638cc20bc4d0a60d66940f3ab4a00c1d7b313497ca82fb0b4ab007930155611deb565b01517fffffffffffffffffffffffffffffffffffffffffffffffffffffffffffffffff60f88460031b161c19169055878080611ff7565b83830151895560019098019760209384019301611fdb565b7f80bb2b638cc20bc4d0a60d66940f3ab4a00c1d7b313497ca82fb0b4ab0079301600052601f820160051c7ff4bad0a69248f59680a4f2b3000328cec71a413447c96781cfe5996daa8c456e01906020831061210d575b601f0160051c7ff4bad0a69248f59680a4f2b3000328cec71a413447c96781cfe5996daa8c456e01905b8181106121015750611d79565b600081556001016120f4565b7ff4bad0a69248f59680a4f2b3000328cec71a413447c96781cfe5996daa8c456e91506120ca565b015190508680611ce3565b92507f80bb2b638cc20bc4d0a60d66940f3ab4a00c1d7b313497ca82fb0b4ab00793006000527f37c58c799b6609234b945e882912ee9ad34948a1dfaa20a97485e1a7752bbf81906000935b7fffffffffffffffffffffffffffffffffffffffffffffffffffffffffffffffe0841685106122475760019450837fffffffffffffffffffffffffffffffffffffffffffffffffffffffffffffffe0811610612210575b505050811b017f80bb2b638cc20bc4d0a60d66940f3ab4a00c1d7b313497ca82fb0b4ab007930055611d35565b01517fffffffffffffffffffffffffffffffffffffffffffffffffffffffffffffffff60f88460031b161c191690558680806121e3565b8181015183556020948501946001909301929091019061218c565b9091507f80bb2b638cc20bc4d0a60d66940f3ab4a00c1d7b313497ca82fb0b4ab0079300600052601f830160051c7f37c58c799b6609234b945e882912ee9ad34948a1dfaa20a97485e1a7752bbf810160208410612304575b908392915b601f820160051c7f37c58c799b6609234b945e882912ee9ad34948a1dfaa20a97485e1a7752bbf810181106122f55750611ccc565b600081558493506001016122c0565b507f37c58c799b6609234b945e882912ee9ad34948a1dfaa20a97485e1a7752bbf816122bb565b60046040517f8d4424a2000000000000000000000000000000000000000000000000000000008152fd5b680100000000000000017fffffffffffffffffffffffffffffffffffffffffffffff0000000000000000008516177ff0c57e16840df040f15088dc2f81fe391c3923bec73e23a9662efc9c229c6a0055611c68565b60046040517ff92ee8a9000000000000000000000000000000000000000000000000000000008152fd5b90501586611c0e565b303b159150611c06565b604086901c60ff16159150611bfc565b346102655760007ffffffffffffffffffffffffffffffffffffffffffffffffffffffffffffffffc36011261026557602060ff600054166040519015158152f35b346102655760407ffffffffffffffffffffffffffffffffffffffffffffffffffffffffffffffffc3601126102655761246f612dc9565b6024359061247c816135c8565b8210156124dc5773ffffffffffffffffffffffffffffffffffffffff166000527f645e039705490088daad89bae25049a34f4a9072d398537b1ab2425f24cbed006020526040600020906000526020526020604060002054604051908152f35b6040517fa57d13dc00000000000000000000000000000000000000000000000000000000815273ffffffffffffffffffffffffffffffffffffffff9190911660048201526024810191909152604490fd5b346102655760407ffffffffffffffffffffffffffffffffffffffffffffffffffffffffffffffffc3601126102655761033f60043561256a612dec565b90806000527f02dd7bc7dec4dceedda775e58dd541e08a116c6c53815c0bd028192f7b6268006020526125a460016040600020015461302f565b613442565b346102655760407ffffffffffffffffffffffffffffffffffffffffffffffffffffffffffffffffc360112610265576024356004356000527fdaedc9ab023613a7caf35e703657e986ccfad7e3eb0af93a2853f8d65dd86b016020526040600020906040519161261883612e0f565b5473ffffffffffffffffffffffffffffffffffffffff928382169182825260a01c60208201529015612698575b6bffffffffffffffffffffffff6020820151169182810292818404149015171561162e5751604080519390911673ffffffffffffffffffffffffffffffffffffffff168352612710909104602083015290f35b506040516126a581612e0f565b7fdaedc9ab023613a7caf35e703657e986ccfad7e3eb0af93a2853f8d65dd86b0054838116825260a01c6020820152612645565b346102655760207ffffffffffffffffffffffffffffffffffffffffffffffffffffffffffffffffc360112610265576004356000527f02dd7bc7dec4dceedda775e58dd541e08a116c6c53815c0bd028192f7b6268006020526020600160406000200154604051908152f35b346102655761033f61275636612f17565b916136b5565b346102655760007ffffffffffffffffffffffffffffffffffffffffffffffffffffffffffffffffc3601126102655760207f645e039705490088daad89bae25049a34f4a9072d398537b1ab2425f24cbed0254604051908152f35b346102655760407ffffffffffffffffffffffffffffffffffffffffffffffffffffffffffffffffc3601126102655760243567ffffffffffffffff811161026557612806903690600401612ef9565b3360009081527fe1c8d3544115cceba2e183c14b79d0b69552b189207c20f3bf1ce18a22cdecb560205260409020547f7804d923f43a17d325d77e781528e0793b2edd9890ab45fc64efd7b4b427744c9060ff161561286b5761033f82600435614105565b604490604051907fe2517d3f0000000000000000000000000000000000000000000000000000000082523360048301526024820152fd5b346102655760407ffffffffffffffffffffffffffffffffffffffffffffffffffffffffffffffffc360112610265576128d9612dc9565b6024356128e581613c88565b33151580612a24575b806129c4575b61299457819073ffffffffffffffffffffffffffffffffffffffff809416938491167f8c5be1e5ebec7d5bd14f71427d1e84f3dd0314c0f7b2291e5b200ac8c7c3b925600080a46000527f80bb2b638cc20bc4d0a60d66940f3ab4a00c1d7b313497ca82fb0b4ab00793046020526040600020907fffffffffffffffffffffffff0000000000000000000000000000000000000000825416179055600080f35b60246040517fa9fbf51f000000000000000000000000000000000000000000000000000000008152336004820152fd5b50612a0e8173ffffffffffffffffffffffffffffffffffffffff166000527f80bb2b638cc20bc4d0a60d66940f3ab4a00c1d7b313497ca82fb0b4ab0079305602052604060002090565b3360005260205260ff60406000205416156128f4565b503373ffffffffffffffffffffffffffffffffffffffff821614156128ee565b346102655760207ffffffffffffffffffffffffffffffffffffffffffffffffffffffffffffffffc36011261026557600435612a7f81613c88565b506000527f80bb2b638cc20bc4d0a60d66940f3ab4a00c1d7b313497ca82fb0b4ab0079304602052602073ffffffffffffffffffffffffffffffffffffffff60406000205416604051908152f35b346102655760007ffffffffffffffffffffffffffffffffffffffffffffffffffffffffffffffffc3601126102655760405160007f80bb2b638cc20bc4d0a60d66940f3ab4a00c1d7b313497ca82fb0b4ab00793008054612b2d81613662565b80855291600191808316908115610f405750600114612b5657610b7585610ed081870382612e47565b600090815292507f37c58c799b6609234b945e882912ee9ad34948a1dfaa20a97485e1a7752bbf815b828410612b9a575050508101602001610ed082610b75610ec0565b80546020858701810191909152909301928101612b7f565b346102655760207ffffffffffffffffffffffffffffffffffffffffffffffffffffffffffffffffc36011261026557600435907fffffffff00000000000000000000000000000000000000000000000000000000821680920361026557817f7965db0b0000000000000000000000000000000000000000000000000000000060209314908115612c44575b5015158152f35b7f4906490600000000000000000000000000000000000000000000000000000000811491508115612c77575b5083612c3d565b7f780e9d6300000000000000000000000000000000000000000000000000000000811491508115612caa575b5083612c70565b7f80ac58cd00000000000000000000000000000000000000000000000000000000811491508115612d41575b8115612ce4575b5083612ca3565b7f2a55205a00000000000000000000000000000000000000000000000000000000811491508115612d17575b5083612cdd565b7f01ffc9a70000000000000000000000000000000000000000000000000000000091501483612d10565b7f5b5e139f0000000000000000000000000000000000000000000000000000000081149150612cd6565b919082519283825260005b848110612db55750507fffffffffffffffffffffffffffffffffffffffffffffffffffffffffffffffe0601f8460006020809697860101520116010190565b602081830181015184830182015201612d76565b6004359073ffffffffffffffffffffffffffffffffffffffff8216820361026557565b6024359073ffffffffffffffffffffffffffffffffffffffff8216820361026557565b6040810190811067ffffffffffffffff82111761165d57604052565b6020810190811067ffffffffffffffff82111761165d57604052565b90601f7fffffffffffffffffffffffffffffffffffffffffffffffffffffffffffffffe0910116810190811067ffffffffffffffff82111761165d57604052565b67ffffffffffffffff811161165d57601f017fffffffffffffffffffffffffffffffffffffffffffffffffffffffffffffffe01660200190565b929192612ece82612e88565b91612edc6040519384612e47565b829481845281830111610265578281602093846000960137010152565b9080601f8301121561026557816020612f1493359101612ec2565b90565b7ffffffffffffffffffffffffffffffffffffffffffffffffffffffffffffffffc60609101126102655773ffffffffffffffffffffffffffffffffffffffff90600435828116810361026557916024359081168103610265579060443590565b3360009081527f75442b0a96088b5456bc4ed01394c96a4feec0f883c9494257d76b96ab1c9b6b60205260409020547f65d7a28e3265b37a6474929f336521b332c1681b933f6cb9f3376673440d862a9060ff161561286b5750565b3360009081527f549fe2656c81d2947b3b913f0a53b9ea86c71e049f3a1b8aa23c09a8a05cb8d460205260409020547f9f2df0fed2c77648de5860a4cc508cd0818c85b8b8a1ab4ceeef8d981c8956a69060ff161561286b5750565b806000527f02dd7bc7dec4dceedda775e58dd541e08a116c6c53815c0bd028192f7b62680060205260406000203360005260205260ff604060002054161561286b5750565b73ffffffffffffffffffffffffffffffffffffffff1660008181527fb7db2dd08fcb62d0c9e08c51941cae53c267786a0b75803fb7960902fc8ef97d60205260408120549091907f02dd7bc7dec4dceedda775e58dd541e08a116c6c53815c0bd028192f7b6268009060ff1661314c57828052602052604082208183526020526040822060017fffffffffffffffffffffffffffffffffffffffffffffffffffffffffffffff0082541617905533917f2f8788117e7eff1d82e926ec794901d17c78024a50270940304540a733656f0d8180a4600190565b505090565b73ffffffffffffffffffffffffffffffffffffffff1660008181527f75442b0a96088b5456bc4ed01394c96a4feec0f883c9494257d76b96ab1c9b6b60205260408120549091907f65d7a28e3265b37a6474929f336521b332c1681b933f6cb9f3376673440d862a907f02dd7bc7dec4dceedda775e58dd541e08a116c6c53815c0bd028192f7b6268009060ff1661324a57818452602052604083208284526020526040832060017fffffffffffffffffffffffffffffffffffffffffffffffffffffffffffffff008254161790557f2f8788117e7eff1d82e926ec794901d17c78024a50270940304540a733656f0d339380a4600190565b50505090565b73ffffffffffffffffffffffffffffffffffffffff1660008181527f549fe2656c81d2947b3b913f0a53b9ea86c71e049f3a1b8aa23c09a8a05cb8d460205260408120549091907f9f2df0fed2c77648de5860a4cc508cd0818c85b8b8a1ab4ceeef8d981c8956a6907f02dd7bc7dec4dceedda775e58dd541e08a116c6c53815c0bd028192f7b6268009060ff1661324a57818452602052604083208284526020526040832060017fffffffffffffffffffffffffffffffffffffffffffffffffffffffffffffff008254161790557f2f8788117e7eff1d82e926ec794901d17c78024a50270940304540a733656f0d339380a4600190565b73ffffffffffffffffffffffffffffffffffffffff1660008181527fe1c8d3544115cceba2e183c14b79d0b69552b189207c20f3bf1ce18a22cdecb560205260408120549091907f7804d923f43a17d325d77e781528e0793b2edd9890ab45fc64efd7b4b427744c907f02dd7bc7dec4dceedda775e58dd541e08a116c6c53815c0bd028192f7b6268009060ff1661324a57818452602052604083208284526020526040832060017fffffffffffffffffffffffffffffffffffffffffffffffffffffffffffffff008254161790557f2f8788117e7eff1d82e926ec794901d17c78024a50270940304540a733656f0d339380a4600190565b906000918083527f02dd7bc7dec4dceedda775e58dd541e08a116c6c53815c0bd028192f7b6268008060205273ffffffffffffffffffffffffffffffffffffffff6040852093169283855260205260ff6040852054161560001461324a57818452602052604083208284526020526040832060017fffffffffffffffffffffffffffffffffffffffffffffffffffffffffffffff008254161790557f2f8788117e7eff1d82e926ec794901d17c78024a50270940304540a733656f0d339380a4600190565b906000918083527f02dd7bc7dec4dceedda775e58dd541e08a116c6c53815c0bd028192f7b6268008060205273ffffffffffffffffffffffffffffffffffffffff6040852093169283855260205260ff60408520541660001461324a5781845260205260408320828452602052604083207fffffffffffffffffffffffffffffffffffffffffffffffffffffffffffffff0081541690557ff6391f5c32d9c69d2a47ea670b442974b53935d1edc7fd64eb21e047a839171b339380a4600190565b73ffffffffffffffffffffffffffffffffffffffff8116156136315761362d9073ffffffffffffffffffffffffffffffffffffffff166000527f80bb2b638cc20bc4d0a60d66940f3ab4a00c1d7b313497ca82fb0b4ab0079303602052604060002090565b5490565b60246040517f89c62b6400000000000000000000000000000000000000000000000000000000815260006004820152fd5b90600182811c921680156136ab575b602083101461367c57565b7f4e487b7100000000000000000000000000000000000000000000000000000000600052602260045260246000fd5b91607f1691613671565b909173ffffffffffffffffffffffffffffffffffffffff808416928315613c57576136de6140b0565b6000938385527f80bb2b638cc20bc4d0a60d66940f3ab4a00c1d7b313497ca82fb0b4ab00793029460208681526040978589842054169733151580613b39575b508815908115613a6d575b6137728373ffffffffffffffffffffffffffffffffffffffff166000527f80bb2b638cc20bc4d0a60d66940f3ab4a00c1d7b313497ca82fb0b4ab0079303602052604060002090565b600181540190558885528352898420857fffffffffffffffffffffffff000000000000000000000000000000000000000082541617905587858a7fddf252ad1be2c89b69c2b068fc378daa952ba7f163c4a11628f55a4df523b3ef8780a415613992577f645e039705490088daad89bae25049a34f4a9072d398537b1ab2425f24cbed028054908885527f645e039705490088daad89bae25049a34f4a9072d398537b1ab2425f24cbed038452818b862055680100000000000000008210156139655761059e828a92600161384995019055613ed5565b83880361389e575b5050505016928383036138645750505050565b6064945051927f64283d7b000000000000000000000000000000000000000000000000000000008452600484015260248301526044820152fd5b6138a7906135c8565b927fffffffffffffffffffffffffffffffffffffffffffffffffffffffffffffffff84019384116139385782917f645e039705490088daad89bae25049a34f4a9072d398537b1ab2425f24cbed01918a94527f645e039705490088daad89bae25049a34f4a9072d398537b1ab2425f24cbed0081528383208584528152878484205587835252205538808080613851565b6024837f4e487b710000000000000000000000000000000000000000000000000000000081526011600452fd5b6024857f4e487b710000000000000000000000000000000000000000000000000000000081526041600452fd5b878414613849576139a2886135c8565b8784527f645e039705490088daad89bae25049a34f4a9072d398537b1ab2425f24cbed018084528a85205490828203613a18575b5050878452838a8120558884527f645e039705490088daad89bae25049a34f4a9072d398537b1ab2425f24cbed00835289842090845282528289812055613849565b8a86527f645e039705490088daad89bae25049a34f4a9072d398537b1ab2425f24cbed008086528c872084885286528c872054908c885286528c87208388528652808d882055865284528a85205538806139d6565b613ac5896000527f80bb2b638cc20bc4d0a60d66940f3ab4a00c1d7b313497ca82fb0b4ab007930460205260406000207fffffffffffffffffffffffff00000000000000000000000000000000000000008154169055565b613b0e8a73ffffffffffffffffffffffffffffffffffffffff166000527f80bb2b638cc20bc4d0a60d66940f3ab4a00c1d7b313497ca82fb0b4ab0079303602052604060002090565b7fffffffffffffffffffffffffffffffffffffffffffffffffffffffffffffffff8154019055613729565b80613bb8575b15613b4a573861371e565b89888a613b805760249151907f7e2732890000000000000000000000000000000000000000000000000000000082526004820152fd5b90517f177e802f0000000000000000000000000000000000000000000000000000000081523360048201526024810191909152604490fd5b503389148015613bfc575b80613b3f57508784527f80bb2b638cc20bc4d0a60d66940f3ab4a00c1d7b313497ca82fb0b4ab0079304835233878b8620541614613b3f565b50613c468973ffffffffffffffffffffffffffffffffffffffff166000527f80bb2b638cc20bc4d0a60d66940f3ab4a00c1d7b313497ca82fb0b4ab0079305602052604060002090565b338552835260ff8a85205416613bc3565b60246040517f64a0ae9200000000000000000000000000000000000000000000000000000000815260006004820152fd5b806000527f80bb2b638cc20bc4d0a60d66940f3ab4a00c1d7b313497ca82fb0b4ab007930260205273ffffffffffffffffffffffffffffffffffffffff60406000205416908115613cd7575090565b602490604051907f7e2732890000000000000000000000000000000000000000000000000000000082526004820152fd5b813b613d15575b50505050565b73ffffffffffffffffffffffffffffffffffffffff949192939480931693604051937f150b7a02000000000000000000000000000000000000000000000000000000009283865233600487015216602485015260448401526080606484015282613d856020966084830190612d6b565b039285816000958187895af1849181613e79575b50613e11575050503d600014613e09573d613db381612e88565b90613dc16040519283612e47565b81528091843d92013e5b80519283613e0457602483604051907f64a0ae920000000000000000000000000000000000000000000000000000000082526004820152fd5b019050fd5b506060613dcb565b9092507fffffffff000000000000000000000000000000000000000000000000000000009194501603613e48575038808080613d0f565b602490604051907f64a0ae920000000000000000000000000000000000000000000000000000000082526004820152fd5b9091508681813d8311613ece575b613e918183612e47565b81010312613eca57517fffffffff0000000000000000000000000000000000000000000000000000000081168103613eca579038613d99565b8480fd5b503d613e87565b7f645e039705490088daad89bae25049a34f4a9072d398537b1ab2425f24cbed028054821015613f2a576000527fa42f15e5d656f8155fd7419d740a6073999f19cd6e061449ce4a257150545bf20190600090565b7f4e487b7100000000000000000000000000000000000000000000000000000000600052603260045260246000fd5b60ff7ff0c57e16840df040f15088dc2f81fe391c3923bec73e23a9662efc9c229c6a005460401c1615613f8857565b60046040517fd7e6bcf8000000000000000000000000000000000000000000000000000000008152fd5b6bffffffffffffffffffffffff821690612710808311614079575073ffffffffffffffffffffffffffffffffffffffff16918215614048577fffffffffffffffffffffffff000000000000000000000000000000000000000091602060405161401a81612e0f565b858152015260a01b16177fdaedc9ab023613a7caf35e703657e986ccfad7e3eb0af93a2853f8d65dd86b0055565b60246040517fb6d9900a00000000000000000000000000000000000000000000000000000000815260006004820152fd5b82604491604051917f6f483d0900000000000000000000000000000000000000000000000000000000835260048301526024820152fd5b60ff7fcd5ed15c6e187e77e9aee88184c21f4f2182ab5827cb3b7e07fbedcd63f0330054166140db57565b60046040517fd93c0665000000000000000000000000000000000000000000000000000000008152fd5b9190916000908082526020917f0542a41881ee128a365a727b282c86fa859579490b9bb45aab8503648c8e79008352604081209085519067ffffffffffffffff82116142df576141558354613662565b601f811161429c575b508490601f83116001146141dc57907ff8e1a15aba9398e019f0b49df1a4fde98ee17ae345cb5f6b5e2c27f5033e8ce79697836141d1575b50507fffffffffffffffffffffffffffffffffffffffffffffffffffffffffffffffff8260011b9260031b1c19161790555b604051908152a1565b015190503880614196565b91967fffffffffffffffffffffffffffffffffffffffffffffffffffffffffffffffe08816848452868420935b81811061428557509160019391897ff8e1a15aba9398e019f0b49df1a4fde98ee17ae345cb5f6b5e2c27f5033e8ce7999a941061424e575b505050811b0190556141c8565b01517fffffffffffffffffffffffffffffffffffffffffffffffffffffffffffffffff60f88460031b161c19169055388080614241565b929387600181928786015181550195019301614209565b838252858220601f840160051c8101918785106142d5575b601f0160051c01905b8181106142ca575061415e565b8281556001016142bd565b90915081906142b4565b807f4e487b7100000000000000000000000000000000000000000000000000000000602492526041600452fdfea164736f6c6343000814000a2f8788117e7eff1d82e926ec794901d17c78024a50270940304540a733656f0d80bb2b638cc20bc4d0a60d66940f3ab4a00c1d7b313497ca82fb0b4ab007930002dd7bc7dec4dceedda775e58dd541e08a116c6c53815c0bd028192f7b62680037c58c799b6609234b945e882912ee9ad34948a1dfaa20a97485e1a7752bbf81","linkReferences":{}},"methodIdentifiers":{"DEFAULT_ADMIN_ROLE()":"a217fddf","MINTER_ROLE()":"d5391393","PAUSER_ROLE()":"e63ab1e9","URI_SETTER_ROLE()":"7f345710","approve(address,uint256)":"095ea7b3","balanceOf(address)":"70a08231","blocked()":"303bdd2c","burn(uint256)":"42966c68","getApproved(uint256)":"081812fc","getRoleAdmin(bytes32)":"248a9ca3","grantRole(bytes32,address)":"2f2ff15d","hasRole(bytes32,address)":"91d14854","initialize(address,uint16,string,string,address)":"35156a7a","isApprovedForAll(address,address)":"e985e9c5","name()":"06fdde03","ownerOf(uint256)":"6352211e","pause()":"8456cb59","paused()":"5c975abb","renounceRole(bytes32,address)":"36568abe","revokeRole(bytes32,address)":"d547741f","royaltyInfo(uint256,uint256)":"2a55205a","safeMint(address,uint256,string)":"cd279c7c","safeTransferFrom(address,address,uint256)":"42842e0e","safeTransferFrom(address,address,uint256,bytes)":"b88d4fde","setApprovalForAll(address,bool)":"a22cb465","setRoyalty(address,uint96)":"8f2fc60b","setTokenURI(uint256,string)":"162094c4","supportsInterface(bytes4)":"01ffc9a7","symbol()":"95d89b41","toBlock()":"97006591","tokenByIndex(uint256)":"4f6ccce7","tokenOfOwnerByIndex(address,uint256)":"2f745c59","tokenURI(uint256)":"c87b56dd","totalSupply()":"18160ddd","transferFrom(address,address,uint256)":"23b872dd","unpause()":"3f4ba83a"},"storageLayout":{"storage":[{"astId":59933,"contract":"src/Rewards1167.sol:Rewards1167","label":"blocked","offset":0,"slot":"0","type":"t_bool"}],"types":{"t_bool":{"encoding":"inplace","label":"bool","numberOfBytes":"1"}}},"id":81}