{"abi":[{"type":"constructor","inputs":[],"stateMutability":"nonpayable"},{"type":"fallback","stateMutability":"payable"},{"type":"receive","stateMutability":"payable"},{"type":"function","name":"DEFAULT_ADMIN_ROLE","inputs":[],"outputs":[{"name":"","type":"bytes32","internalType":"bytes32"}],"stateMutability":"view"},{"type":"function","name":"OPERATOR_ROLE","inputs":[],"outputs":[{"name":"","type":"bytes32","internalType":"bytes32"}],"stateMutability":"view"},{"type":"function","name":"getRoleAdmin","inputs":[{"name":"role","type":"bytes32","internalType":"bytes32"}],"outputs":[{"name":"","type":"bytes32","internalType":"bytes32"}],"stateMutability":"view"},{"type":"function","name":"grantRole","inputs":[{"name":"role","type":"bytes32","internalType":"bytes32"},{"name":"account","type":"address","internalType":"address"}],"outputs":[],"stateMutability":"nonpayable"},{"type":"function","name":"hasRole","inputs":[{"name":"role","type":"bytes32","internalType":"bytes32"},{"name":"account","type":"address","internalType":"address"}],"outputs":[{"name":"","type":"bool","internalType":"bool"}],"stateMutability":"view"},{"type":"function","name":"renounceRole","inputs":[{"name":"role","type":"bytes32","internalType":"bytes32"},{"name":"callerConfirmation","type":"address","internalType":"address"}],"outputs":[],"stateMutability":"nonpayable"},{"type":"function","name":"revokeRole","inputs":[{"name":"role","type":"bytes32","internalType":"bytes32"},{"name":"account","type":"address","internalType":"address"}],"outputs":[],"stateMutability":"nonpayable"},{"type":"function","name":"supportsInterface","inputs":[{"name":"interfaceId","type":"bytes4","internalType":"bytes4"}],"outputs":[{"name":"","type":"bool","internalType":"bool"}],"stateMutability":"view"},{"type":"function","name":"withdraw","inputs":[{"name":"beneficiary","type":"address","internalType":"address payable"},{"name":"amount","type":"uint256","internalType":"uint256"}],"outputs":[],"stateMutability":"nonpayable"},{"type":"event","name":"RoleAdminChanged","inputs":[{"name":"role","type":"bytes32","indexed":true,"internalType":"bytes32"},{"name":"previousAdminRole","type":"bytes32","indexed":true,"internalType":"bytes32"},{"name":"newAdminRole","type":"bytes32","indexed":true,"internalType":"bytes32"}],"anonymous":false},{"type":"event","name":"RoleGranted","inputs":[{"name":"role","type":"bytes32","indexed":true,"internalType":"bytes32"},{"name":"account","type":"address","indexed":true,"internalType":"address"},{"name":"sender","type":"address","indexed":true,"internalType":"address"}],"anonymous":false},{"type":"event","name":"RoleRevoked","inputs":[{"name":"role","type":"bytes32","indexed":true,"internalType":"bytes32"},{"name":"account","type":"address","indexed":true,"internalType":"address"},{"name":"sender","type":"address","indexed":true,"internalType":"address"}],"anonymous":false},{"type":"error","name":"AccessControlBadConfirmation","inputs":[]},{"type":"error","name":"AccessControlUnauthorizedAccount","inputs":[{"name":"account","type":"address","internalType":"address"},{"name":"neededRole","type":"bytes32","internalType":"bytes32"}]},{"type":"error","name":"Payments__FailedWithdraw","inputs":[]},{"type":"error","name":"Payments__InsufficientBalance","inputs":[]}],"bytecode":{"object":"0x60806040523461002c5761001233610031565b5061001c336100af565b5060405161072290816101508239f35b600080fd5b6001600160a01b031660008181527fad3228b676f7d3cd4284a5443f17f1962b36e491b30a40b2405849e597ba5fb5602052604081205490919060ff166100ab57818052816020526040822081835260205260408220600160ff1982541617905533916000805160206108728339815191528180a4600190565b5090565b6001600160a01b031660008181527fee57cd81e84075558e8fcc182a1f4393f91fc97f963a136e66b7f949a62f319f60205260408120549091907f97667070c54ef182b0f5858b034beac1b6f3089aa2d3188bb1e8929f4fa9b9299060ff1661014a57808352826020526040832082845260205260408320600160ff19825416179055600080516020610872833981519152339380a4600190565b50509056fe608060408181526004918236101561001f575b505050361561001d57005b005b600092833560e01c91826301ffc9a71461045b57508163248a9ca3146104135781632f2ff15d146103f557816336568abe1461039457816391d148541461034e578163a217fddf14610315578163d547741f146102e0578163f3fef3a3146100ed575063f5b541a6146100925780610012565b346100e957817ffffffffffffffffffffffffffffffffffffffffffffffffffffffffffffffffc3601126100e957602090517f97667070c54ef182b0f5858b034beac1b6f3089aa2d3188bb1e8929f4fa9b9298152f35b5080fd5b919050346102dc57807ffffffffffffffffffffffffffffffffffffffffffffffffffffffffffffffffc3601126102dc57813573ffffffffffffffffffffffffffffffffffffffff81168091036102d857602435907f97667070c54ef182b0f5858b034beac1b6f3089aa2d3188bb1e8929f4fa9b9298086528560205283862033875260205260ff8487205416156102a2575047821161027a578480809381935af13d156102755767ffffffffffffffff3d818111610249578351917fffffffffffffffffffffffffffffffffffffffffffffffffffffffffffffffe0603f81601f85011601168301908382109082111761021d57845281528460203d92013e5b156101f7578280f35b517fc835b680000000000000000000000000000000000000000000000000000000008152fd5b6024876041887f4e487b7100000000000000000000000000000000000000000000000000000000835252fd5b6024866041877f4e487b7100000000000000000000000000000000000000000000000000000000835252fd5b6101ee565b5050517f26dee94b000000000000000000000000000000000000000000000000000000008152fd5b846044918551917fe2517d3f00000000000000000000000000000000000000000000000000000000835233908301526024820152fd5b8380fd5b8280fd5b5050346100e95760016103119161030c6102f936610517565b939092838752866020528620015461056d565b610674565b5080f35b5050346100e957817ffffffffffffffffffffffffffffffffffffffffffffffffffffffffffffffffc3601126100e95751908152602090f35b5050346100e95760ff8160209361036436610517565b90825281865273ffffffffffffffffffffffffffffffffffffffff83832091168252855220541690519015158152f35b8383346100e9576103a436610517565b913373ffffffffffffffffffffffffffffffffffffffff8416036103cd57509061031191610674565b8490517f6697b232000000000000000000000000000000000000000000000000000000008152fd5b5050346100e95760016103119161040e6102f936610517565b6105ca565b9050346102dc5760207ffffffffffffffffffffffffffffffffffffffffffffffffffffffffffffffffc3601126102dc57816020936001923581528085522001549051908152f35b8491346102dc5760207ffffffffffffffffffffffffffffffffffffffffffffffffffffffffffffffffc3601126102dc57357fffffffff0000000000000000000000000000000000000000000000000000000081168091036102dc57602092507f7965db0b0000000000000000000000000000000000000000000000000000000081149081156104ed575b5015158152f35b7f01ffc9a700000000000000000000000000000000000000000000000000000000915014836104e6565b7ffffffffffffffffffffffffffffffffffffffffffffffffffffffffffffffffc6040910112610568576004359060243573ffffffffffffffffffffffffffffffffffffffff811681036105685790565b600080fd5b80600052600060205260406000203360005260205260ff60406000205416156105935750565b604490604051907fe2517d3f0000000000000000000000000000000000000000000000000000000082523360048301526024820152fd5b906000918083528260205273ffffffffffffffffffffffffffffffffffffffff6040842092169182845260205260ff6040842054161560001461066f5780835282602052604083208284526020526040832060017fffffffffffffffffffffffffffffffffffffffffffffffffffffffffffffff008254161790557f2f8788117e7eff1d82e926ec794901d17c78024a50270940304540a733656f0d339380a4600190565b505090565b906000918083528260205273ffffffffffffffffffffffffffffffffffffffff6040842092169182845260205260ff60408420541660001461066f578083528260205260408320828452602052604083207fffffffffffffffffffffffffffffffffffffffffffffffffffffffffffffff0081541690557ff6391f5c32d9c69d2a47ea670b442974b53935d1edc7fd64eb21e047a839171b339380a460019056fea164736f6c6343000814000a2f8788117e7eff1d82e926ec794901d17c78024a50270940304540a733656f0d","linkReferences":{}},"methodIdentifiers":{"DEFAULT_ADMIN_ROLE()":"a217fddf","OPERATOR_ROLE()":"f5b541a6","getRoleAdmin(bytes32)":"248a9ca3","grantRole(bytes32,address)":"2f2ff15d","hasRole(bytes32,address)":"91d14854","renounceRole(bytes32,address)":"36568abe","revokeRole(bytes32,address)":"d547741f","supportsInterface(bytes4)":"01ffc9a7","withdraw(address,uint256)":"f3fef3a3"},"storageLayout":{"storage":[{"astId":50471,"contract":"src/Payments.sol:Payments","label":"_roles","offset":0,"slot":"0","type":"t_mapping(t_bytes32,t_struct(RoleData)50466_storage)"}],"types":{"t_address":{"encoding":"inplace","label":"address","numberOfBytes":"20"},"t_bool":{"encoding":"inplace","label":"bool","numberOfBytes":"1"},"t_bytes32":{"encoding":"inplace","label":"bytes32","numberOfBytes":"32"},"t_mapping(t_address,t_bool)":{"encoding":"mapping","key":"t_address","label":"mapping(address => bool)","numberOfBytes":"32","value":"t_bool"},"t_mapping(t_bytes32,t_struct(RoleData)50466_storage)":{"encoding":"mapping","key":"t_bytes32","label":"mapping(bytes32 => struct AccessControl.RoleData)","numberOfBytes":"32","value":"t_struct(RoleData)50466_storage"},"t_struct(RoleData)50466_storage":{"encoding":"inplace","label":"struct AccessControl.RoleData","numberOfBytes":"64","members":[{"astId":50463,"contract":"src/Payments.sol:Payments","label":"hasRole","offset":0,"slot":"0","type":"t_mapping(t_address,t_bool)"},{"astId":50465,"contract":"src/Payments.sol:Payments","label":"adminRole","offset":0,"slot":"1","type":"t_bytes32"}]}}},"id":80}