{"abi":[{"type":"function","name":"getProof","inputs":[{"name":"data","type":"bytes32[]","internalType":"bytes32[]"},{"name":"node","type":"uint256","internalType":"uint256"}],"outputs":[{"name":"","type":"bytes32[]","internalType":"bytes32[]"}],"stateMutability":"pure"},{"type":"function","name":"getRoot","inputs":[{"name":"data","type":"bytes32[]","internalType":"bytes32[]"}],"outputs":[{"name":"","type":"bytes32","internalType":"bytes32"}],"stateMutability":"pure"},{"type":"function","name":"hashLeafPairs","inputs":[{"name":"left","type":"bytes32","internalType":"bytes32"},{"name":"right","type":"bytes32","internalType":"bytes32"}],"outputs":[{"name":"_hash","type":"bytes32","internalType":"bytes32"}],"stateMutability":"pure"},{"type":"function","name":"log2ceil","inputs":[{"name":"x","type":"uint256","internalType":"uint256"}],"outputs":[{"name":"","type":"uint256","internalType":"uint256"}],"stateMutability":"pure"},{"type":"function","name":"log2ceilBitMagic","inputs":[{"name":"x","type":"uint256","internalType":"uint256"}],"outputs":[{"name":"","type":"uint256","internalType":"uint256"}],"stateMutability":"pure"},{"type":"function","name":"verifyProof","inputs":[{"name":"root","type":"bytes32","internalType":"bytes32"},{"name":"proof","type":"bytes32[]","internalType":"bytes32[]"},{"name":"valueToProve","type":"bytes32","internalType":"bytes32"}],"outputs":[{"name":"","type":"bool","internalType":"bool"}],"stateMutability":"pure"}],"bytecode":{"object":"0x6080806040523461001657610976908161001c8239f35b600080fdfe6080604052600436101561001257600080fd5b6000803560e01c9081632e08d6021461007a5750806358161a4214610075578063b861619514610070578063cf06c7b71461006b578063dd1d2599146100665763e27d51531461006157600080fd5b610515565b6104d6565b610492565b610361565b610295565b346101a25760207ffffffffffffffffffffffffffffffffffffffffffffffffffffffffffffffffc3601126101a25760043567ffffffffffffffff811161019e576100c9903690600401610235565b6001808251111561011a57805b6100fc575b6100f86100e783610596565b516040519081529081906020820190565b0390f35b80825111156101155761010f81926106b5565b916100d6565b6100db565b60846040517f08c379a000000000000000000000000000000000000000000000000000000000815260206004820152602360248201527f776f6e27742067656e657261746520726f6f7420666f722073696e676c65206c60448201527f65616600000000000000000000000000000000000000000000000000000000006064820152fd5b5080fd5b80fd5b7f4e487b7100000000000000000000000000000000000000000000000000000000600052604160045260246000fd5b907fffffffffffffffffffffffffffffffffffffffffffffffffffffffffffffffe0601f604051930116820182811067ffffffffffffffff82111761021857604052565b6101a5565b67ffffffffffffffff81116102185760051b60200190565b9080601f83011215610290578135906102556102508361021d565b6101d4565b9182938184526020808095019260051b820101928311610290578301905b828210610281575050505090565b81358152908301908301610273565b600080fd5b346102905760607ffffffffffffffffffffffffffffffffffffffffffffffffffffffffffffffffc3601126102905760243567ffffffffffffffff8111610290576102e4903690600401610235565b60443581516000925b8184106103035760405160043584148152602090f35b909161031c60019161031586856105d2565b5190610573565b93019291906102ed565b6020908160408183019282815285518094520193019160005b82811061034d575050505090565b83518552938101939281019260010161033f565b346102905760407ffffffffffffffffffffffffffffffffffffffffffffffffffffffffffffffffc3601126102905760043567ffffffffffffffff8111610290576103b0903690600401610235565b602435906001906103c3828251116105e6565b6103d56103d0825161082b565b610670565b92600080845b6103ee575b604051806100f88882610326565b83518581111561048c57858493926104519282808098161460001461045b575061043a7fffffffffffffffffffffffffffffffffffffffffffffffffffffffffffffffff8601886105d2565b51610445828b6105d2565b525b0192841c946106b5565b93929190916103db565b858301908103610477575083610471828b6105d2565b52610447565b61048190886105d2565b51610471828b6105d2565b506103e0565b346102905760207ffffffffffffffffffffffffffffffffffffffffffffffffffffffffffffffffc3601126102905760206104ce60043561082b565b604051908152f35b346102905760407ffffffffffffffffffffffffffffffffffffffffffffffffffffffffffffffffc3601126102905760206104ce602435600435610573565b346102905760207ffffffffffffffffffffffffffffffffffffffffffffffffffffffffffffffffc36011261029057600435806000815b610566576020925060405191806001811901161490038152f35b600192831c92018261054c565b8181101561058a576000526020525b604060002090565b90600052602052610582565b8051156105a35760200190565b7f4e487b7100000000000000000000000000000000000000000000000000000000600052603260045260246000fd5b80518210156105a35760209160051b010190565b156105ed57565b60846040517f08c379a0000000000000000000000000000000000000000000000000000000008152602060048201526024808201527f776f6e27742067656e65726174652070726f6f6620666f722073696e676c652060448201527f6c656166000000000000000000000000000000000000000000000000000000006064820152fd5b9061067d6102508361021d565b8281527fffffffffffffffffffffffffffffffffffffffffffffffffffffffffffffffe06106ab829461021d565b0190602036910137565b9081516001908180821614600014610789576106d48282811c01610670565b917fffffffffffffffffffffffffffffffffffffffffffffffffffffffffffffffff610702818401876105d2565b516000805260205261071c604060002091855101856105d2565b525b6000917fffffffffffffffffffffffffffffffffffffffffffffffffffffffffffffffff839101925b8382106107575750929450505050565b82600291610775610768858b6105d2565b516103158487018c6105d2565b61077f82896105d2565b5201910190610747565b61079481831c610670565b9161071e565b90604082018092116107a857565b7f4e487b7100000000000000000000000000000000000000000000000000000000600052601160045260246000fd5b90602082018092116107a857565b90601082018092116107a857565b90600882018092116107a857565b90600482018092116107a857565b90600282018092116107a857565b90600182018092116107a857565b60018111156109635760009080700100000000000000000000000000000000811015610958575b80680100000000000000006002921015610945575b640100000000811015610932575b6201000081101561091f575b61010081101561090c575b60108110156108f9575b60048110156108e7575b10156108d7575b806108b2811961081d565b1614806108ce575b156108c25790565b6108cb9061081d565b90565b508015156108ba565b906108e19061081d565b906108a7565b6108f390821c9361080f565b926108a0565b6109069060041c93610801565b92610896565b6109199060081c936107f3565b9261088c565b61092c9060101c936107e5565b92610881565b61093f9060201c936107d7565b92610875565b6109529060401c9361079a565b92610867565b60809250821c610852565b5060009056fea164736f6c6343000814000a","linkReferences":{}},"methodIdentifiers":{"getProof(bytes32[],uint256)":"b8616195","getRoot(bytes32[])":"2e08d602","hashLeafPairs(bytes32,bytes32)":"dd1d2599","log2ceil(uint256)":"e27d5153","log2ceilBitMagic(uint256)":"cf06c7b7","verifyProof(bytes32,bytes32[],bytes32)":"58161a42"},"storageLayout":{"storage":[],"types":{}},"id":24}