{"abi":[{"type":"constructor","inputs":[],"stateMutability":"nonpayable"},{"type":"function","name":"DEFAULT_ADMIN_ROLE","inputs":[],"outputs":[{"name":"","type":"bytes32","internalType":"bytes32"}],"stateMutability":"view"},{"type":"function","name":"PAUSER_ROLE","inputs":[],"outputs":[{"name":"","type":"bytes32","internalType":"bytes32"}],"stateMutability":"view"},{"type":"function","name":"advance_creator","inputs":[],"outputs":[{"name":"","type":"uint16","internalType":"uint16"}],"stateMutability":"view"},{"type":"function","name":"blockContract","inputs":[{"name":"projectId","type":"uint256","internalType":"uint256"}],"outputs":[],"stateMutability":"nonpayable"},{"type":"function","name":"buySubscription","inputs":[{"name":"projectId","type":"uint256","internalType":"uint256"},{"name":"mintAmount","type":"uint256","internalType":"uint256"}],"outputs":[],"stateMutability":"payable"},{"type":"function","name":"buySubscriptionWhitelist","inputs":[{"name":"projectId","type":"uint256","internalType":"uint256"},{"name":"_proof","type":"bytes32[]","internalType":"bytes32[]"},{"name":"mintAmount","type":"uint256","internalType":"uint256"}],"outputs":[],"stateMutability":"payable"},{"type":"function","name":"contractBase","inputs":[],"outputs":[{"name":"","type":"address","internalType":"address"}],"stateMutability":"view"},{"type":"function","name":"contracts","inputs":[{"name":"","type":"uint256","internalType":"uint256"}],"outputs":[{"name":"","type":"address","internalType":"contract Rewards1167"}],"stateMutability":"view"},{"type":"function","name":"createProject","inputs":[{"name":"_name","type":"string","internalType":"string"},{"name":"_symbol","type":"string","internalType":"string"},{"name":"_CID","type":"string","internalType":"string"},{"name":"_royalty","type":"uint16","internalType":"uint16"},{"name":"_price","type":"uint256","internalType":"uint256"},{"name":"_maxBuyer","type":"uint16","internalType":"uint16"},{"name":"_maxMint","type":"uint16","internalType":"uint16"},{"name":"_backendId","type":"string","internalType":"string"},{"name":"_rewards","type":"uint8[]","internalType":"uint8[]"}],"outputs":[{"name":"","type":"uint256","internalType":"uint256"}],"stateMutability":"nonpayable"},{"type":"function","name":"getPayablePerReward","inputs":[{"name":"_projectId","type":"uint256","internalType":"uint256"}],"outputs":[{"name":"","type":"uint256","internalType":"uint256"}],"stateMutability":"view"},{"type":"function","name":"getProject","inputs":[{"name":"_projectId","type":"uint256","internalType":"uint256"}],"outputs":[{"name":"","type":"tuple","internalType":"struct SubscriptionManagementV2.ProjectInfo","components":[{"name":"price","type":"uint256","internalType":"uint256"},{"name":"projectOwner","type":"address","internalType":"address"},{"name":"nftContract","type":"address","internalType":"address"},{"name":"maxBuyers","type":"uint32","internalType":"uint32"},{"name":"currentBuyers","type":"uint32","internalType":"uint32"},{"name":"backendId","type":"string","internalType":"string"},{"name":"rewards","type":"uint8[]","internalType":"uint8[]"}]}],"stateMutability":"view"},{"type":"function","name":"getRoleAdmin","inputs":[{"name":"role","type":"bytes32","internalType":"bytes32"}],"outputs":[{"name":"","type":"bytes32","internalType":"bytes32"}],"stateMutability":"view"},{"type":"function","name":"getTypeRewards","inputs":[{"name":"_projectId","type":"uint256","internalType":"uint256"}],"outputs":[{"name":"","type":"uint8[]","internalType":"uint8[]"}],"stateMutability":"view"},{"type":"function","name":"grantRole","inputs":[{"name":"role","type":"bytes32","internalType":"bytes32"},{"name":"account","type":"address","internalType":"address"}],"outputs":[],"stateMutability":"nonpayable"},{"type":"function","name":"hasRole","inputs":[{"name":"role","type":"bytes32","internalType":"bytes32"},{"name":"account","type":"address","internalType":"address"}],"outputs":[{"name":"","type":"bool","internalType":"bool"}],"stateMutability":"view"},{"type":"function","name":"indexToCID","inputs":[{"name":"","type":"uint256","internalType":"uint256"},{"name":"","type":"uint256","internalType":"uint256"}],"outputs":[{"name":"","type":"string","internalType":"string"}],"stateMutability":"view"},{"type":"function","name":"initialize","inputs":[{"name":"_payments","type":"address","internalType":"address"},{"name":"baseERC721contract","type":"address","internalType":"address"}],"outputs":[],"stateMutability":"nonpayable"},{"type":"function","name":"isBlocked","inputs":[{"name":"projectId","type":"uint256","internalType":"uint256"}],"outputs":[{"name":"","type":"bool","internalType":"bool"}],"stateMutability":"view"},{"type":"function","name":"maxMint","inputs":[{"name":"","type":"uint256","internalType":"uint256"}],"outputs":[{"name":"","type":"uint256","internalType":"uint256"}],"stateMutability":"view"},{"type":"function","name":"mintFee","inputs":[],"outputs":[{"name":"","type":"uint256","internalType":"uint256"}],"stateMutability":"view"},{"type":"function","name":"mintRewardNFT","inputs":[{"name":"projectId","type":"uint256","internalType":"uint256"},{"name":"rewardId","type":"uint32","internalType":"uint32"},{"name":"tokenSubscriptionId","type":"uint256","internalType":"uint256"}],"outputs":[],"stateMutability":"payable"},{"type":"function","name":"nftsMinted","inputs":[{"name":"","type":"uint256","internalType":"uint256"},{"name":"","type":"address","internalType":"address"}],"outputs":[{"name":"","type":"uint256","internalType":"uint256"}],"stateMutability":"view"},{"type":"function","name":"platform_fee","inputs":[],"outputs":[{"name":"","type":"uint16","internalType":"uint16"}],"stateMutability":"view"},{"type":"function","name":"podPayments","inputs":[],"outputs":[{"name":"","type":"address","internalType":"address payable"}],"stateMutability":"view"},{"type":"function","name":"projects","inputs":[{"name":"","type":"uint256","internalType":"uint256"}],"outputs":[{"name":"price","type":"uint256","internalType":"uint256"},{"name":"projectOwner","type":"address","internalType":"address"},{"name":"nftContract","type":"address","internalType":"address"},{"name":"maxBuyers","type":"uint32","internalType":"uint32"},{"name":"currentBuyers","type":"uint32","internalType":"uint32"},{"name":"backendId","type":"string","internalType":"string"}],"stateMutability":"view"},{"type":"function","name":"projectsCounter","inputs":[],"outputs":[{"name":"","type":"uint256","internalType":"uint256"}],"stateMutability":"view"},{"type":"function","name":"renounceRole","inputs":[{"name":"role","type":"bytes32","internalType":"bytes32"},{"name":"callerConfirmation","type":"address","internalType":"address"}],"outputs":[],"stateMutability":"nonpayable"},{"type":"function","name":"revokeRole","inputs":[{"name":"role","type":"bytes32","internalType":"bytes32"},{"name":"account","type":"address","internalType":"address"}],"outputs":[],"stateMutability":"nonpayable"},{"type":"function","name":"rewardSubmitted","inputs":[{"name":"","type":"uint256","internalType":"uint256"},{"name":"","type":"uint32","internalType":"uint32"}],"outputs":[{"name":"","type":"bool","internalType":"bool"}],"stateMutability":"view"},{"type":"function","name":"setAdvanceCreator","inputs":[{"name":"_advance_creator","type":"uint16","internalType":"uint16"}],"outputs":[],"stateMutability":"nonpayable"},{"type":"function","name":"setFees","inputs":[{"name":"_platform_fee","type":"uint16","internalType":"uint16"}],"outputs":[],"stateMutability":"nonpayable"},{"type":"function","name":"setValid","inputs":[{"name":"projectId","type":"uint256","internalType":"uint256"},{"name":"rewardId","type":"uint32","internalType":"uint32"},{"name":"nftIds","type":"uint256[]","internalType":"uint256[]"},{"name":"CIDs","type":"string[]","internalType":"string[]"}],"outputs":[],"stateMutability":"nonpayable"},{"type":"function","name":"setWhitelist","inputs":[{"name":"projectId","type":"uint256","internalType":"uint256"},{"name":"_whitelistMerkleRoot","type":"bytes32","internalType":"bytes32"}],"outputs":[],"stateMutability":"nonpayable"},{"type":"function","name":"setWhitelistStatus","inputs":[{"name":"projectId","type":"uint256","internalType":"uint256"},{"name":"status","type":"uint256","internalType":"uint256"}],"outputs":[],"stateMutability":"nonpayable"},{"type":"function","name":"supportsInterface","inputs":[{"name":"interfaceId","type":"bytes4","internalType":"bytes4"}],"outputs":[{"name":"","type":"bool","internalType":"bool"}],"stateMutability":"view"},{"type":"function","name":"updateMintFee","inputs":[{"name":"newMintFee","type":"uint256","internalType":"uint256"}],"outputs":[],"stateMutability":"nonpayable"},{"type":"function","name":"whitelistStatus","inputs":[{"name":"","type":"uint256","internalType":"uint256"}],"outputs":[{"name":"","type":"uint256","internalType":"uint256"}],"stateMutability":"view"},{"type":"function","name":"withdraw","inputs":[],"outputs":[],"stateMutability":"nonpayable"},{"type":"event","name":"BoughtSubscription","inputs":[{"name":"buyer","type":"address","indexed":true,"internalType":"address"},{"name":"nftId","type":"uint256[]","indexed":false,"internalType":"uint256[]"},{"name":"projectId","type":"uint256","indexed":false,"internalType":"uint256"},{"name":"cid","type":"string","indexed":false,"internalType":"string"},{"name":"amountMinted","type":"uint256","indexed":false,"internalType":"uint256"}],"anonymous":false},{"type":"event","name":"CreatedProjectAccount","inputs":[{"name":"id","type":"uint256","indexed":false,"internalType":"uint256"},{"name":"artist","type":"address","indexed":false,"internalType":"address"},{"name":"_name","type":"string","indexed":false,"internalType":"string"},{"name":"_symbol","type":"string","indexed":false,"internalType":"string"}],"anonymous":false},{"type":"event","name":"ERC721Created","inputs":[{"name":"owner","type":"address","indexed":false,"internalType":"address"},{"name":"tokenContract","type":"address","indexed":false,"internalType":"address"}],"anonymous":false},{"type":"event","name":"ERC721Minted","inputs":[{"name":"owner","type":"address","indexed":false,"internalType":"address"},{"name":"nftId","type":"uint256","indexed":false,"internalType":"uint256"},{"name":"nftSubscriptionId","type":"uint256","indexed":false,"internalType":"uint256"},{"name":"tokenContract","type":"address","indexed":false,"internalType":"address"},{"name":"amount","type":"uint256","indexed":false,"internalType":"uint256"}],"anonymous":false},{"type":"event","name":"Initialized","inputs":[{"name":"version","type":"uint64","indexed":false,"internalType":"uint64"}],"anonymous":false},{"type":"event","name":"RoleAdminChanged","inputs":[{"name":"role","type":"bytes32","indexed":true,"internalType":"bytes32"},{"name":"previousAdminRole","type":"bytes32","indexed":true,"internalType":"bytes32"},{"name":"newAdminRole","type":"bytes32","indexed":true,"internalType":"bytes32"}],"anonymous":false},{"type":"event","name":"RoleGranted","inputs":[{"name":"role","type":"bytes32","indexed":true,"internalType":"bytes32"},{"name":"account","type":"address","indexed":true,"internalType":"address"},{"name":"sender","type":"address","indexed":true,"internalType":"address"}],"anonymous":false},{"type":"event","name":"RoleRevoked","inputs":[{"name":"role","type":"bytes32","indexed":true,"internalType":"bytes32"},{"name":"account","type":"address","indexed":true,"internalType":"address"},{"name":"sender","type":"address","indexed":true,"internalType":"address"}],"anonymous":false},{"type":"event","name":"SubscriptionAllowlist","inputs":[{"name":"projectId","type":"uint256","indexed":false,"internalType":"uint256"},{"name":"user","type":"address","indexed":false,"internalType":"address"}],"anonymous":false},{"type":"error","name":"AccessControlBadConfirmation","inputs":[]},{"type":"error","name":"AccessControlUnauthorizedAccount","inputs":[{"name":"account","type":"address","internalType":"address"},{"name":"neededRole","type":"bytes32","internalType":"bytes32"}]},{"type":"error","name":"ERC1167FailedCreateClone","inputs":[]},{"type":"error","name":"InvalidInitialization","inputs":[]},{"type":"error","name":"NotInitializing","inputs":[]},{"type":"error","name":"ReentrancyGuardReentrantCall","inputs":[]},{"type":"error","name":"SubscriptionMgmt__BlockContract_AlreadyBlocked","inputs":[]},{"type":"error","name":"SubscriptionMgmt__BuySubscriptionWhitelist_InvalidProof","inputs":[]},{"type":"error","name":"SubscriptionMgmt__BuySubscription_CurrentMintAboveMaxMintAllowed","inputs":[]},{"type":"error","name":"SubscriptionMgmt__BuySubscription_FailedETHCreator","inputs":[]},{"type":"error","name":"SubscriptionMgmt__BuySubscription_FailedETHPayments","inputs":[]},{"type":"error","name":"SubscriptionMgmt__BuySubscription_InvalidAmount0","inputs":[]},{"type":"error","name":"SubscriptionMgmt__BuySubscription_NotEnoughEth","inputs":[]},{"type":"error","name":"SubscriptionMgmt__BuySubscription_NotEnoughNFTsForSale","inputs":[]},{"type":"error","name":"SubscriptionMgmt__BuySubscription_ProjectBlockedFactory","inputs":[]},{"type":"error","name":"SubscriptionMgmt__BuySubscription_SaleNotOpen","inputs":[]},{"type":"error","name":"SubscriptionMgmt__BuySubscription_SoldOut","inputs":[]},{"type":"error","name":"SubscriptionMgmt__BuySubscription_UserMaxMintReach","inputs":[]},{"type":"error","name":"SubscriptionMgmt__CreateProject_InvalidNameOrSymbol","inputs":[]},{"type":"error","name":"SubscriptionMgmt__InvalidNrSubscBuyers","inputs":[]},{"type":"error","name":"SubscriptionMgmt__InvalidSubscriptionNFTId","inputs":[]},{"type":"error","name":"SubscriptionMgmt__MintReward_AlreadyMinted","inputs":[]},{"type":"error","name":"SubscriptionMgmt__MintReward_NonSubscriptor","inputs":[]},{"type":"error","name":"SubscriptionMgmt__MintReward_NotEnoughEth","inputs":[]},{"type":"error","name":"SubscriptionMgmt__MintReward_RewardNotSubmitted","inputs":[]},{"type":"error","name":"SubscriptionMgmt__MintReward_SubscriptionNFTNotValid","inputs":[]},{"type":"error","name":"SubscriptionMgmt__NotProjectOnwer","inputs":[]},{"type":"error","name":"SubscriptionMgmt__setValid_InvalidCIDsLength","inputs":[]},{"type":"error","name":"SubscriptionMgmt__setValid_InvalidNFTIDs","inputs":[]},{"type":"error","name":"SubscriptionMgmt__setValid_InvalidRewardId","inputs":[]},{"type":"error","name":"SubscriptionMgmt__setValid_ProjectNotClosed","inputs":[]},{"type":"error","name":"SubscriptionMgmt__setValid_RewardAlreadyValidated","inputs":[]},{"type":"error","name":"SubscriptionMgmt__setValid_nftIdsNotMatchSubscriptionNr","inputs":[]},{"type":"error","name":"SubscriptionMgmt__setWhitelistStatus_InvalidStatus","inputs":[]}],"bytecode":{"object":"0x60808060405234620000bd577ff0c57e16840df040f15088dc2f81fe391c3923bec73e23a9662efc9c229c6a009081549060ff8260401c16620000ae57506001600160401b036002600160401b03198282160162000068575b6040516142e09081620000c38239f35b6001600160401b031990911681179091556040519081527fc7f505b2f371ae2175ee4913f4499e1f2633a7b5936321eed1cdaeb6115181d290602090a138808062000058565b63f92ee8a960e01b8152600490fd5b600080fdfe608080604052600436101561001357600080fd5b600090813560e01c90816301ffc9a714612cb9575080630d371c3d1461214b578063107046bd1461209a57806313966db51461205e578063248a9ca314611ff457806324bb19a714611d025780632f2ff15d14611c8757806336568abe14611bfc5780633ccfd60b14611bac5780633d9e67ec14611b6457806345f1423114611b12578063474da79a14611aa457806347b5c89314611a27578063485cc9551461177c5780634e84397d1461171d578063541439c31461162c578063666c5c6e146115da57806366df2815146115675780637f1035ff1461151f57806384017e52146114de57806387e2254c1461147657806391d14854146113df57806397573cae14610d1a578063a217fddf14610ce0578063a3a2c1aa14610855578063acd7247914610812578063b0aa98c7146107cb578063c9d080bf14610789578063ca1123c214610719578063cfb551a4146106da578063d547741f1461065b578063dc0f12e114610616578063e63ab1e9146105bd578063f0f3f2c8146104d5578063f42dcdf814610313578063f9bc27c514610278578063fe360ea51461023c5763ff4468ef146101c357600080fd5b346102395760207ffffffffffffffffffffffffffffffffffffffffffffffffffffffffffffffffc360112610239576101fa612da5565b610202613178565b7fffffffffffffffffffffffffffffffffffffffffffffffffffffffff0000ffff63ffff00006000549260101b1691161760005580f35b80fd5b503461023957807ffffffffffffffffffffffffffffffffffffffffffffffffffffffffffffffffc360112610239576020600154604051908152f35b50346102395760407ffffffffffffffffffffffffffffffffffffffffffffffffffffffffffffffffc36011261023957600435808252600560205273ffffffffffffffffffffffffffffffffffffffff60016040842001541633036102e95781526008602052602435604082205580f35b60046040517f9bee4249000000000000000000000000000000000000000000000000000000008152fd5b5061031d36613089565b610325613675565b80156104ab5761033482613b6f565b610481578183526005602052600260408420015463ffffffff9081808260a01c169160c01c161461045757828452600a6020526040842054801590811561044c575b506104225782845260056020526103998282600260408820015460c01c16613668565b908385526005602052600260408620015460a01c16106103f857816103d1928452600b6020526103cb60408520612ec5565b9061372b565b60017f9b779b17422d0df92223018b32b4d1fa46e071723d6817e2486d003becc55f005580f35b60046040517f2b9091f3000000000000000000000000000000000000000000000000000000008152fd5b60046040517fcdf73d6f000000000000000000000000000000000000000000000000000000008152fd5b600191501438610376565b60046040517fd6e8a5f2000000000000000000000000000000000000000000000000000000008152fd5b60046040517f57852528000000000000000000000000000000000000000000000000000000008152fd5b60046040517fe6bfbce8000000000000000000000000000000000000000000000000000000008152fd5b50346102395760207ffffffffffffffffffffffffffffffffffffffffffffffffffffffffffffffffc360112610239576105b961051360043561419f565b604051918291602083528051602084015273ffffffffffffffffffffffffffffffffffffffff806020830151166040850152604082015116606084015263ffffffff80606083015116608085015260808201511660a084015260c061058760a083015160e083870152610100860190612f8a565b9101517fffffffffffffffffffffffffffffffffffffffffffffffffffffffffffffffe08483030160e08501526130bd565b0390f35b503461023957807ffffffffffffffffffffffffffffffffffffffffffffffffffffffffffffffffc3601126102395760206040517f65d7a28e3265b37a6474929f336521b332c1681b933f6cb9f3376673440d862a8152f35b50346102395760207ffffffffffffffffffffffffffffffffffffffffffffffffffffffffffffffffc36011261023957602061065360043561425b565b604051908152f35b50346102395760407ffffffffffffffffffffffffffffffffffffffffffffffffffffffffffffffffc360112610239576106d6600435610699613000565b908084527f02dd7bc7dec4dceedda775e58dd541e08a116c6c53815c0bd028192f7b6268006020526106d160016040862001546131e9565b6134cf565b5080f35b503461023957807ffffffffffffffffffffffffffffffffffffffffffffffffffffffffffffffffc3601126102395761ffff6020915416604051908152f35b50346102395760207ffffffffffffffffffffffffffffffffffffffffffffffffffffffffffffffffc3601126102395761ffff610754612da5565b61075c613178565b167fffffffffffffffffffffffffffffffffffffffffffffffffffffffffffff0000600054161760005580f35b503461023957807ffffffffffffffffffffffffffffffffffffffffffffffffffffffffffffffffc3601126102395761ffff6020915460101c16604051908152f35b50346102395760207ffffffffffffffffffffffffffffffffffffffffffffffffffffffffffffffffc360112610239576020610808600435613b6f565b6040519015158152f35b50346102395761084160406105b99261082a36613089565b908252600d60205282822090825260205220612ec5565b604051918291602083526020830190612f8a565b5060607ffffffffffffffffffffffffffffffffffffffffffffffffffffffffffffffffc3601126102395760043561088b6130f4565b60443591808452602092600c8452604085209063ffffffff8085169283600052865260ff6040600020541615610cb6576108c48461419f565b906108e88386600052600560205263ffffffff60026040600020015460a01c161190565b15610c8c57869560246108fa87613023565b99905499604051928380927f6352211e00000000000000000000000000000000000000000000000000000000825289600483015273ffffffffffffffffffffffffffffffffffffffff9d8e9160031b1c165afa908115610c81578a91610c47575b508833911603610c1d57858952600f875260408920848a52875260408920858a52875260ff60408a205416610bf3576002543410610bc957826109b26109b8928460808160606109e4990151169401511690613b54565b90613713565b90858952600e8752604089208560005287526040600020918254926109dc8461362e565b905516613668565b91838752600f85526040872082885285526040872090875284526040862092866001947fffffffffffffffffffffffffffffffffffffffffffffffffffffffffffffff0090868282541617905587610a3b84613023565b90549060031b1c16838352600d885260408320868452885260408320813b15610bc557604051927fcd279c7c00000000000000000000000000000000000000000000000000000000845233600485015287602485015260606044850152849180548686610aa783612db6565b948560648301528d84169384600014610ba25750505050600114610b63575b50508391838381809403925af18015610b5857610b36575b50937f49ba5cc70a02f341b5140249d02ba90919965009b4104aa6f47bf8ca3c38725f9360a09388610b108995613023565b90549060031b1c169160405194338652850152604084015260608301526080820152a180f35b610b4590969594939296612e09565b610b5457909192938638610ade565b8680fd5b6040513d84823e3d90fd5b85528985208592508a908a905b838510610b87575050505082016084018183610ac6565b8054858801608401528e975093909101928b918b9101610b70565b1660848083019190915294151560051b8101909401945085939250610ac6915050565b8380fd5b60046040517f0f416e76000000000000000000000000000000000000000000000000000000008152fd5b60046040517fc1449016000000000000000000000000000000000000000000000000000000008152fd5b60046040517f05ee54e4000000000000000000000000000000000000000000000000000000008152fd5b90508781813d8311610c7a575b610c5e8183612e84565b81010312610c7657518881168103610c76573861095b565b8980fd5b503d610c54565b6040513d8c823e3d90fd5b60046040517f05538575000000000000000000000000000000000000000000000000000000008152fd5b60046040517fadb3d1e8000000000000000000000000000000000000000000000000000000008152fd5b503461023957807ffffffffffffffffffffffffffffffffffffffffffffffffffffffffffffffffc36011261023957602090604051908152f35b50346102395760807ffffffffffffffffffffffffffffffffffffffffffffffffffffffffffffffffc36011261023957610d526130f4565b6044359167ffffffffffffffff8311610239573660238401121561023957826004013592610d7f84612fe8565b93610d8d6040519586612e84565b8085526024602086019160051b83010191368311610bc557602401905b8282106113cf5750505060643567ffffffffffffffff81116113cb57366023820112156113cb578060040135610ddf81612fe8565b91610ded6040519384612e84565b8183526024602084019260051b820101903682116113c75760248101925b82841061138657505050506004358252600560205273ffffffffffffffffffffffffffffffffffffffff60016040842001541633036102e957610e4f60043561419f565b92610e5b600435613b6f565b158061136b575b6113415760c08401515163ffffffff82161015611317578451608085019063ffffffff825116036112ed5785518351036112c357610ec263ffffffff80610eb88160608b519a0151166109b28387511688613b54565b1692511682613668565b91827fffffffffffffffffffffffffffffffffffffffffffffffffffffffffffffffff810111611296576004358552600c6020526040852063ffffffff821660005260205260ff6040600020541661126c57845b8663ffffffff821610156111935782610f3563ffffffff83168a6136cf565b51108015611158575b61112e57610f5263ffffffff8216866136cf565b516004358752600d60205260408720610f7163ffffffff84168b6136cf565b518852602052604087209080519067ffffffffffffffff8211611101578190610fa482610f9e8654612db6565b866135a7565b602090601f831160011461103e578a92611033575b50507fffffffffffffffffffffffffffffffffffffffffffffffffffffffffffffffff8260011b9260031b1c19161790555b63ffffffff808216146110065763ffffffff16600101610f16565b6024867f4e487b710000000000000000000000000000000000000000000000000000000081526011600452fd5b015190503880610fb9565b9250838a5260208a20908a935b7fffffffffffffffffffffffffffffffffffffffffffffffffffffffffffffffe0841685106110e65760019450837fffffffffffffffffffffffffffffffffffffffffffffffffffffffffffffffe08116106110af575b505050811b019055610feb565b01517fffffffffffffffffffffffffffffffffffffffffffffffffffffffffffffffff60f88460031b161c191690553880806110a2565b8181015183556020948501946001909301929091019061104b565b6024897f4e487b710000000000000000000000000000000000000000000000000000000081526041600452fd5b60046040517f675b2ece000000000000000000000000000000000000000000000000000000008152fd5b507fffffffffffffffffffffffffffffffffffffffffffffffffffffffffffffffff840161118c63ffffffff83168a6136cf565b5111610f3e565b85826004358252600c60205263ffffffff604083209116600052602052604060002060017fffffffffffffffffffffffffffffffffffffffffffffffffffffffffffffff00825416179055806111ea60043561425b565b73ffffffffffffffffffffffffffffffffffffffff825460201c1690813b156112685782916044839260405194859384927ff3fef3a300000000000000000000000000000000000000000000000000000000845233600485015260248401525af18015610b58576112585750f35b61126190612e09565b6102395780f35b5050fd5b60046040517f8045feb1000000000000000000000000000000000000000000000000000000008152fd5b6024857f4e487b710000000000000000000000000000000000000000000000000000000081526011600452fd5b60046040517fe32109d6000000000000000000000000000000000000000000000000000000008152fd5b60046040517f98d6965d000000000000000000000000000000000000000000000000000000008152fd5b60046040517fd512652e000000000000000000000000000000000000000000000000000000008152fd5b60046040517feb9ec332000000000000000000000000000000000000000000000000000000008152fd5b5063ffffffff80608086015116906060860151161415610e62565b833567ffffffffffffffff8111610b5457820136604382011215610b54576020916113bc83923690604460248201359101613141565b815201930192610e0b565b8480fd5b5080fd5b8135815260209182019101610daa565b50346102395760407ffffffffffffffffffffffffffffffffffffffffffffffffffffffffffffffffc3601126102395773ffffffffffffffffffffffffffffffffffffffff604061142e613000565b9260043581527f02dd7bc7dec4dceedda775e58dd541e08a116c6c53815c0bd028192f7b626800602052209116600052602052602060ff604060002054166040519015158152f35b50346102395760407ffffffffffffffffffffffffffffffffffffffffffffffffffffffffffffffffc3601126102395763ffffffff60406114b56130f4565b926004358152600c602052209116600052602052602060ff604060002054166040519015158152f35b50346102395760207ffffffffffffffffffffffffffffffffffffffffffffffffffffffffffffffffc36011261023957611516613178565b60043560025580f35b50346102395760207ffffffffffffffffffffffffffffffffffffffffffffffffffffffffffffffffc3601126102395760406020916004358152600a83522054604051908152f35b50346102395760407ffffffffffffffffffffffffffffffffffffffffffffffffffffffffffffffffc3601126102395773ffffffffffffffffffffffffffffffffffffffff60406115b6613000565b92600435815260076020522091166000526020526020604060002054604051908152f35b503461023957807ffffffffffffffffffffffffffffffffffffffffffffffffffffffffffffffffc3601126102395754604051602091821c73ffffffffffffffffffffffffffffffffffffffff168152f35b50346102395760207ffffffffffffffffffffffffffffffffffffffffffffffffffffffffffffffffc36011261023957600435808252600560205273ffffffffffffffffffffffffffffffffffffffff8060016040852001541633036102e95761169582613b6f565b6116f3576116a38392613023565b90549060031b1c16803b156116f0578180916004604051809481937f970065910000000000000000000000000000000000000000000000000000000083525af18015610b58576112585750f35b50fd5b60046040517fc909b0a0000000000000000000000000000000000000000000000000000000008152fd5b50346102395760207ffffffffffffffffffffffffffffffffffffffffffffffffffffffffffffffffc36011261023957611768600460406105b9938235815260056020522001613c1c565b6040519182916020835260208301906130bd565b50346102395760407ffffffffffffffffffffffffffffffffffffffffffffffffffffffffffffffffc3601126102395773ffffffffffffffffffffffffffffffffffffffff6004358181168103611a22576117d5613000565b907ff0c57e16840df040f15088dc2f81fe391c3923bec73e23a9662efc9c229c6a009283549260ff8460401c16159367ffffffffffffffff811680159081611a1a575b6001149081611a10575b159081611a07575b506119dd578460017fffffffffffffffffffffffffffffffffffffffffffffffff000000000000000083161787556119a8575b5060ff855460401c161561197e576303e80000927fffffffffffffffffffffffffffffffffffffffffffffffffffffffff0000ffff926101f4926118a03361322e565b506118aa3361330b565b50167fffffffffffffffffffffffff000000000000000000000000000000000000000060035416176003557fffffffffffffffff0000000000000000000000000000000000000000ffff000077ffffffffffffffffffffffffffffffffffffffff000000008854928960025560201b16911617171617835561192a575080f35b7fffffffffffffffffffffffffffffffffffffffffffffff00ffffffffffffffff81541690557fc7f505b2f371ae2175ee4913f4499e1f2633a7b5936321eed1cdaeb6115181d2602060405160018152a180f35b60046040517fd7e6bcf8000000000000000000000000000000000000000000000000000000008152fd5b7fffffffffffffffffffffffffffffffffffffffffffffff00000000000000000016680100000000000000011785553861185d565b60046040517ff92ee8a9000000000000000000000000000000000000000000000000000000008152fd5b9050153861182a565b303b159150611822565b869150611818565b600080fd5b503461023957611a3636613089565b90808352600560205273ffffffffffffffffffffffffffffffffffffffff60016040852001541633036102e95760028211611a7a578252600a602052604082205580f35b60046040517fc6557b2d000000000000000000000000000000000000000000000000000000008152fd5b50346102395760207ffffffffffffffffffffffffffffffffffffffffffffffffffffffffffffffffc360112610239576004359060045482101561023957602073ffffffffffffffffffffffffffffffffffffffff611b0284613023565b9190546040519260031b1c168152f35b503461023957807ffffffffffffffffffffffffffffffffffffffffffffffffffffffffffffffffc36011261023957602073ffffffffffffffffffffffffffffffffffffffff60035416604051908152f35b50346102395760207ffffffffffffffffffffffffffffffffffffffffffffffffffffffffffffffffc3601126102395760406020916004358152600683522054604051908152f35b503461023957807ffffffffffffffffffffffffffffffffffffffffffffffffffffffffffffffffc36011261023957611be3613178565b8080808047335af1611bf36136e3565b50156102395780f35b50346102395760407ffffffffffffffffffffffffffffffffffffffffffffffffffffffffffffffffc36011261023957611c34613000565b3373ffffffffffffffffffffffffffffffffffffffff821603611c5d576106d6906004356134cf565b60046040517f6697b232000000000000000000000000000000000000000000000000000000008152fd5b50346102395760407ffffffffffffffffffffffffffffffffffffffffffffffffffffffffffffffffc360112610239576106d6600435611cc5613000565b908084527f02dd7bc7dec4dceedda775e58dd541e08a116c6c53815c0bd028192f7b626800602052611cfd60016040862001546131e9565b61340a565b5060607ffffffffffffffffffffffffffffffffffffffffffffffffffffffffffffffffc3601126102395760043560243567ffffffffffffffff8111611ff05736602382011215611ff057806004013591611d5c83612fe8565b91611d6a6040519384612e84565b83835260209360248585019160051b83010191368311610b54576024869101915b838310611fe0575050505060443591611da2613675565b82156104ab57611db182613b6f565b610481578185526005845260026040862001549063ffffffff9182808260a01c169160c01c161461045757828652600a855260408620549081158015611fd6575b15611e215760046040517fcdf73d6f000000000000000000000000000000000000000000000000000000008152fd5b6001809214611e58575b50505050505060017f9b779b17422d0df92223018b32b4d1fa46e071723d6817e2486d003becc55f005580f35b60405186810190338252878152611e6e81612e68565b519020604051878101918252878152611e8681612e68565b5190209184885260088752806040892054939289925b611f85575b50505003611f5b5781855260058452611ec68382600260408920015460c01c16613668565b9082865260058552600260408720015460a01c16106103f8578084526007835260408420336000528352611eff82604060002054613668565b81855260068452604085205410611f3157600b611f2693828652526103cb60408520612ec5565b388080808080611e2b565b60046040517fc7ad0cad000000000000000000000000000000000000000000000000000000008152fd5b60046040517fcb8944bc000000000000000000000000000000000000000000000000000000008152fd5b9091928151841015611fd057611f9b84836136cf565b519081811015611fbf578a528852611fb760408a205b9361362e565b919081611e9c565b908a528852611fb760408a20611fb1565b92611ea1565b5060028214611df2565b8235815291810191869101611d8b565b8280fd5b50346102395760207ffffffffffffffffffffffffffffffffffffffffffffffffffffffffffffffffc360112610239576001604060209260043581527f02dd7bc7dec4dceedda775e58dd541e08a116c6c53815c0bd028192f7b6268008452200154604051908152f35b503461023957807ffffffffffffffffffffffffffffffffffffffffffffffffffffffffffffffffc360112610239576020600254604051908152f35b50346102395760207ffffffffffffffffffffffffffffffffffffffffffffffffffffffffffffffffc36011261023957604090600435815260056020522080546105b973ffffffffffffffffffffffffffffffffffffffff806001850154169361210b600360028301549201612ec5565b91604051958695865260208601528116604085015263ffffffff90818160a01c16606086015260c01c16608084015260c060a084015260c0830190612f8a565b5034610239576101207ffffffffffffffffffffffffffffffffffffffffffffffffffffffffffffffffc3601126102395760043567ffffffffffffffff81116113cb5761219c903690600401612d77565b909160243567ffffffffffffffff81116113cb576121be903690600401612d77565b91909260443567ffffffffffffffff8111611ff0576121e1903690600401612d77565b9490956064359561ffff918288168803612cb55760a435918383168303610b545760c435918483168303612cb15760e43567ffffffffffffffff8111612c255761222f903690600401612d77565b96909767ffffffffffffffff6101043511610c765736602361010435011215610c765767ffffffffffffffff610104356004013511610c7657366024610104356004013560051b61010435010111610c765786861615612c87576122a092612298913691613141565b993691613141565b978051151580612c7d575b15612c53576e5af43d82803e903d91602b57fd5bf37fffffffffffffffffffffffffffffffffff000000000000000000000000000000600354763d602d80600a3d3981f3363d3d373d3d3d363d7300000062ffffff8260881c16178b5260781b161760205273ffffffffffffffffffffffffffffffffffffffff603760098af016998a15612c29578a3b15612c2557888a8c88836123c095604051968795869485937f35156a7a00000000000000000000000000000000000000000000000000000000855233600486015216602484015260a0604484015261239060a484018b612f8a565b907ffffffffffffffffffffffffffffffffffffffffffffffffffffffffffffffffc848303016064850152612f8a565b33608483015203925af18015612c1a57612c07575b506004546801000000000000000081101561110157908a61241d8360017fdc6fd84d0601163cd47b31cf21257f56a74dfc566a31fea15ba3743f53e4655c9501600455613023565b73ffffffffffffffffffffffffffffffffffffffff829392549160031b92831b921b19161790557ff080e589a49942bdb301617e222a6e18dbc34429e147b1e114f99aae1c0f308a604080513381528d6020820152a16001546124b76124828261362e565b9b8c6001556124a96040519485948552336020860152608060408601526080850190612f8a565b908382036060850152612f8a565b0390a1877fffffffffffffffffffffffffffffffffffffffffffffffffffffffffffffffff810111612bda577fffffffffffffffffffffffffffffffffffffffffffffffffffffffffffffffff88018752600b602052604087209067ffffffffffffffff8111612bad576125358161252f8454612db6565b846135a7565b87601f8211600114612ae3579080869493928a9b9c9d6125e79b92612ad8575b50507fffffffffffffffffffffffffffffffffffffffffffffffffffffffffffffffff8260011b9260031b1c19161790555b7fffffffffffffffffffffffffffffffffffffffffffffffffffffffffffffffff890188526006602052166040872055604051976125c489612e4c565b60843589523360208a015260408901521660608701528360808701523691613141565b60a08401526125fc6101043560040135612fe8565b6126096040519182612e84565b6101043560048101358252602401602082015b6024610104356004013560051b6101043501018210612abc57505060c08401527fffffffffffffffffffffffffffffffffffffffffffffffffffffffffffffffff82018152600560205260408120835181556001810173ffffffffffffffffffffffffffffffffffffffff6020860151167fffffffffffffffffffffffff00000000000000000000000000000000000000008254161790556127796002820173ffffffffffffffffffffffffffffffffffffffff6040870151168154907fffffffffffffffff00000000000000000000000000000000000000000000000077ffffffff000000000000000000000000000000000000000060608a015160a01b1692161717815563ffffffff6080870151167fffffffff00000000ffffffffffffffffffffffffffffffffffffffffffffffff7bffffffff00000000000000000000000000000000000000000000000083549260c01b169116179055565b6003810160a085015180519067ffffffffffffffff8211612a8f576127a8826127a28554612db6565b856135a7565b602090601f83116001146129e95791806004949260c0969488926129de575b50507fffffffffffffffffffffffffffffffffffffffffffffffffffffffffffffffff8260011b9260031b1c19161790555b0193015180519067ffffffffffffffff82116129b1576801000000000000000082116129b157602090855483875580841061292a575b5001938252602082208160051c91835b8381106128eb57507fffffffffffffffffffffffffffffffffffffffffffffffffffffffffffffffe0811690038061289f575b6020857fffffffffffffffffffffffffffffffffffffffffffffffffffffffffffffffff60405191018152f35b9483955b8087106128bb57505060209450015538808080612872565b909360206128e06001928960ff895116919060ff809160031b9316831b921b19161790565b9501960195906128a3565b84855b6020811061290357508382015560010161283f565b885190989160019160209160ff60038d901b81811b199092169216901b17920198016128ee565b61295490878652838620601f80870160051c8201928188168061295a575b500160051c0190613590565b3861282f565b7fffffffffffffffffffffffffffffffffffffffffffffffffffffffffffffffff8501907fffffffffffffffffffffffffffffffffffffffffffffffffffffffffffffffff8254918a0360031b1c16905538612948565b6024837f4e487b710000000000000000000000000000000000000000000000000000000081526041600452fd5b0151905038806127c7565b8386526020862091907fffffffffffffffffffffffffffffffffffffffffffffffffffffffffffffffe08416875b818110612a77575092600192859260c098966004989610612a40575b505050811b0190556127f9565b01517fffffffffffffffffffffffffffffffffffffffffffffffffffffffffffffffff60f88460031b161c19169055388080612a33565b92936020600181928786015181550195019301612a17565b6024857f4e487b710000000000000000000000000000000000000000000000000000000081526041600452fd5b60ff823516823503610bc557813581526020918201910161261c565b013590503880612555565b8289526020892090895b7fffffffffffffffffffffffffffffffffffffffffffffffffffffffffffffffe084168110612b955750916001916125e79a9b9c9d88969594837fffffffffffffffffffffffffffffffffffffffffffffffffffffffffffffffe0811610612b5d575b505050811b019055612587565b7fffffffffffffffffffffffffffffffffffffffffffffffffffffffffffffffff60f88560031b161c19910135169055388080612b50565b8d820135835560019092019160209182019101612aed565b6024887f4e487b710000000000000000000000000000000000000000000000000000000081526041600452fd5b6024877f4e487b710000000000000000000000000000000000000000000000000000000081526011600452fd5b612c1390989198612e09565b96386123d5565b6040513d8b823e3d90fd5b8880fd5b60046040517fc2f868f4000000000000000000000000000000000000000000000000000000008152fd5b60046040517f6e9d2acb000000000000000000000000000000000000000000000000000000008152fd5b50885115156122ab565b60046040517fa9746d32000000000000000000000000000000000000000000000000000000008152fd5b8780fd5b8580fd5b9050346113cb5760207ffffffffffffffffffffffffffffffffffffffffffffffffffffffffffffffffc3601126113cb576004357fffffffff000000000000000000000000000000000000000000000000000000008116809103611ff057602092507f7965db0b000000000000000000000000000000000000000000000000000000008114908115612d4d575b5015158152f35b7f01ffc9a70000000000000000000000000000000000000000000000000000000091501438612d46565b9181601f84011215611a225782359167ffffffffffffffff8311611a225760208381860195010111611a2257565b6004359061ffff82168203611a2257565b90600182811c92168015612dff575b6020831014612dd057565b7f4e487b7100000000000000000000000000000000000000000000000000000000600052602260045260246000fd5b91607f1691612dc5565b67ffffffffffffffff8111612e1d57604052565b7f4e487b7100000000000000000000000000000000000000000000000000000000600052604160045260246000fd5b60e0810190811067ffffffffffffffff821117612e1d57604052565b6040810190811067ffffffffffffffff821117612e1d57604052565b90601f7fffffffffffffffffffffffffffffffffffffffffffffffffffffffffffffffe0910116810190811067ffffffffffffffff821117612e1d57604052565b9060405191826000825492612ed984612db6565b908184526001948581169081600014612f485750600114612f05575b5050612f0392500383612e84565b565b9093915060005260209081600020936000915b818310612f30575050612f0393508201013880612ef5565b85548884018501529485019487945091830191612f18565b9050612f039550602093507fffffffffffffffffffffffffffffffffffffffffffffffffffffffffffffff0091501682840152151560051b8201013880612ef5565b919082519283825260005b848110612fd45750507fffffffffffffffffffffffffffffffffffffffffffffffffffffffffffffffe0601f8460006020809697860101520116010190565b602081830181015184830182015201612f95565b67ffffffffffffffff8111612e1d5760051b60200190565b6024359073ffffffffffffffffffffffffffffffffffffffff82168203611a2257565b60045481101561305a5760046000527f8a35acfbc15ff81a39ae7d344fd709f28e8600b4aa8c65c6b64bfe7fe36bd19b0190600090565b7f4e487b7100000000000000000000000000000000000000000000000000000000600052603260045260246000fd5b7ffffffffffffffffffffffffffffffffffffffffffffffffffffffffffffffffc6040910112611a22576004359060243590565b90815180825260208080930193019160005b8281106130dd575050505090565b835160ff16855293810193928101926001016130cf565b6024359063ffffffff82168203611a2257565b67ffffffffffffffff8111612e1d57601f017fffffffffffffffffffffffffffffffffffffffffffffffffffffffffffffffe01660200190565b92919261314d82613107565b9161315b6040519384612e84565b829481845281830111611a22578281602093846000960137010152565b3360009081527fb7db2dd08fcb62d0c9e08c51941cae53c267786a0b75803fb7960902fc8ef97d602052604081205460ff16156131b25750565b604490604051907fe2517d3f0000000000000000000000000000000000000000000000000000000082523360048301526024820152fd5b806000527f02dd7bc7dec4dceedda775e58dd541e08a116c6c53815c0bd028192f7b62680060205260406000203360005260205260ff60406000205416156131b25750565b73ffffffffffffffffffffffffffffffffffffffff1660008181527fb7db2dd08fcb62d0c9e08c51941cae53c267786a0b75803fb7960902fc8ef97d60205260408120549091907f02dd7bc7dec4dceedda775e58dd541e08a116c6c53815c0bd028192f7b6268009060ff1661330657828052602052604082208183526020526040822060017fffffffffffffffffffffffffffffffffffffffffffffffffffffffffffffff0082541617905533917f2f8788117e7eff1d82e926ec794901d17c78024a50270940304540a733656f0d8180a4600190565b505090565b73ffffffffffffffffffffffffffffffffffffffff1660008181527f75442b0a96088b5456bc4ed01394c96a4feec0f883c9494257d76b96ab1c9b6b60205260408120549091907f65d7a28e3265b37a6474929f336521b332c1681b933f6cb9f3376673440d862a907f02dd7bc7dec4dceedda775e58dd541e08a116c6c53815c0bd028192f7b6268009060ff1661340457818452602052604083208284526020526040832060017fffffffffffffffffffffffffffffffffffffffffffffffffffffffffffffff008254161790557f2f8788117e7eff1d82e926ec794901d17c78024a50270940304540a733656f0d339380a4600190565b50505090565b906000918083527f02dd7bc7dec4dceedda775e58dd541e08a116c6c53815c0bd028192f7b6268008060205273ffffffffffffffffffffffffffffffffffffffff6040852093169283855260205260ff6040852054161560001461340457818452602052604083208284526020526040832060017fffffffffffffffffffffffffffffffffffffffffffffffffffffffffffffff008254161790557f2f8788117e7eff1d82e926ec794901d17c78024a50270940304540a733656f0d339380a4600190565b906000918083527f02dd7bc7dec4dceedda775e58dd541e08a116c6c53815c0bd028192f7b6268008060205273ffffffffffffffffffffffffffffffffffffffff6040852093169283855260205260ff6040852054166000146134045781845260205260408320828452602052604083207fffffffffffffffffffffffffffffffffffffffffffffffffffffffffffffff0081541690557ff6391f5c32d9c69d2a47ea670b442974b53935d1edc7fd64eb21e047a839171b339380a4600190565b81811061359b575050565b60008155600101613590565b9190601f81116135b657505050565b612f03926000526020600020906020601f840160051c830193106135e2575b601f0160051c0190613590565b90915081906135d5565b818102929181159184041417156135ff57565b7f4e487b7100000000000000000000000000000000000000000000000000000000600052601160045260246000fd5b7fffffffffffffffffffffffffffffffffffffffffffffffffffffffffffffffff81146135ff5760010190565b919082039182116135ff57565b919082018092116135ff57565b7f9b779b17422d0df92223018b32b4d1fa46e071723d6817e2486d003becc55f0060028154146136a55760029055565b60046040517f3ee5aeb5000000000000000000000000000000000000000000000000000000008152fd5b805182101561305a5760209160051b010190565b3d1561370e573d906136f482613107565b916137026040519384612e84565b82523d6000602084013e565b606090565b91909163ffffffff808094169116019182116135ff57565b600091818352600560209281845260409384926137a48861379f868a205461378b8b613786815461271061377461ffff826137688286168a6135ec565b049360101c16876135ec565b049d838f948d90528a8c52205461365b565b61365b565b878c5260098752888c205560025490613668565b6135ec565b3410613b2b5787908388528083528780808073ffffffffffffffffffffffffffffffffffffffff9a6137e06001978d898d8620015416926135ec565b905af16137eb6136e3565b5015613b0257878080808c6138108c83548a1c16918a845260098a528b8420546135ec565b905af161381b6136e3565b5015613ad957969083825287835263ffffffff97886002878520015460c01c16986138458b612fe8565b9961385288519b8c612e84565b8b8b5261385e8c612fe8565b997fffffffffffffffffffffffffffffffffffffffffffffffffffffffffffffffe0878d019b01368c37855b8d81106139b857505050906138e661393f928786526007875288862033875287526138b88d8a882054613668565b888752600788528987203388528852898720558786528287528060028a8820015460c01c16908d1690613713565b908685528552600287852001907fffffffff00000000ffffffffffffffffffffffffffffffffffffffffffffffff7bffffffff00000000000000000000000000000000000000000000000083549260c01b169116179055565b845197608089019060808a525180915260a0890197925b8181106139a55750505050850152838303908401527f1e7e5b16f28a5f35d8e4aae5800aa79e3ca4ab306af9384c61146d734b7f825e929161399791612f8a565b9260608201528033930390a2565b8351895297840197928401928201613956565b6139c681849e97989e613668565b6139d082886136cf565b526139db8184613668565b6139fe818b600052600560205263ffffffff60026040600020015460a01c161190565b15613ab05782613a0d8b613023565b90549060031b1c1690813b15613aac578c8f9192613a6d93838f518096819582947fcd279c7c0000000000000000000000000000000000000000000000000000000084523260048501526024840152606060448401526064830190612f8a565b03925af18015613aa05790613a889291613a91575b5061362e565b9b95949b61388a565b613a9a90612e09565b38613a82565b8e8c51903d90823e3d90fd5b8e80fd5b60048b517f101d742a000000000000000000000000000000000000000000000000000000008152fd5b600485517f282ed401000000000000000000000000000000000000000000000000000000008152fd5b600485517f29c74c41000000000000000000000000000000000000000000000000000000008152fd5b600484517f71863311000000000000000000000000000000000000000000000000000000008152fd5b91909163ffffffff808094169116029182169182036135ff57565b60206004613b9173ffffffffffffffffffffffffffffffffffffffff93613023565b9190549160405194859384927f303bdd2c00000000000000000000000000000000000000000000000000000000845260031b1c165afa908115613c1057600091613bd9575090565b6020813d8211613c08575b81613bf160209383612e84565b810103126113cb5751908115158203610239575090565b3d9150613be4565b6040513d6000823e3d90fd5b90604051918281549182825260209081830190600052816000206000905b85601f8301106140085794612f0395549184828210613ff5575b828210613fdf575b828210613fc9575b828210613fb3575b828210613f9e575b828210613f88575b828210613f72575b828210613f5c575b828210613f46575b828210613f30575b828210613f1a575b828210613f04575b828210613eee575b828210613ed8575b828210613ec2575b828210613eac575b828210613e96575b828210613e80575b828210613e6a575b828210613e54575b828210613e3e575b828210613e28575b828210613e12575b828210613dfc575b828210613de6575b828210613dd0575b828210613dba575b828210613da4575b828210613d8e575b828210613d78575b828210613d62575b5010613d55575b5090500383612e84565b60f81c8152018038613d4b565b6001919460ff8560f01c16815201930184613d44565b6001919460ff8560e81c16815201930184613d3c565b6001919460ff8560e01c16815201930184613d34565b6001919460ff8560d81c16815201930184613d2c565b6001919460ff8560d01c16815201930184613d24565b6001919460ff8560c81c16815201930184613d1c565b6001919460ff8560c01c16815201930184613d14565b6001919460ff8560b81c16815201930184613d0c565b6001919460ff8560b01c16815201930184613d04565b6001919460ff8560a81c16815201930184613cfc565b6001919460ff8560a01c16815201930184613cf4565b6001919460ff8560981c16815201930184613cec565b6001919460ff8560901c16815201930184613ce4565b6001919460ff8560881c16815201930184613cdc565b6001919460ff8560801c16815201930184613cd4565b6001919460ff8560781c16815201930184613ccc565b6001919460ff8560701c16815201930184613cc4565b6001919460ff8560681c16815201930184613cbc565b6001919460ff8560601c16815201930184613cb4565b6001919460ff8560581c16815201930184613cac565b6001919460ff8560501c16815201930184613ca4565b6001919460ff8560481c16815201930184613c9c565b6001919460ff8560401c16815201930184613c94565b6001919460ff8560381c16815201930184613c8c565b6001919460ff8560301c16815201930184613c84565b6001919460ff8560281c16815201930184613c7c565b6001919460ff85831c16815201930184613c74565b6001919460ff8560181c16815201930184613c6c565b6001919460ff8560101c16815201930184613c64565b6001919460ff8560081c16815201930184613c5c565b6001919460ff8516815201930184613c54565b9350916001610400829693865460ff8116825260ff8160081c168583015260ff8160101c16604083015260ff816060828260181c16818601528282608082828c1c1681890152828260a092828260281c16848c0152828260c0988d8a848460301c169101528d60e0848460381c169101528d610100848460401c169101528d610120848460481c169101528d610140848460501c169101528d610160848460581c169101521c166101808c0152828260681c166101a08c0152828260701c166101c08c0152828260781c166101e08c01521c16610200890152828260881c16610220890152828260901c16610240890152828260981c166102608901521c16610280860152828260a81c166102a0860152828260b01c166102c0860152828260b81c166102e08601521c1661030083015260ff8160c81c1661032083015260ff8160d01c1661034083015260ff8160d81c1661036083015260ff8160e01c1661038083015260ff8160e81c166103a083015260ff8160f01c166103c083015260f81c6103e082015201940192018693919492613c3a565b6040908151906141ae82612e4c565b606060c0600093848152846020820152848682015284838201528460808201528260a0820152015281526005602052206142536004604051926141f084612e4c565b8054845273ffffffffffffffffffffffffffffffffffffffff8060018301541660208601526002820154908116604086015263ffffffff90818160a01c16606087015260c01c16608085015261424860038201612ec5565b60a085015201613c1c565b60c082015290565b600090808252600560205261428a63ffffffff600260408520015460c01c1660096020526040842054906135ec565b908252600560205260046040832001549182156142a657500490565b807f4e487b7100000000000000000000000000000000000000000000000000000000602492526012600452fdfea164736f6c6343000814000a","linkReferences":{}},"methodIdentifiers":{"DEFAULT_ADMIN_ROLE()":"a217fddf","PAUSER_ROLE()":"e63ab1e9","advance_creator()":"c9d080bf","blockContract(uint256)":"541439c3","buySubscription(uint256,uint256)":"f42dcdf8","buySubscriptionWhitelist(uint256,bytes32[],uint256)":"24bb19a7","contractBase()":"45f14231","contracts(uint256)":"474da79a","createProject(string,string,string,uint16,uint256,uint16,uint16,string,uint8[])":"0d371c3d","getPayablePerReward(uint256)":"dc0f12e1","getProject(uint256)":"f0f3f2c8","getRoleAdmin(bytes32)":"248a9ca3","getTypeRewards(uint256)":"4e84397d","grantRole(bytes32,address)":"2f2ff15d","hasRole(bytes32,address)":"91d14854","indexToCID(uint256,uint256)":"acd72479","initialize(address,address)":"485cc955","isBlocked(uint256)":"b0aa98c7","maxMint(uint256)":"3d9e67ec","mintFee()":"13966db5","mintRewardNFT(uint256,uint32,uint256)":"a3a2c1aa","nftsMinted(uint256,address)":"66df2815","platform_fee()":"cfb551a4","podPayments()":"666c5c6e","projects(uint256)":"107046bd","projectsCounter()":"fe360ea5","renounceRole(bytes32,address)":"36568abe","revokeRole(bytes32,address)":"d547741f","rewardSubmitted(uint256,uint32)":"87e2254c","setAdvanceCreator(uint16)":"ff4468ef","setFees(uint16)":"ca1123c2","setValid(uint256,uint32,uint256[],string[])":"97573cae","setWhitelist(uint256,bytes32)":"f9bc27c5","setWhitelistStatus(uint256,uint256)":"47b5c893","supportsInterface(bytes4)":"01ffc9a7","updateMintFee(uint256)":"84017e52","whitelistStatus(uint256)":"7f1035ff","withdraw()":"3ccfd60b"},"storageLayout":{"storage":[{"astId":59675,"contract":"src/SubscriptionManagementV2.sol:SubscriptionManagementV2","label":"platform_fee","offset":0,"slot":"0","type":"t_uint16"},{"astId":59677,"contract":"src/SubscriptionManagementV2.sol:SubscriptionManagementV2","label":"advance_creator","offset":2,"slot":"0","type":"t_uint16"},{"astId":59679,"contract":"src/SubscriptionManagementV2.sol:SubscriptionManagementV2","label":"podPayments","offset":4,"slot":"0","type":"t_address_payable"},{"astId":59681,"contract":"src/SubscriptionManagementV2.sol:SubscriptionManagementV2","label":"projectsCounter","offset":0,"slot":"1","type":"t_uint256"},{"astId":59683,"contract":"src/SubscriptionManagementV2.sol:SubscriptionManagementV2","label":"mintFee","offset":0,"slot":"2","type":"t_uint256"},{"astId":59690,"contract":"src/SubscriptionManagementV2.sol:SubscriptionManagementV2","label":"contractBase","offset":0,"slot":"3","type":"t_address"},{"astId":59694,"contract":"src/SubscriptionManagementV2.sol:SubscriptionManagementV2","label":"contracts","offset":0,"slot":"4","type":"t_array(t_contract(Rewards1167)59653)dyn_storage"},{"astId":59716,"contract":"src/SubscriptionManagementV2.sol:SubscriptionManagementV2","label":"projects","offset":0,"slot":"5","type":"t_mapping(t_uint256,t_struct(ProjectInfo)59711_storage)"},{"astId":59720,"contract":"src/SubscriptionManagementV2.sol:SubscriptionManagementV2","label":"maxMint","offset":0,"slot":"6","type":"t_mapping(t_uint256,t_uint256)"},{"astId":59726,"contract":"src/SubscriptionManagementV2.sol:SubscriptionManagementV2","label":"nftsMinted","offset":0,"slot":"7","type":"t_mapping(t_uint256,t_mapping(t_address,t_uint256))"},{"astId":59730,"contract":"src/SubscriptionManagementV2.sol:SubscriptionManagementV2","label":"whitelistMerkleRoot","offset":0,"slot":"8","type":"t_mapping(t_uint256,t_bytes32)"},{"astId":59734,"contract":"src/SubscriptionManagementV2.sol:SubscriptionManagementV2","label":"owner_rev","offset":0,"slot":"9","type":"t_mapping(t_uint256,t_uint256)"},{"astId":59738,"contract":"src/SubscriptionManagementV2.sol:SubscriptionManagementV2","label":"whitelistStatus","offset":0,"slot":"10","type":"t_mapping(t_uint256,t_uint256)"},{"astId":59742,"contract":"src/SubscriptionManagementV2.sol:SubscriptionManagementV2","label":"_subscriptionCIDs","offset":0,"slot":"11","type":"t_mapping(t_uint256,t_string_storage)"},{"astId":59748,"contract":"src/SubscriptionManagementV2.sol:SubscriptionManagementV2","label":"rewardSubmitted","offset":0,"slot":"12","type":"t_mapping(t_uint256,t_mapping(t_uint32,t_bool))"},{"astId":59754,"contract":"src/SubscriptionManagementV2.sol:SubscriptionManagementV2","label":"indexToCID","offset":0,"slot":"13","type":"t_mapping(t_uint256,t_mapping(t_uint256,t_string_storage))"},{"astId":59760,"contract":"src/SubscriptionManagementV2.sol:SubscriptionManagementV2","label":"rewardCounter","offset":0,"slot":"14","type":"t_mapping(t_uint256,t_mapping(t_uint32,t_uint256))"},{"astId":59768,"contract":"src/SubscriptionManagementV2.sol:SubscriptionManagementV2","label":"userMintedRewards","offset":0,"slot":"15","type":"t_mapping(t_uint256,t_mapping(t_uint256,t_mapping(t_uint256,t_bool)))"}],"types":{"t_address":{"encoding":"inplace","label":"address","numberOfBytes":"20"},"t_address_payable":{"encoding":"inplace","label":"address payable","numberOfBytes":"20"},"t_array(t_contract(Rewards1167)59653)dyn_storage":{"encoding":"dynamic_array","label":"contract Rewards1167[]","numberOfBytes":"32","base":"t_contract(Rewards1167)59653"},"t_array(t_uint8)dyn_storage":{"encoding":"dynamic_array","label":"uint8[]","numberOfBytes":"32","base":"t_uint8"},"t_bool":{"encoding":"inplace","label":"bool","numberOfBytes":"1"},"t_bytes32":{"encoding":"inplace","label":"bytes32","numberOfBytes":"32"},"t_contract(Rewards1167)59653":{"encoding":"inplace","label":"contract Rewards1167","numberOfBytes":"20"},"t_mapping(t_address,t_uint256)":{"encoding":"mapping","key":"t_address","label":"mapping(address => uint256)","numberOfBytes":"32","value":"t_uint256"},"t_mapping(t_uint256,t_bool)":{"encoding":"mapping","key":"t_uint256","label":"mapping(uint256 => bool)","numberOfBytes":"32","value":"t_bool"},"t_mapping(t_uint256,t_bytes32)":{"encoding":"mapping","key":"t_uint256","label":"mapping(uint256 => bytes32)","numberOfBytes":"32","value":"t_bytes32"},"t_mapping(t_uint256,t_mapping(t_address,t_uint256))":{"encoding":"mapping","key":"t_uint256","label":"mapping(uint256 => mapping(address => uint256))","numberOfBytes":"32","value":"t_mapping(t_address,t_uint256)"},"t_mapping(t_uint256,t_mapping(t_uint256,t_bool))":{"encoding":"mapping","key":"t_uint256","label":"mapping(uint256 => mapping(uint256 => bool))","numberOfBytes":"32","value":"t_mapping(t_uint256,t_bool)"},"t_mapping(t_uint256,t_mapping(t_uint256,t_mapping(t_uint256,t_bool)))":{"encoding":"mapping","key":"t_uint256","label":"mapping(uint256 => mapping(uint256 => mapping(uint256 => bool)))","numberOfBytes":"32","value":"t_mapping(t_uint256,t_mapping(t_uint256,t_bool))"},"t_mapping(t_uint256,t_mapping(t_uint256,t_string_storage))":{"encoding":"mapping","key":"t_uint256","label":"mapping(uint256 => mapping(uint256 => string))","numberOfBytes":"32","value":"t_mapping(t_uint256,t_string_storage)"},"t_mapping(t_uint256,t_mapping(t_uint32,t_bool))":{"encoding":"mapping","key":"t_uint256","label":"mapping(uint256 => mapping(uint32 => bool))","numberOfBytes":"32","value":"t_mapping(t_uint32,t_bool)"},"t_mapping(t_uint256,t_mapping(t_uint32,t_uint256))":{"encoding":"mapping","key":"t_uint256","label":"mapping(uint256 => mapping(uint32 => uint256))","numberOfBytes":"32","value":"t_mapping(t_uint32,t_uint256)"},"t_mapping(t_uint256,t_string_storage)":{"encoding":"mapping","key":"t_uint256","label":"mapping(uint256 => string)","numberOfBytes":"32","value":"t_string_storage"},"t_mapping(t_uint256,t_struct(ProjectInfo)59711_storage)":{"encoding":"mapping","key":"t_uint256","label":"mapping(uint256 => struct SubscriptionManagementV2.ProjectInfo)","numberOfBytes":"32","value":"t_struct(ProjectInfo)59711_storage"},"t_mapping(t_uint256,t_uint256)":{"encoding":"mapping","key":"t_uint256","label":"mapping(uint256 => uint256)","numberOfBytes":"32","value":"t_uint256"},"t_mapping(t_uint32,t_bool)":{"encoding":"mapping","key":"t_uint32","label":"mapping(uint32 => bool)","numberOfBytes":"32","value":"t_bool"},"t_mapping(t_uint32,t_uint256)":{"encoding":"mapping","key":"t_uint32","label":"mapping(uint32 => uint256)","numberOfBytes":"32","value":"t_uint256"},"t_string_storage":{"encoding":"bytes","label":"string","numberOfBytes":"32"},"t_struct(ProjectInfo)59711_storage":{"encoding":"inplace","label":"struct SubscriptionManagementV2.ProjectInfo","numberOfBytes":"160","members":[{"astId":59697,"contract":"src/SubscriptionManagementV2.sol:SubscriptionManagementV2","label":"price","offset":0,"slot":"0","type":"t_uint256"},{"astId":59699,"contract":"src/SubscriptionManagementV2.sol:SubscriptionManagementV2","label":"projectOwner","offset":0,"slot":"1","type":"t_address"},{"astId":59701,"contract":"src/SubscriptionManagementV2.sol:SubscriptionManagementV2","label":"nftContract","offset":0,"slot":"2","type":"t_address"},{"astId":59703,"contract":"src/SubscriptionManagementV2.sol:SubscriptionManagementV2","label":"maxBuyers","offset":20,"slot":"2","type":"t_uint32"},{"astId":59705,"contract":"src/SubscriptionManagementV2.sol:SubscriptionManagementV2","label":"currentBuyers","offset":24,"slot":"2","type":"t_uint32"},{"astId":59707,"contract":"src/SubscriptionManagementV2.sol:SubscriptionManagementV2","label":"backendId","offset":0,"slot":"3","type":"t_string_storage"},{"astId":59710,"contract":"src/SubscriptionManagementV2.sol:SubscriptionManagementV2","label":"rewards","offset":0,"slot":"4","type":"t_array(t_uint8)dyn_storage"}]},"t_uint16":{"encoding":"inplace","label":"uint16","numberOfBytes":"2"},"t_uint256":{"encoding":"inplace","label":"uint256","numberOfBytes":"32"},"t_uint32":{"encoding":"inplace","label":"uint32","numberOfBytes":"4"},"t_uint8":{"encoding":"inplace","label":"uint8","numberOfBytes":"1"}}},"id":79}