{"abi":[{"type":"constructor","inputs":[],"stateMutability":"nonpayable"},{"type":"function","name":"DEFAULT_ADMIN_ROLE","inputs":[],"outputs":[{"name":"","type":"bytes32","internalType":"bytes32"}],"stateMutability":"view"},{"type":"function","name":"PAUSER_ROLE","inputs":[],"outputs":[{"name":"","type":"bytes32","internalType":"bytes32"}],"stateMutability":"view"},{"type":"function","name":"advance_creator","inputs":[],"outputs":[{"name":"","type":"uint16","internalType":"uint16"}],"stateMutability":"view"},{"type":"function","name":"blockContract","inputs":[{"name":"projectId","type":"uint256","internalType":"uint256"}],"outputs":[],"stateMutability":"nonpayable"},{"type":"function","name":"buySubscription","inputs":[{"name":"projectId","type":"uint256","internalType":"uint256"},{"name":"mintAmount","type":"uint256","internalType":"uint256"}],"outputs":[],"stateMutability":"payable"},{"type":"function","name":"buySubscriptionWhitelist","inputs":[{"name":"projectId","type":"uint256","internalType":"uint256"},{"name":"_proof","type":"bytes32[]","internalType":"bytes32[]"},{"name":"mintAmount","type":"uint256","internalType":"uint256"}],"outputs":[],"stateMutability":"payable"},{"type":"function","name":"contractBase","inputs":[],"outputs":[{"name":"","type":"address","internalType":"address"}],"stateMutability":"view"},{"type":"function","name":"contracts","inputs":[{"name":"","type":"uint256","internalType":"uint256"}],"outputs":[{"name":"","type":"address","internalType":"contract Rewards1167"}],"stateMutability":"view"},{"type":"function","name":"createProject","inputs":[{"name":"_name","type":"string","internalType":"string"},{"name":"_symbol","type":"string","internalType":"string"},{"name":"_CID","type":"string","internalType":"string"},{"name":"_royalty","type":"uint16","internalType":"uint16"},{"name":"_price","type":"uint256","internalType":"uint256"},{"name":"_maxBuyer","type":"uint16","internalType":"uint16"},{"name":"_maxMint","type":"uint16","internalType":"uint16"},{"name":"_backendId","type":"string","internalType":"string"},{"name":"_rewards","type":"uint8[]","internalType":"uint8[]"}],"outputs":[{"name":"","type":"uint256","internalType":"uint256"}],"stateMutability":"nonpayable"},{"type":"function","name":"getPayablePerReward","inputs":[{"name":"_projectId","type":"uint256","internalType":"uint256"}],"outputs":[{"name":"","type":"uint256","internalType":"uint256"}],"stateMutability":"view"},{"type":"function","name":"getProject","inputs":[{"name":"_projectId","type":"uint256","internalType":"uint256"}],"outputs":[{"name":"","type":"tuple","internalType":"struct SubscriptionManagementV2.ProjectInfo","components":[{"name":"price","type":"uint256","internalType":"uint256"},{"name":"projectOwner","type":"address","internalType":"address"},{"name":"nftContract","type":"address","internalType":"address"},{"name":"maxBuyers","type":"uint32","internalType":"uint32"},{"name":"currentBuyers","type":"uint32","internalType":"uint32"},{"name":"backendId","type":"string","internalType":"string"},{"name":"rewards","type":"uint8[]","internalType":"uint8[]"}]}],"stateMutability":"view"},{"type":"function","name":"getRoleAdmin","inputs":[{"name":"role","type":"bytes32","internalType":"bytes32"}],"outputs":[{"name":"","type":"bytes32","internalType":"bytes32"}],"stateMutability":"view"},{"type":"function","name":"getTypeRewards","inputs":[{"name":"_projectId","type":"uint256","internalType":"uint256"}],"outputs":[{"name":"","type":"uint8[]","internalType":"uint8[]"}],"stateMutability":"view"},{"type":"function","name":"grantRole","inputs":[{"name":"role","type":"bytes32","internalType":"bytes32"},{"name":"account","type":"address","internalType":"address"}],"outputs":[],"stateMutability":"nonpayable"},{"type":"function","name":"hasRole","inputs":[{"name":"role","type":"bytes32","internalType":"bytes32"},{"name":"account","type":"address","internalType":"address"}],"outputs":[{"name":"","type":"bool","internalType":"bool"}],"stateMutability":"view"},{"type":"function","name":"indexToCID","inputs":[{"name":"","type":"uint256","internalType":"uint256"},{"name":"","type":"uint256","internalType":"uint256"}],"outputs":[{"name":"","type":"string","internalType":"string"}],"stateMutability":"view"},{"type":"function","name":"initialize","inputs":[{"name":"_payments","type":"address","internalType":"address"},{"name":"baseERC721contract","type":"address","internalType":"address"}],"outputs":[],"stateMutability":"nonpayable"},{"type":"function","name":"isBlocked","inputs":[{"name":"projectId","type":"uint256","internalType":"uint256"}],"outputs":[{"name":"","type":"bool","internalType":"bool"}],"stateMutability":"view"},{"type":"function","name":"maxMint","inputs":[{"name":"","type":"uint256","internalType":"uint256"}],"outputs":[{"name":"","type":"uint256","internalType":"uint256"}],"stateMutability":"view"},{"type":"function","name":"mintRewardNFT","inputs":[{"name":"projectId","type":"uint256","internalType":"uint256"},{"name":"rewardId","type":"uint32","internalType":"uint32"},{"name":"tokenSubscriptionId","type":"uint256","internalType":"uint256"}],"outputs":[],"stateMutability":"nonpayable"},{"type":"function","name":"nftsMinted","inputs":[{"name":"","type":"uint256","internalType":"uint256"},{"name":"","type":"address","internalType":"address"}],"outputs":[{"name":"","type":"uint256","internalType":"uint256"}],"stateMutability":"view"},{"type":"function","name":"platform_fee","inputs":[],"outputs":[{"name":"","type":"uint16","internalType":"uint16"}],"stateMutability":"view"},{"type":"function","name":"podPayments","inputs":[],"outputs":[{"name":"","type":"address","internalType":"address payable"}],"stateMutability":"view"},{"type":"function","name":"projects","inputs":[{"name":"","type":"uint256","internalType":"uint256"}],"outputs":[{"name":"price","type":"uint256","internalType":"uint256"},{"name":"projectOwner","type":"address","internalType":"address"},{"name":"nftContract","type":"address","internalType":"address"},{"name":"maxBuyers","type":"uint32","internalType":"uint32"},{"name":"currentBuyers","type":"uint32","internalType":"uint32"},{"name":"backendId","type":"string","internalType":"string"}],"stateMutability":"view"},{"type":"function","name":"projectsCounter","inputs":[],"outputs":[{"name":"","type":"uint256","internalType":"uint256"}],"stateMutability":"view"},{"type":"function","name":"renounceRole","inputs":[{"name":"role","type":"bytes32","internalType":"bytes32"},{"name":"callerConfirmation","type":"address","internalType":"address"}],"outputs":[],"stateMutability":"nonpayable"},{"type":"function","name":"revokeRole","inputs":[{"name":"role","type":"bytes32","internalType":"bytes32"},{"name":"account","type":"address","internalType":"address"}],"outputs":[],"stateMutability":"nonpayable"},{"type":"function","name":"rewardSubmitted","inputs":[{"name":"","type":"uint256","internalType":"uint256"},{"name":"","type":"uint32","internalType":"uint32"}],"outputs":[{"name":"","type":"bool","internalType":"bool"}],"stateMutability":"view"},{"type":"function","name":"setAdvanceCreator","inputs":[{"name":"_advance_creator","type":"uint16","internalType":"uint16"}],"outputs":[],"stateMutability":"nonpayable"},{"type":"function","name":"setFees","inputs":[{"name":"_platform_fee","type":"uint16","internalType":"uint16"}],"outputs":[],"stateMutability":"nonpayable"},{"type":"function","name":"setValid","inputs":[{"name":"projectId","type":"uint256","internalType":"uint256"},{"name":"rewardId","type":"uint32","internalType":"uint32"},{"name":"nftIds","type":"uint256[]","internalType":"uint256[]"},{"name":"CIDs","type":"string[]","internalType":"string[]"}],"outputs":[],"stateMutability":"nonpayable"},{"type":"function","name":"setWhitelist","inputs":[{"name":"projectId","type":"uint256","internalType":"uint256"},{"name":"_whitelistMerkleRoot","type":"bytes32","internalType":"bytes32"}],"outputs":[],"stateMutability":"nonpayable"},{"type":"function","name":"setWhitelistStatus","inputs":[{"name":"projectId","type":"uint256","internalType":"uint256"},{"name":"status","type":"uint256","internalType":"uint256"}],"outputs":[],"stateMutability":"nonpayable"},{"type":"function","name":"supportsInterface","inputs":[{"name":"interfaceId","type":"bytes4","internalType":"bytes4"}],"outputs":[{"name":"","type":"bool","internalType":"bool"}],"stateMutability":"view"},{"type":"function","name":"whitelistStatus","inputs":[{"name":"","type":"uint256","internalType":"uint256"}],"outputs":[{"name":"","type":"uint256","internalType":"uint256"}],"stateMutability":"view"},{"type":"function","name":"withdraw","inputs":[],"outputs":[],"stateMutability":"nonpayable"},{"type":"event","name":"BoughtSubscription","inputs":[{"name":"buyer","type":"address","indexed":true,"internalType":"address"},{"name":"nftId","type":"uint256[]","indexed":false,"internalType":"uint256[]"},{"name":"projectId","type":"uint256","indexed":false,"internalType":"uint256"},{"name":"cid","type":"string","indexed":false,"internalType":"string"},{"name":"amountMinted","type":"uint256","indexed":false,"internalType":"uint256"}],"anonymous":false},{"type":"event","name":"CreatedProjectAccount","inputs":[{"name":"id","type":"uint256","indexed":false,"internalType":"uint256"},{"name":"artist","type":"address","indexed":false,"internalType":"address"},{"name":"_name","type":"string","indexed":false,"internalType":"string"},{"name":"_symbol","type":"string","indexed":false,"internalType":"string"}],"anonymous":false},{"type":"event","name":"ERC721Created","inputs":[{"name":"owner","type":"address","indexed":false,"internalType":"address"},{"name":"tokenContract","type":"address","indexed":false,"internalType":"address"}],"anonymous":false},{"type":"event","name":"ERC721Minted","inputs":[{"name":"owner","type":"address","indexed":false,"internalType":"address"},{"name":"nftId","type":"uint256","indexed":false,"internalType":"uint256"},{"name":"nftSubscriptionId","type":"uint256","indexed":false,"internalType":"uint256"},{"name":"tokenContract","type":"address","indexed":false,"internalType":"address"},{"name":"amount","type":"uint256","indexed":false,"internalType":"uint256"}],"anonymous":false},{"type":"event","name":"Initialized","inputs":[{"name":"version","type":"uint64","indexed":false,"internalType":"uint64"}],"anonymous":false},{"type":"event","name":"RoleAdminChanged","inputs":[{"name":"role","type":"bytes32","indexed":true,"internalType":"bytes32"},{"name":"previousAdminRole","type":"bytes32","indexed":true,"internalType":"bytes32"},{"name":"newAdminRole","type":"bytes32","indexed":true,"internalType":"bytes32"}],"anonymous":false},{"type":"event","name":"RoleGranted","inputs":[{"name":"role","type":"bytes32","indexed":true,"internalType":"bytes32"},{"name":"account","type":"address","indexed":true,"internalType":"address"},{"name":"sender","type":"address","indexed":true,"internalType":"address"}],"anonymous":false},{"type":"event","name":"RoleRevoked","inputs":[{"name":"role","type":"bytes32","indexed":true,"internalType":"bytes32"},{"name":"account","type":"address","indexed":true,"internalType":"address"},{"name":"sender","type":"address","indexed":true,"internalType":"address"}],"anonymous":false},{"type":"event","name":"SubscriptionAllowlist","inputs":[{"name":"projectId","type":"uint256","indexed":false,"internalType":"uint256"},{"name":"user","type":"address","indexed":false,"internalType":"address"}],"anonymous":false},{"type":"error","name":"AccessControlBadConfirmation","inputs":[]},{"type":"error","name":"AccessControlUnauthorizedAccount","inputs":[{"name":"account","type":"address","internalType":"address"},{"name":"neededRole","type":"bytes32","internalType":"bytes32"}]},{"type":"error","name":"ERC1167FailedCreateClone","inputs":[]},{"type":"error","name":"InvalidInitialization","inputs":[]},{"type":"error","name":"NotInitializing","inputs":[]},{"type":"error","name":"ReentrancyGuardReentrantCall","inputs":[]},{"type":"error","name":"SubscriptionMgmt__BlockContract_AlreadyBlocked","inputs":[]},{"type":"error","name":"SubscriptionMgmt__BuySubscriptionWhitelist_InvalidProof","inputs":[]},{"type":"error","name":"SubscriptionMgmt__BuySubscription_CurrentMintAboveMaxMintAllowed","inputs":[]},{"type":"error","name":"SubscriptionMgmt__BuySubscription_FailedETHCreator","inputs":[]},{"type":"error","name":"SubscriptionMgmt__BuySubscription_FailedETHPayments","inputs":[]},{"type":"error","name":"SubscriptionMgmt__BuySubscription_InvalidAmount0","inputs":[]},{"type":"error","name":"SubscriptionMgmt__BuySubscription_NotEnoughEth","inputs":[]},{"type":"error","name":"SubscriptionMgmt__BuySubscription_NotEnoughNFTsForSale","inputs":[]},{"type":"error","name":"SubscriptionMgmt__BuySubscription_ProjectBlockedFactory","inputs":[]},{"type":"error","name":"SubscriptionMgmt__BuySubscription_SaleNotOpen","inputs":[]},{"type":"error","name":"SubscriptionMgmt__BuySubscription_SoldOut","inputs":[]},{"type":"error","name":"SubscriptionMgmt__BuySubscription_UserMaxMintReach","inputs":[]},{"type":"error","name":"SubscriptionMgmt__CreateProject_InvalidNameOrSymbol","inputs":[]},{"type":"error","name":"SubscriptionMgmt__InvalidNrSubscBuyers","inputs":[]},{"type":"error","name":"SubscriptionMgmt__InvalidSubscriptionNFTId","inputs":[]},{"type":"error","name":"SubscriptionMgmt__MintReward_AlreadyMinted","inputs":[]},{"type":"error","name":"SubscriptionMgmt__MintReward_NonSubscriptor","inputs":[]},{"type":"error","name":"SubscriptionMgmt__MintReward_RewardNotSubmitted","inputs":[]},{"type":"error","name":"SubscriptionMgmt__MintReward_SubscriptionNFTNotValid","inputs":[]},{"type":"error","name":"SubscriptionMgmt__NotProjectOnwer","inputs":[]},{"type":"error","name":"SubscriptionMgmt__setValid_InvalidCIDsLength","inputs":[]},{"type":"error","name":"SubscriptionMgmt__setValid_InvalidNFTIDs","inputs":[]},{"type":"error","name":"SubscriptionMgmt__setValid_InvalidRewardId","inputs":[]},{"type":"error","name":"SubscriptionMgmt__setValid_ProjectNotClosed","inputs":[]},{"type":"error","name":"SubscriptionMgmt__setValid_RewardAlreadyValidated","inputs":[]},{"type":"error","name":"SubscriptionMgmt__setValid_nftIdsNotMatchSubscriptionNr","inputs":[]},{"type":"error","name":"SubscriptionMgmt__setWhitelistStatus_InvalidStatus","inputs":[]}],"bytecode":{"object":"0x60808060405234620000bd577ff0c57e16840df040f15088dc2f81fe391c3923bec73e23a9662efc9c229c6a009081549060ff8260401c16620000ae57506001600160401b036002600160401b03198282160162000068575b6040516141e59081620000c38239f35b6001600160401b031990911681179091556040519081527fc7f505b2f371ae2175ee4913f4499e1f2633a7b5936321eed1cdaeb6115181d290602090a138808062000058565b63f92ee8a960e01b8152600490fd5b600080fdfe608080604052600436101561001357600080fd5b600090813560e01c90816301ffc9a714612c1b575080630d371c3d146120ad578063107046bd14611ffc578063248a9ca314611f9257806324bb19a714611c785780632f2ff15d14611bfd57806336568abe14611b725780633ccfd60b14611b225780633d9e67ec14611ada57806345f1423114611a88578063474da79a14611a1a57806347b5c8931461199d578063485cc955146116f65780634e84397d14611698578063541439c3146115a7578063666c5c6e1461155557806366df2815146114e25780637f1035ff1461149a57806387e2254c1461143257806391d148541461139b57806397573cae14610cd6578063a217fddf14610c9c578063a3a2c1aa1461083f578063acd72479146107fc578063b0aa98c7146107b5578063c9d080bf14610773578063ca1123c214610703578063cfb551a4146106c4578063d547741f14610645578063dc0f12e114610600578063e63ab1e9146105a7578063f0f3f2c8146104bf578063f42dcdf8146102fd578063f9bc27c514610262578063fe360ea5146102265763ff4468ef146101ad57600080fd5b346102235760207ffffffffffffffffffffffffffffffffffffffffffffffffffffffffffffffffc360112610223576101e4612d07565b6101ec61308f565b7fffffffffffffffffffffffffffffffffffffffffffffffffffffffff0000ffff63ffff00006000549260101b1691161760005580f35b80fd5b503461022357807ffffffffffffffffffffffffffffffffffffffffffffffffffffffffffffffffc360112610223576020600154604051908152f35b50346102235760407ffffffffffffffffffffffffffffffffffffffffffffffffffffffffffffffffc36011261022357600435808252600460205273ffffffffffffffffffffffffffffffffffffffff60016040842001541633036102d35781526007602052602435604082205580f35b60046040517f9bee4249000000000000000000000000000000000000000000000000000000008152fd5b5061030736612fa0565b61030f61358c565b80156104955761031e82613a74565b61046b578183526004602052600260408420015463ffffffff9081808260a01c169160c01c161461044157828452600960205260408420548015908115610436575b5061040c5782845260046020526103838282600260408820015460c01c1661357f565b908385526004602052600260408620015460a01c16106103e257816103bb928452600a6020526103b560408520612ddc565b90613642565b60017f9b779b17422d0df92223018b32b4d1fa46e071723d6817e2486d003becc55f005580f35b60046040517f2b9091f3000000000000000000000000000000000000000000000000000000008152fd5b60046040517fcdf73d6f000000000000000000000000000000000000000000000000000000008152fd5b600191501438610360565b60046040517fd6e8a5f2000000000000000000000000000000000000000000000000000000008152fd5b60046040517f57852528000000000000000000000000000000000000000000000000000000008152fd5b60046040517fe6bfbce8000000000000000000000000000000000000000000000000000000008152fd5b50346102235760207ffffffffffffffffffffffffffffffffffffffffffffffffffffffffffffffffc360112610223576105a36104fd6004356140a4565b604051918291602083528051602084015273ffffffffffffffffffffffffffffffffffffffff806020830151166040850152604082015116606084015263ffffffff80606083015116608085015260808201511660a084015260c061057160a083015160e083870152610100860190612ea1565b9101517fffffffffffffffffffffffffffffffffffffffffffffffffffffffffffffffe08483030160e0850152612fd4565b0390f35b503461022357807ffffffffffffffffffffffffffffffffffffffffffffffffffffffffffffffffc3601126102235760206040517f65d7a28e3265b37a6474929f336521b332c1681b933f6cb9f3376673440d862a8152f35b50346102235760207ffffffffffffffffffffffffffffffffffffffffffffffffffffffffffffffffc36011261022357602061063d600435614160565b604051908152f35b50346102235760407ffffffffffffffffffffffffffffffffffffffffffffffffffffffffffffffffc360112610223576106c0600435610683612f17565b908084527f02dd7bc7dec4dceedda775e58dd541e08a116c6c53815c0bd028192f7b6268006020526106bb6001604086200154613100565b6133e6565b5080f35b503461022357807ffffffffffffffffffffffffffffffffffffffffffffffffffffffffffffffffc3601126102235761ffff6020915416604051908152f35b50346102235760207ffffffffffffffffffffffffffffffffffffffffffffffffffffffffffffffffc3601126102235761ffff61073e612d07565b61074661308f565b167fffffffffffffffffffffffffffffffffffffffffffffffffffffffffffff0000600054161760005580f35b503461022357807ffffffffffffffffffffffffffffffffffffffffffffffffffffffffffffffffc3601126102235761ffff6020915460101c16604051908152f35b50346102235760207ffffffffffffffffffffffffffffffffffffffffffffffffffffffffffffffffc3601126102235760206107f2600435613a74565b6040519015158152f35b50346102235761082b60406105a39261081436612fa0565b908252600c60205282822090825260205220612ddc565b604051918291602083526020830190612ea1565b50346102235760607ffffffffffffffffffffffffffffffffffffffffffffffffffffffffffffffffc3601126102235760043561087a61300b565b60443591808452602092600b8452604085209063ffffffff8085169283600052865260ff6040600020541615610c72576108b3846140a4565b906108d78386600052600460205263ffffffff60026040600020015460a01c161190565b15610c4857869560246108e987612f3a565b99905499604051928380927f6352211e00000000000000000000000000000000000000000000000000000000825289600483015273ffffffffffffffffffffffffffffffffffffffff9d8e9160031b1c165afa908115610c3d578a91610c03575b508833911603610bd957858952600e875260408920848a52875260408920858a52875260ff60408a205416610baf578261099861099e928460808160606109ca990151169401511690613a59565b9061362a565b90858952600d8752604089208560005287526040600020918254926109c284613545565b90551661357f565b91838752600e85526040872082885285526040872090875284526040862092866001947fffffffffffffffffffffffffffffffffffffffffffffffffffffffffffffff0090868282541617905587610a2184612f3a565b90549060031b1c16838352600c885260408320868452885260408320813b15610bab57604051927fcd279c7c00000000000000000000000000000000000000000000000000000000845233600485015287602485015260606044850152849180548686610a8d83612d18565b948560648301528d84169384600014610b885750505050600114610b49575b50508391838381809403925af18015610b3e57610b1c575b50937f49ba5cc70a02f341b5140249d02ba90919965009b4104aa6f47bf8ca3c38725f9360a09388610af68995612f3a565b90549060031b1c169160405194338652850152604084015260608301526080820152a180f35b610b2b90969594939296612d6b565b610b3a57909192938638610ac4565b8680fd5b6040513d84823e3d90fd5b85528985208592508a908a905b838510610b6d575050505082016084018183610aac565b8054858801608401528e975093909101928b918b9101610b56565b1660848083019190915294151560051b8101909401945085939250610aac915050565b8380fd5b60046040517fc1449016000000000000000000000000000000000000000000000000000000008152fd5b60046040517f05ee54e4000000000000000000000000000000000000000000000000000000008152fd5b90508781813d8311610c36575b610c1a8183612d9b565b81010312610c3257518881168103610c32573861094a565b8980fd5b503d610c10565b6040513d8c823e3d90fd5b60046040517f05538575000000000000000000000000000000000000000000000000000000008152fd5b60046040517fadb3d1e8000000000000000000000000000000000000000000000000000000008152fd5b503461022357807ffffffffffffffffffffffffffffffffffffffffffffffffffffffffffffffffc36011261022357602090604051908152f35b50346102235760807ffffffffffffffffffffffffffffffffffffffffffffffffffffffffffffffffc36011261022357610d0e61300b565b6044359167ffffffffffffffff8311610223573660238401121561022357826004013592610d3b84612eff565b93610d496040519586612d9b565b8085526024602086019160051b83010191368311610bab57602401905b82821061138b5750505060643567ffffffffffffffff81116113875736602382011215611387578060040135610d9b81612eff565b91610da96040519384612d9b565b8183526024602084019260051b820101903682116113835760248101925b82841061134257505050506004358252600460205273ffffffffffffffffffffffffffffffffffffffff60016040842001541633036102d357610e0b6004356140a4565b92610e17600435613a74565b1580611327575b6112fd5760c08401515163ffffffff821610156112d3578451608085019063ffffffff825116036112a957855183510361127f57610e7e63ffffffff80610e748160608b519a0151166109988387511688613a59565b169251168261357f565b91827fffffffffffffffffffffffffffffffffffffffffffffffffffffffffffffffff810111611252576004358552600b6020526040852063ffffffff821660005260205260ff6040600020541661122857845b8663ffffffff8216101561114f5782610ef163ffffffff83168a6135e6565b51108015611114575b6110ea57610f0e63ffffffff8216866135e6565b516004358752600c60205260408720610f2d63ffffffff84168b6135e6565b518852602052604087209080519067ffffffffffffffff82116110bd578190610f6082610f5a8654612d18565b866134be565b602090601f8311600114610ffa578a92610fef575b50507fffffffffffffffffffffffffffffffffffffffffffffffffffffffffffffffff8260011b9260031b1c19161790555b63ffffffff80821614610fc25763ffffffff16600101610ed2565b6024867f4e487b710000000000000000000000000000000000000000000000000000000081526011600452fd5b015190503880610f75565b9250838a5260208a20908a935b7fffffffffffffffffffffffffffffffffffffffffffffffffffffffffffffffe0841685106110a25760019450837fffffffffffffffffffffffffffffffffffffffffffffffffffffffffffffffe081161061106b575b505050811b019055610fa7565b01517fffffffffffffffffffffffffffffffffffffffffffffffffffffffffffffffff60f88460031b161c1916905538808061105e565b81810151835560209485019460019093019290910190611007565b6024897f4e487b710000000000000000000000000000000000000000000000000000000081526041600452fd5b60046040517f675b2ece000000000000000000000000000000000000000000000000000000008152fd5b507fffffffffffffffffffffffffffffffffffffffffffffffffffffffffffffffff840161114863ffffffff83168a6135e6565b5111610efa565b85826004358252600b60205263ffffffff604083209116600052602052604060002060017fffffffffffffffffffffffffffffffffffffffffffffffffffffffffffffff00825416179055806111a6600435614160565b73ffffffffffffffffffffffffffffffffffffffff825460201c1690813b156112245782916044839260405194859384927ff3fef3a300000000000000000000000000000000000000000000000000000000845233600485015260248401525af18015610b3e576112145750f35b61121d90612d6b565b6102235780f35b5050fd5b60046040517f8045feb1000000000000000000000000000000000000000000000000000000008152fd5b6024857f4e487b710000000000000000000000000000000000000000000000000000000081526011600452fd5b60046040517fe32109d6000000000000000000000000000000000000000000000000000000008152fd5b60046040517f98d6965d000000000000000000000000000000000000000000000000000000008152fd5b60046040517fd512652e000000000000000000000000000000000000000000000000000000008152fd5b60046040517feb9ec332000000000000000000000000000000000000000000000000000000008152fd5b5063ffffffff80608086015116906060860151161415610e1e565b833567ffffffffffffffff8111610b3a57820136604382011215610b3a5760209161137883923690604460248201359101613058565b815201930192610dc7565b8480fd5b5080fd5b8135815260209182019101610d66565b50346102235760407ffffffffffffffffffffffffffffffffffffffffffffffffffffffffffffffffc3601126102235773ffffffffffffffffffffffffffffffffffffffff60406113ea612f17565b9260043581527f02dd7bc7dec4dceedda775e58dd541e08a116c6c53815c0bd028192f7b626800602052209116600052602052602060ff604060002054166040519015158152f35b50346102235760407ffffffffffffffffffffffffffffffffffffffffffffffffffffffffffffffffc3601126102235763ffffffff604061147161300b565b926004358152600b602052209116600052602052602060ff604060002054166040519015158152f35b50346102235760207ffffffffffffffffffffffffffffffffffffffffffffffffffffffffffffffffc3601126102235760406020916004358152600983522054604051908152f35b50346102235760407ffffffffffffffffffffffffffffffffffffffffffffffffffffffffffffffffc3601126102235773ffffffffffffffffffffffffffffffffffffffff6040611531612f17565b92600435815260066020522091166000526020526020604060002054604051908152f35b503461022357807ffffffffffffffffffffffffffffffffffffffffffffffffffffffffffffffffc3601126102235754604051602091821c73ffffffffffffffffffffffffffffffffffffffff168152f35b50346102235760207ffffffffffffffffffffffffffffffffffffffffffffffffffffffffffffffffc36011261022357600435808252600460205273ffffffffffffffffffffffffffffffffffffffff8060016040852001541633036102d35761161082613a74565b61166e5761161e8392612f3a565b90549060031b1c16803b1561166b578180916004604051809481937f970065910000000000000000000000000000000000000000000000000000000083525af18015610b3e576112145750f35b50fd5b60046040517fc909b0a0000000000000000000000000000000000000000000000000000000008152fd5b50346102235760207ffffffffffffffffffffffffffffffffffffffffffffffffffffffffffffffffc360112610223576116e2600460406105a39382358152826020522001613b21565b604051918291602083526020830190612fd4565b50346102235760407ffffffffffffffffffffffffffffffffffffffffffffffffffffffffffffffffc3601126102235773ffffffffffffffffffffffffffffffffffffffff60043581811681036119985761174f612f17565b907ff0c57e16840df040f15088dc2f81fe391c3923bec73e23a9662efc9c229c6a009283549260ff8460401c16159367ffffffffffffffff811680159081611990575b6001149081611986575b15908161197d575b50611953578460017fffffffffffffffffffffffffffffffffffffffffffffffff0000000000000000831617875561191e575b5060ff855460401c16156118f4576303e80000927fffffffffffffffffffffffffffffffffffffffffffffffffffffffff0000ffff926101f49261181a33613145565b5061182433613222565b50167fffffffffffffffffffffffff000000000000000000000000000000000000000060025416176002557fffffffffffffffff0000000000000000000000000000000000000000ffff000077ffffffffffffffffffffffffffffffffffffffff0000000088549260201b1691161717161783556118a0575080f35b7fffffffffffffffffffffffffffffffffffffffffffffff00ffffffffffffffff81541690557fc7f505b2f371ae2175ee4913f4499e1f2633a7b5936321eed1cdaeb6115181d2602060405160018152a180f35b60046040517fd7e6bcf8000000000000000000000000000000000000000000000000000000008152fd5b7fffffffffffffffffffffffffffffffffffffffffffffff0000000000000000001668010000000000000001178555386117d7565b60046040517ff92ee8a9000000000000000000000000000000000000000000000000000000008152fd5b905015386117a4565b303b15915061179c565b869150611792565b600080fd5b5034610223576119ac36612fa0565b90808352600460205273ffffffffffffffffffffffffffffffffffffffff60016040852001541633036102d357600282116119f05782526009602052604082205580f35b60046040517fc6557b2d000000000000000000000000000000000000000000000000000000008152fd5b50346102235760207ffffffffffffffffffffffffffffffffffffffffffffffffffffffffffffffffc360112610223576004359060035482101561022357602073ffffffffffffffffffffffffffffffffffffffff611a7884612f3a565b90549060031b1c16604051908152f35b503461022357807ffffffffffffffffffffffffffffffffffffffffffffffffffffffffffffffffc36011261022357602073ffffffffffffffffffffffffffffffffffffffff60025416604051908152f35b50346102235760207ffffffffffffffffffffffffffffffffffffffffffffffffffffffffffffffffc3601126102235760406020916004358152600583522054604051908152f35b503461022357807ffffffffffffffffffffffffffffffffffffffffffffffffffffffffffffffffc36011261022357611b5961308f565b8080808047335af1611b696135fa565b50156102235780f35b50346102235760407ffffffffffffffffffffffffffffffffffffffffffffffffffffffffffffffffc36011261022357611baa612f17565b3373ffffffffffffffffffffffffffffffffffffffff821603611bd3576106c0906004356133e6565b60046040517f6697b232000000000000000000000000000000000000000000000000000000008152fd5b50346102235760407ffffffffffffffffffffffffffffffffffffffffffffffffffffffffffffffffc360112610223576106c0600435611c3b612f17565b908084527f02dd7bc7dec4dceedda775e58dd541e08a116c6c53815c0bd028192f7b626800602052611c736001604086200154613100565b613321565b5060607ffffffffffffffffffffffffffffffffffffffffffffffffffffffffffffffffc3601126102235760243567ffffffffffffffff600435818311610bab5736602384011215610bab57826004013592611cd384612eff565b90611ce16040519283612d9b565b84825260209460248684019160051b83010191368311611f8e576024879101915b838310611f7e575050505060443592611d1961358c565b831561049557611d2883613a74565b61046b578286526004855260026040872001549163ffffffff9283808260a01c169160c01c1614610441578387526009865260408720549182158015611f74575b15611d985760046040517fcdf73d6f000000000000000000000000000000000000000000000000000000008152fd5b6001809314611dd0575b5050505050505060017f9b779b17422d0df92223018b32b4d1fa46e071723d6817e2486d003becc55f005580f35b604051878101913360601b835260148252604082019082821090821117611f45576040525190209184885260078752806040892054939289925b611ef4575b50505003611eca5781855260048452611e348382600260408920015460c01c1661357f565b9082865260048552600260408720015460a01c16106103e2578084526006835260408420336000528352611e6d8260406000205461357f565b81855260058452604085205410611ea057600a611e9493828652526103b560408520612ddc565b38808080808080611da2565b60046040517fc7ad0cad000000000000000000000000000000000000000000000000000000008152fd5b60046040517fcb8944bc000000000000000000000000000000000000000000000000000000008152fd5b9091928151841015611f3f57611f0a84836135e6565b519081811015611f2e578a528852611f2660408a205b93613545565b919081611e0a565b908a528852611f2660408a20611f20565b92611e0f565b7f4e487b7100000000000000000000000000000000000000000000000000000000600052604160045260246000fd5b5060028314611d69565b8235815291810191879101611d02565b8780fd5b50346102235760207ffffffffffffffffffffffffffffffffffffffffffffffffffffffffffffffffc360112610223576001604060209260043581527f02dd7bc7dec4dceedda775e58dd541e08a116c6c53815c0bd028192f7b6268008452200154604051908152f35b50346102235760207ffffffffffffffffffffffffffffffffffffffffffffffffffffffffffffffffc36011261022357604090600435815260046020522080546105a373ffffffffffffffffffffffffffffffffffffffff806001850154169361206d600360028301549201612ddc565b91604051958695865260208601528116604085015263ffffffff90818160a01c16606086015260c01c16608084015260c060a084015260c0830190612ea1565b5034610223576101207ffffffffffffffffffffffffffffffffffffffffffffffffffffffffffffffffc3601126102235760043567ffffffffffffffff8111611387576120fe903690600401612cd9565b909160243567ffffffffffffffff811161138757612120903690600401612cd9565b91909260443567ffffffffffffffff8111612c1757612143903690600401612cd9565b9490956064359561ffff918288168803612c135760a435918383168303610b3a5760c435918483168303611f8e5760e43567ffffffffffffffff8111612b8757612191903690600401612cd9565b96909767ffffffffffffffff6101043511610c325736602361010435011215610c325767ffffffffffffffff610104356004013511610c3257366024610104356004013560051b61010435010111610c325786861615612be957612202926121fa913691613058565b993691613058565b978051151580612bdf575b15612bb5576e5af43d82803e903d91602b57fd5bf37fffffffffffffffffffffffffffffffffff000000000000000000000000000000600254763d602d80600a3d3981f3363d3d373d3d3d363d7300000062ffffff8260881c16178b5260781b161760205273ffffffffffffffffffffffffffffffffffffffff603760098af016998a15612b8b578a3b15612b8757888a8c888361232295604051968795869485937f35156a7a00000000000000000000000000000000000000000000000000000000855233600486015216602484015260a060448401526122f260a484018b612ea1565b907ffffffffffffffffffffffffffffffffffffffffffffffffffffffffffffffffc848303016064850152612ea1565b33608483015203925af18015612b7c57612b69575b50600354680100000000000000008110156110bd57908a61237f8360017fdc6fd84d0601163cd47b31cf21257f56a74dfc566a31fea15ba3743f53e4655c9501600355612f3a565b73ffffffffffffffffffffffffffffffffffffffff829392549160031b92831b921b19161790557ff080e589a49942bdb301617e222a6e18dbc34429e147b1e114f99aae1c0f308a604080513381528d6020820152a16001546124196123e482613545565b9b8c60015561240b6040519485948552336020860152608060408601526080850190612ea1565b908382036060850152612ea1565b0390a1877fffffffffffffffffffffffffffffffffffffffffffffffffffffffffffffffff810111612b3c577fffffffffffffffffffffffffffffffffffffffffffffffffffffffffffffffff88018752600a602052604087209067ffffffffffffffff8111612b0f57612497816124918454612d18565b846134be565b87601f8211600114612a45579080869493928a9b9c9d6125499b92612a3a575b50507fffffffffffffffffffffffffffffffffffffffffffffffffffffffffffffffff8260011b9260031b1c19161790555b7fffffffffffffffffffffffffffffffffffffffffffffffffffffffffffffffff8901885260056020521660408720556040519761252689612d7f565b60843589523360208a015260408901521660608701528360808701523691613058565b60a084015261255e6101043560040135612eff565b61256b6040519182612d9b565b6101043560048101358252602401602082015b6024610104356004013560051b6101043501018210612a1e57505060c08401527fffffffffffffffffffffffffffffffffffffffffffffffffffffffffffffffff82018152600460205260408120835181556001810173ffffffffffffffffffffffffffffffffffffffff6020860151167fffffffffffffffffffffffff00000000000000000000000000000000000000008254161790556126db6002820173ffffffffffffffffffffffffffffffffffffffff6040870151168154907fffffffffffffffff00000000000000000000000000000000000000000000000077ffffffff000000000000000000000000000000000000000060608a015160a01b1692161717815563ffffffff6080870151167fffffffff00000000ffffffffffffffffffffffffffffffffffffffffffffffff7bffffffff00000000000000000000000000000000000000000000000083549260c01b169116179055565b6003810160a085015180519067ffffffffffffffff82116129f15761270a826127048554612d18565b856134be565b602090601f831160011461294b5791806004949260c096948892612940575b50507fffffffffffffffffffffffffffffffffffffffffffffffffffffffffffffffff8260011b9260031b1c19161790555b0193015180519067ffffffffffffffff82116129135768010000000000000000821161291357602090855483875580841061288c575b5001938252602082208160051c91835b83811061284d57507fffffffffffffffffffffffffffffffffffffffffffffffffffffffffffffffe08116900380612801575b6020857fffffffffffffffffffffffffffffffffffffffffffffffffffffffffffffffff60405191018152f35b9483955b80871061281d575050602094500155388080806127d4565b909360206128426001928960ff895116919060ff809160031b9316831b921b19161790565b950196019590612805565b84855b602081106128655750838201556001016127a1565b885190989160019160209160ff60038d901b81811b199092169216901b1792019801612850565b6128b690878652838620601f80870160051c820192818816806128bc575b500160051c01906134a7565b38612791565b7fffffffffffffffffffffffffffffffffffffffffffffffffffffffffffffffff8501907fffffffffffffffffffffffffffffffffffffffffffffffffffffffffffffffff8254918a0360031b1c169055386128aa565b6024837f4e487b710000000000000000000000000000000000000000000000000000000081526041600452fd5b015190503880612729565b8386526020862091907fffffffffffffffffffffffffffffffffffffffffffffffffffffffffffffffe08416875b8181106129d9575092600192859260c0989660049896106129a2575b505050811b01905561275b565b01517fffffffffffffffffffffffffffffffffffffffffffffffffffffffffffffffff60f88460031b161c19169055388080612995565b92936020600181928786015181550195019301612979565b6024857f4e487b710000000000000000000000000000000000000000000000000000000081526041600452fd5b60ff823516823503610bab57813581526020918201910161257e565b0135905038806124b7565b8289526020892090895b7fffffffffffffffffffffffffffffffffffffffffffffffffffffffffffffffe084168110612af75750916001916125499a9b9c9d88969594837fffffffffffffffffffffffffffffffffffffffffffffffffffffffffffffffe0811610612abf575b505050811b0190556124e9565b7fffffffffffffffffffffffffffffffffffffffffffffffffffffffffffffffff60f88560031b161c19910135169055388080612ab2565b8d820135835560019092019160209182019101612a4f565b6024887f4e487b710000000000000000000000000000000000000000000000000000000081526041600452fd5b6024877f4e487b710000000000000000000000000000000000000000000000000000000081526011600452fd5b612b7590989198612d6b565b9638612337565b6040513d8b823e3d90fd5b8880fd5b60046040517fc2f868f4000000000000000000000000000000000000000000000000000000008152fd5b60046040517f6e9d2acb000000000000000000000000000000000000000000000000000000008152fd5b508851151561220d565b60046040517fa9746d32000000000000000000000000000000000000000000000000000000008152fd5b8580fd5b8280fd5b9050346113875760207ffffffffffffffffffffffffffffffffffffffffffffffffffffffffffffffffc360112611387576004357fffffffff000000000000000000000000000000000000000000000000000000008116809103612c1757602092507f7965db0b000000000000000000000000000000000000000000000000000000008114908115612caf575b5015158152f35b7f01ffc9a70000000000000000000000000000000000000000000000000000000091501438612ca8565b9181601f840112156119985782359167ffffffffffffffff8311611998576020838186019501011161199857565b6004359061ffff8216820361199857565b90600182811c92168015612d61575b6020831014612d3257565b7f4e487b7100000000000000000000000000000000000000000000000000000000600052602260045260246000fd5b91607f1691612d27565b67ffffffffffffffff8111611f4557604052565b60e0810190811067ffffffffffffffff821117611f4557604052565b90601f7fffffffffffffffffffffffffffffffffffffffffffffffffffffffffffffffe0910116810190811067ffffffffffffffff821117611f4557604052565b9060405191826000825492612df084612d18565b908184526001948581169081600014612e5f5750600114612e1c575b5050612e1a92500383612d9b565b565b9093915060005260209081600020936000915b818310612e47575050612e1a93508201013880612e0c565b85548884018501529485019487945091830191612e2f565b9050612e1a9550602093507fffffffffffffffffffffffffffffffffffffffffffffffffffffffffffffff0091501682840152151560051b8201013880612e0c565b919082519283825260005b848110612eeb5750507fffffffffffffffffffffffffffffffffffffffffffffffffffffffffffffffe0601f8460006020809697860101520116010190565b602081830181015184830182015201612eac565b67ffffffffffffffff8111611f455760051b60200190565b6024359073ffffffffffffffffffffffffffffffffffffffff8216820361199857565b600354811015612f715760036000527fc2575a0e9e593c00f959f8c92f12db2869c3395a3b0502d05e2516446f71f85b0190600090565b7f4e487b7100000000000000000000000000000000000000000000000000000000600052603260045260246000fd5b7ffffffffffffffffffffffffffffffffffffffffffffffffffffffffffffffffc6040910112611998576004359060243590565b90815180825260208080930193019160005b828110612ff4575050505090565b835160ff1685529381019392810192600101612fe6565b6024359063ffffffff8216820361199857565b67ffffffffffffffff8111611f4557601f017fffffffffffffffffffffffffffffffffffffffffffffffffffffffffffffffe01660200190565b9291926130648261301e565b916130726040519384612d9b565b829481845281830111611998578281602093846000960137010152565b3360009081527fb7db2dd08fcb62d0c9e08c51941cae53c267786a0b75803fb7960902fc8ef97d602052604081205460ff16156130c95750565b604490604051907fe2517d3f0000000000000000000000000000000000000000000000000000000082523360048301526024820152fd5b806000527f02dd7bc7dec4dceedda775e58dd541e08a116c6c53815c0bd028192f7b62680060205260406000203360005260205260ff60406000205416156130c95750565b73ffffffffffffffffffffffffffffffffffffffff1660008181527fb7db2dd08fcb62d0c9e08c51941cae53c267786a0b75803fb7960902fc8ef97d60205260408120549091907f02dd7bc7dec4dceedda775e58dd541e08a116c6c53815c0bd028192f7b6268009060ff1661321d57828052602052604082208183526020526040822060017fffffffffffffffffffffffffffffffffffffffffffffffffffffffffffffff0082541617905533917f2f8788117e7eff1d82e926ec794901d17c78024a50270940304540a733656f0d8180a4600190565b505090565b73ffffffffffffffffffffffffffffffffffffffff1660008181527f75442b0a96088b5456bc4ed01394c96a4feec0f883c9494257d76b96ab1c9b6b60205260408120549091907f65d7a28e3265b37a6474929f336521b332c1681b933f6cb9f3376673440d862a907f02dd7bc7dec4dceedda775e58dd541e08a116c6c53815c0bd028192f7b6268009060ff1661331b57818452602052604083208284526020526040832060017fffffffffffffffffffffffffffffffffffffffffffffffffffffffffffffff008254161790557f2f8788117e7eff1d82e926ec794901d17c78024a50270940304540a733656f0d339380a4600190565b50505090565b906000918083527f02dd7bc7dec4dceedda775e58dd541e08a116c6c53815c0bd028192f7b6268008060205273ffffffffffffffffffffffffffffffffffffffff6040852093169283855260205260ff6040852054161560001461331b57818452602052604083208284526020526040832060017fffffffffffffffffffffffffffffffffffffffffffffffffffffffffffffff008254161790557f2f8788117e7eff1d82e926ec794901d17c78024a50270940304540a733656f0d339380a4600190565b906000918083527f02dd7bc7dec4dceedda775e58dd541e08a116c6c53815c0bd028192f7b6268008060205273ffffffffffffffffffffffffffffffffffffffff6040852093169283855260205260ff60408520541660001461331b5781845260205260408320828452602052604083207fffffffffffffffffffffffffffffffffffffffffffffffffffffffffffffff0081541690557ff6391f5c32d9c69d2a47ea670b442974b53935d1edc7fd64eb21e047a839171b339380a4600190565b8181106134b2575050565b600081556001016134a7565b9190601f81116134cd57505050565b612e1a926000526020600020906020601f840160051c830193106134f9575b601f0160051c01906134a7565b90915081906134ec565b8181029291811591840414171561351657565b7f4e487b7100000000000000000000000000000000000000000000000000000000600052601160045260246000fd5b7fffffffffffffffffffffffffffffffffffffffffffffffffffffffffffffffff81146135165760010190565b9190820391821161351657565b9190820180921161351657565b7f9b779b17422d0df92223018b32b4d1fa46e071723d6817e2486d003becc55f0060028154146135bc5760029055565b60046040517f3ee5aeb5000000000000000000000000000000000000000000000000000000008152fd5b8051821015612f715760209160051b010190565b3d15613625573d9061360b8261301e565b916136196040519384612d9b565b82523d6000602084013e565b606090565b91909163ffffffff8080941691160191821161351657565b600091818352600460209281845260409384926136ae888589205461369e8a613699815461271061368861ffff8261367c8286168a613503565b049360101c1687613503565b049c838b8f9552898b522054613572565b613572565b868b5260088652878b2055613503565b3410613a325787908388528083528780808073ffffffffffffffffffffffffffffffffffffffff9a6136ea6001978d898d862001541692613503565b905af16136f56135fa565b5015613a0b57878080808c61371a8c83548a1c16918a845260088a528b842054613503565b905af16137256135fa565b50156139e457969083825287835263ffffffff97886002878520015460c01c169861374f8b612eff565b9961375c88519b8c612d9b565b8b8b526137688c612eff565b997fffffffffffffffffffffffffffffffffffffffffffffffffffffffffffffffe0878d019b01368c37855b8d81106138c257505050906137f0613849928786526006875288862033875287526137c28d8a88205461357f565b888752600688528987203388528852898720558786528287528060028a8820015460c01c16908d169061362a565b908685528552600287852001907fffffffff00000000ffffffffffffffffffffffffffffffffffffffffffffffff7bffffffff00000000000000000000000000000000000000000000000083549260c01b169116179055565b845197608089019060808a525180915260a0890197925b8181106138af5750505050850152838303908401527f1e7e5b16f28a5f35d8e4aae5800aa79e3ca4ab306af9384c61146d734b7f825e92916138a191612ea1565b9260608201528033930390a2565b8351895297840197928401928201613860565b6138d081849e97989e61357f565b6138da82886135e6565b526138e5818461357f565b613908818b600052600460205263ffffffff60026040600020015460a01c161190565b156139bc57826139178b612f3a565b90549060031b1c1690813b156139b8578c8f919261397993838f8b9051968795869485937fcd279c7c00000000000000000000000000000000000000000000000000000000855232908501526024840152606060448401526064830190612ea1565b03925af180156139ac5790613994929161399d575b50613545565b9b95949b613794565b6139a690612d6b565b3861398e565b8e8c51903d90823e3d90fd5b8e80fd5b858b517f101d742a000000000000000000000000000000000000000000000000000000008152fd5b84517f282ed401000000000000000000000000000000000000000000000000000000008152fd5b84517f29c74c41000000000000000000000000000000000000000000000000000000008152fd5b83517f71863311000000000000000000000000000000000000000000000000000000008152fd5b91909163ffffffff8080941691160291821691820361351657565b60206004613a9673ffffffffffffffffffffffffffffffffffffffff93612f3a565b9190549160405194859384927f303bdd2c00000000000000000000000000000000000000000000000000000000845260031b1c165afa908115613b1557600091613ade575090565b6020813d8211613b0d575b81613af660209383612d9b565b810103126113875751908115158203610223575090565b3d9150613ae9565b6040513d6000823e3d90fd5b90604051918281549182825260209081830190600052816000206000905b85601f830110613f0d5794612e1a95549184828210613efa575b828210613ee4575b828210613ece575b828210613eb8575b828210613ea3575b828210613e8d575b828210613e77575b828210613e61575b828210613e4b575b828210613e35575b828210613e1f575b828210613e09575b828210613df3575b828210613ddd575b828210613dc7575b828210613db1575b828210613d9b575b828210613d85575b828210613d6f575b828210613d59575b828210613d43575b828210613d2d575b828210613d17575b828210613d01575b828210613ceb575b828210613cd5575b828210613cbf575b828210613ca9575b828210613c93575b828210613c7d575b828210613c67575b5010613c5a575b5090500383612d9b565b60f81c8152018038613c50565b6001919460ff8560f01c16815201930184613c49565b6001919460ff8560e81c16815201930184613c41565b6001919460ff8560e01c16815201930184613c39565b6001919460ff8560d81c16815201930184613c31565b6001919460ff8560d01c16815201930184613c29565b6001919460ff8560c81c16815201930184613c21565b6001919460ff8560c01c16815201930184613c19565b6001919460ff8560b81c16815201930184613c11565b6001919460ff8560b01c16815201930184613c09565b6001919460ff8560a81c16815201930184613c01565b6001919460ff8560a01c16815201930184613bf9565b6001919460ff8560981c16815201930184613bf1565b6001919460ff8560901c16815201930184613be9565b6001919460ff8560881c16815201930184613be1565b6001919460ff8560801c16815201930184613bd9565b6001919460ff8560781c16815201930184613bd1565b6001919460ff8560701c16815201930184613bc9565b6001919460ff8560681c16815201930184613bc1565b6001919460ff8560601c16815201930184613bb9565b6001919460ff8560581c16815201930184613bb1565b6001919460ff8560501c16815201930184613ba9565b6001919460ff8560481c16815201930184613ba1565b6001919460ff8560401c16815201930184613b99565b6001919460ff8560381c16815201930184613b91565b6001919460ff8560301c16815201930184613b89565b6001919460ff8560281c16815201930184613b81565b6001919460ff85831c16815201930184613b79565b6001919460ff8560181c16815201930184613b71565b6001919460ff8560101c16815201930184613b69565b6001919460ff8560081c16815201930184613b61565b6001919460ff8516815201930184613b59565b9350916001610400829693865460ff8116825260ff8160081c168583015260ff8160101c16604083015260ff816060828260181c16818601528282608082828c1c1681890152828260a092828260281c16848c0152828260c0988d8a848460301c169101528d60e0848460381c169101528d610100848460401c169101528d610120848460481c169101528d610140848460501c169101528d610160848460581c169101521c166101808c0152828260681c166101a08c0152828260701c166101c08c0152828260781c166101e08c01521c16610200890152828260881c16610220890152828260901c16610240890152828260981c166102608901521c16610280860152828260a81c166102a0860152828260b01c166102c0860152828260b81c166102e08601521c1661030083015260ff8160c81c1661032083015260ff8160d01c1661034083015260ff8160d81c1661036083015260ff8160e01c1661038083015260ff8160e81c166103a083015260ff8160f01c166103c083015260f81c6103e082015201940192018693919492613b3f565b6040908151906140b382612d7f565b606060c0600093848152846020820152848682015284838201528460808201528260a0820152015281526004602052206141586004604051926140f584612d7f565b8054845273ffffffffffffffffffffffffffffffffffffffff8060018301541660208601526002820154908116604086015263ffffffff90818160a01c16606087015260c01c16608085015261414d60038201612ddc565b60a085015201613b21565b60c082015290565b600090808252600460205261418f63ffffffff600260408520015460c01c166008602052604084205490613503565b908252600460205260046040832001549182156141ab57500490565b807f4e487b7100000000000000000000000000000000000000000000000000000000602492526012600452fdfea164736f6c6343000814000a","linkReferences":{}},"methodIdentifiers":{"DEFAULT_ADMIN_ROLE()":"a217fddf","PAUSER_ROLE()":"e63ab1e9","advance_creator()":"c9d080bf","blockContract(uint256)":"541439c3","buySubscription(uint256,uint256)":"f42dcdf8","buySubscriptionWhitelist(uint256,bytes32[],uint256)":"24bb19a7","contractBase()":"45f14231","contracts(uint256)":"474da79a","createProject(string,string,string,uint16,uint256,uint16,uint16,string,uint8[])":"0d371c3d","getPayablePerReward(uint256)":"dc0f12e1","getProject(uint256)":"f0f3f2c8","getRoleAdmin(bytes32)":"248a9ca3","getTypeRewards(uint256)":"4e84397d","grantRole(bytes32,address)":"2f2ff15d","hasRole(bytes32,address)":"91d14854","indexToCID(uint256,uint256)":"acd72479","initialize(address,address)":"485cc955","isBlocked(uint256)":"b0aa98c7","maxMint(uint256)":"3d9e67ec","mintRewardNFT(uint256,uint32,uint256)":"a3a2c1aa","nftsMinted(uint256,address)":"66df2815","platform_fee()":"cfb551a4","podPayments()":"666c5c6e","projects(uint256)":"107046bd","projectsCounter()":"fe360ea5","renounceRole(bytes32,address)":"36568abe","revokeRole(bytes32,address)":"d547741f","rewardSubmitted(uint256,uint32)":"87e2254c","setAdvanceCreator(uint16)":"ff4468ef","setFees(uint16)":"ca1123c2","setValid(uint256,uint32,uint256[],string[])":"97573cae","setWhitelist(uint256,bytes32)":"f9bc27c5","setWhitelistStatus(uint256,uint256)":"47b5c893","supportsInterface(bytes4)":"01ffc9a7","whitelistStatus(uint256)":"7f1035ff","withdraw()":"3ccfd60b"},"storageLayout":{"storage":[{"astId":60226,"contract":"src/SubscriptionManagementV2.sol:SubscriptionManagementV2","label":"platform_fee","offset":0,"slot":"0","type":"t_uint16"},{"astId":60228,"contract":"src/SubscriptionManagementV2.sol:SubscriptionManagementV2","label":"advance_creator","offset":2,"slot":"0","type":"t_uint16"},{"astId":60230,"contract":"src/SubscriptionManagementV2.sol:SubscriptionManagementV2","label":"podPayments","offset":4,"slot":"0","type":"t_address_payable"},{"astId":60232,"contract":"src/SubscriptionManagementV2.sol:SubscriptionManagementV2","label":"projectsCounter","offset":0,"slot":"1","type":"t_uint256"},{"astId":60239,"contract":"src/SubscriptionManagementV2.sol:SubscriptionManagementV2","label":"contractBase","offset":0,"slot":"2","type":"t_address"},{"astId":60243,"contract":"src/SubscriptionManagementV2.sol:SubscriptionManagementV2","label":"contracts","offset":0,"slot":"3","type":"t_array(t_contract(Rewards1167)60204)dyn_storage"},{"astId":60265,"contract":"src/SubscriptionManagementV2.sol:SubscriptionManagementV2","label":"projects","offset":0,"slot":"4","type":"t_mapping(t_uint256,t_struct(ProjectInfo)60260_storage)"},{"astId":60269,"contract":"src/SubscriptionManagementV2.sol:SubscriptionManagementV2","label":"maxMint","offset":0,"slot":"5","type":"t_mapping(t_uint256,t_uint256)"},{"astId":60275,"contract":"src/SubscriptionManagementV2.sol:SubscriptionManagementV2","label":"nftsMinted","offset":0,"slot":"6","type":"t_mapping(t_uint256,t_mapping(t_address,t_uint256))"},{"astId":60279,"contract":"src/SubscriptionManagementV2.sol:SubscriptionManagementV2","label":"whitelistMerkleRoot","offset":0,"slot":"7","type":"t_mapping(t_uint256,t_bytes32)"},{"astId":60283,"contract":"src/SubscriptionManagementV2.sol:SubscriptionManagementV2","label":"owner_rev","offset":0,"slot":"8","type":"t_mapping(t_uint256,t_uint256)"},{"astId":60287,"contract":"src/SubscriptionManagementV2.sol:SubscriptionManagementV2","label":"whitelistStatus","offset":0,"slot":"9","type":"t_mapping(t_uint256,t_uint256)"},{"astId":60291,"contract":"src/SubscriptionManagementV2.sol:SubscriptionManagementV2","label":"_subscriptionCIDs","offset":0,"slot":"10","type":"t_mapping(t_uint256,t_string_storage)"},{"astId":60297,"contract":"src/SubscriptionManagementV2.sol:SubscriptionManagementV2","label":"rewardSubmitted","offset":0,"slot":"11","type":"t_mapping(t_uint256,t_mapping(t_uint32,t_bool))"},{"astId":60303,"contract":"src/SubscriptionManagementV2.sol:SubscriptionManagementV2","label":"indexToCID","offset":0,"slot":"12","type":"t_mapping(t_uint256,t_mapping(t_uint256,t_string_storage))"},{"astId":60309,"contract":"src/SubscriptionManagementV2.sol:SubscriptionManagementV2","label":"rewardCounter","offset":0,"slot":"13","type":"t_mapping(t_uint256,t_mapping(t_uint32,t_uint256))"},{"astId":60317,"contract":"src/SubscriptionManagementV2.sol:SubscriptionManagementV2","label":"userMintedRewards","offset":0,"slot":"14","type":"t_mapping(t_uint256,t_mapping(t_uint256,t_mapping(t_uint256,t_bool)))"}],"types":{"t_address":{"encoding":"inplace","label":"address","numberOfBytes":"20"},"t_address_payable":{"encoding":"inplace","label":"address payable","numberOfBytes":"20"},"t_array(t_contract(Rewards1167)60204)dyn_storage":{"encoding":"dynamic_array","label":"contract Rewards1167[]","numberOfBytes":"32","base":"t_contract(Rewards1167)60204"},"t_array(t_uint8)dyn_storage":{"encoding":"dynamic_array","label":"uint8[]","numberOfBytes":"32","base":"t_uint8"},"t_bool":{"encoding":"inplace","label":"bool","numberOfBytes":"1"},"t_bytes32":{"encoding":"inplace","label":"bytes32","numberOfBytes":"32"},"t_contract(Rewards1167)60204":{"encoding":"inplace","label":"contract Rewards1167","numberOfBytes":"20"},"t_mapping(t_address,t_uint256)":{"encoding":"mapping","key":"t_address","label":"mapping(address => uint256)","numberOfBytes":"32","value":"t_uint256"},"t_mapping(t_uint256,t_bool)":{"encoding":"mapping","key":"t_uint256","label":"mapping(uint256 => bool)","numberOfBytes":"32","value":"t_bool"},"t_mapping(t_uint256,t_bytes32)":{"encoding":"mapping","key":"t_uint256","label":"mapping(uint256 => bytes32)","numberOfBytes":"32","value":"t_bytes32"},"t_mapping(t_uint256,t_mapping(t_address,t_uint256))":{"encoding":"mapping","key":"t_uint256","label":"mapping(uint256 => mapping(address => uint256))","numberOfBytes":"32","value":"t_mapping(t_address,t_uint256)"},"t_mapping(t_uint256,t_mapping(t_uint256,t_bool))":{"encoding":"mapping","key":"t_uint256","label":"mapping(uint256 => mapping(uint256 => bool))","numberOfBytes":"32","value":"t_mapping(t_uint256,t_bool)"},"t_mapping(t_uint256,t_mapping(t_uint256,t_mapping(t_uint256,t_bool)))":{"encoding":"mapping","key":"t_uint256","label":"mapping(uint256 => mapping(uint256 => mapping(uint256 => bool)))","numberOfBytes":"32","value":"t_mapping(t_uint256,t_mapping(t_uint256,t_bool))"},"t_mapping(t_uint256,t_mapping(t_uint256,t_string_storage))":{"encoding":"mapping","key":"t_uint256","label":"mapping(uint256 => mapping(uint256 => string))","numberOfBytes":"32","value":"t_mapping(t_uint256,t_string_storage)"},"t_mapping(t_uint256,t_mapping(t_uint32,t_bool))":{"encoding":"mapping","key":"t_uint256","label":"mapping(uint256 => mapping(uint32 => bool))","numberOfBytes":"32","value":"t_mapping(t_uint32,t_bool)"},"t_mapping(t_uint256,t_mapping(t_uint32,t_uint256))":{"encoding":"mapping","key":"t_uint256","label":"mapping(uint256 => mapping(uint32 => uint256))","numberOfBytes":"32","value":"t_mapping(t_uint32,t_uint256)"},"t_mapping(t_uint256,t_string_storage)":{"encoding":"mapping","key":"t_uint256","label":"mapping(uint256 => string)","numberOfBytes":"32","value":"t_string_storage"},"t_mapping(t_uint256,t_struct(ProjectInfo)60260_storage)":{"encoding":"mapping","key":"t_uint256","label":"mapping(uint256 => struct SubscriptionManagementV2.ProjectInfo)","numberOfBytes":"32","value":"t_struct(ProjectInfo)60260_storage"},"t_mapping(t_uint256,t_uint256)":{"encoding":"mapping","key":"t_uint256","label":"mapping(uint256 => uint256)","numberOfBytes":"32","value":"t_uint256"},"t_mapping(t_uint32,t_bool)":{"encoding":"mapping","key":"t_uint32","label":"mapping(uint32 => bool)","numberOfBytes":"32","value":"t_bool"},"t_mapping(t_uint32,t_uint256)":{"encoding":"mapping","key":"t_uint32","label":"mapping(uint32 => uint256)","numberOfBytes":"32","value":"t_uint256"},"t_string_storage":{"encoding":"bytes","label":"string","numberOfBytes":"32"},"t_struct(ProjectInfo)60260_storage":{"encoding":"inplace","label":"struct SubscriptionManagementV2.ProjectInfo","numberOfBytes":"160","members":[{"astId":60246,"contract":"src/SubscriptionManagementV2.sol:SubscriptionManagementV2","label":"price","offset":0,"slot":"0","type":"t_uint256"},{"astId":60248,"contract":"src/SubscriptionManagementV2.sol:SubscriptionManagementV2","label":"projectOwner","offset":0,"slot":"1","type":"t_address"},{"astId":60250,"contract":"src/SubscriptionManagementV2.sol:SubscriptionManagementV2","label":"nftContract","offset":0,"slot":"2","type":"t_address"},{"astId":60252,"contract":"src/SubscriptionManagementV2.sol:SubscriptionManagementV2","label":"maxBuyers","offset":20,"slot":"2","type":"t_uint32"},{"astId":60254,"contract":"src/SubscriptionManagementV2.sol:SubscriptionManagementV2","label":"currentBuyers","offset":24,"slot":"2","type":"t_uint32"},{"astId":60256,"contract":"src/SubscriptionManagementV2.sol:SubscriptionManagementV2","label":"backendId","offset":0,"slot":"3","type":"t_string_storage"},{"astId":60259,"contract":"src/SubscriptionManagementV2.sol:SubscriptionManagementV2","label":"rewards","offset":0,"slot":"4","type":"t_array(t_uint8)dyn_storage"}]},"t_uint16":{"encoding":"inplace","label":"uint16","numberOfBytes":"2"},"t_uint256":{"encoding":"inplace","label":"uint256","numberOfBytes":"32"},"t_uint32":{"encoding":"inplace","label":"uint32","numberOfBytes":"4"},"t_uint8":{"encoding":"inplace","label":"uint8","numberOfBytes":"1"}}},"id":82}